{
	"contracts/loans.sol": {
		"P2PBank": {
			"abi": [
				{
					"inputs": [
						{
							"internalType": "address",
							"name": "owner",
							"type": "address"
						}
					],
					"name": "OwnableInvalidOwner",
					"type": "error"
				},
				{
					"inputs": [
						{
							"internalType": "address",
							"name": "account",
							"type": "address"
						}
					],
					"name": "OwnableUnauthorizedAccount",
					"type": "error"
				},
				{
					"inputs": [],
					"name": "ReentrancyGuardReentrantCall",
					"type": "error"
				},
				{
					"inputs": [
						{
							"internalType": "address",
							"name": "token",
							"type": "address"
						}
					],
					"name": "SafeERC20FailedOperation",
					"type": "error"
				},
				{
					"anonymous": false,
					"inputs": [
						{
							"indexed": true,
							"internalType": "address",
							"name": "previousOwner",
							"type": "address"
						},
						{
							"indexed": true,
							"internalType": "address",
							"name": "newOwner",
							"type": "address"
						}
					],
					"name": "OwnershipTransferred",
					"type": "event"
				},
				{
					"anonymous": false,
					"inputs": [
						{
							"indexed": true,
							"internalType": "bytes32",
							"name": "id",
							"type": "bytes32"
						},
						{
							"indexed": true,
							"internalType": "address",
							"name": "prestamista",
							"type": "address"
						},
						{
							"indexed": true,
							"internalType": "address",
							"name": "prestatario",
							"type": "address"
						},
						{
							"indexed": false,
							"internalType": "address",
							"name": "token",
							"type": "address"
						},
						{
							"indexed": false,
							"internalType": "uint256",
							"name": "cantidad",
							"type": "uint256"
						},
						{
							"indexed": false,
							"internalType": "uint256",
							"name": "interes",
							"type": "uint256"
						},
						{
							"indexed": false,
							"internalType": "uint256",
							"name": "total_pagar",
							"type": "uint256"
						},
						{
							"indexed": false,
							"internalType": "uint256[]",
							"name": "fechas_de_pago",
							"type": "uint256[]"
						}
					],
					"name": "PrestamoCreado",
					"type": "event"
				},
				{
					"anonymous": false,
					"inputs": [
						{
							"indexed": true,
							"internalType": "bytes32",
							"name": "id",
							"type": "bytes32"
						},
						{
							"indexed": true,
							"internalType": "address",
							"name": "prestatario",
							"type": "address"
						},
						{
							"indexed": false,
							"internalType": "uint256",
							"name": "cantidad_pagada",
							"type": "uint256"
						},
						{
							"indexed": false,
							"internalType": "uint256",
							"name": "restante",
							"type": "uint256"
						},
						{
							"indexed": false,
							"internalType": "uint256",
							"name": "siguiente_fecha",
							"type": "uint256"
						}
					],
					"name": "PrestamoPagado",
					"type": "event"
				},
				{
					"anonymous": false,
					"inputs": [
						{
							"indexed": true,
							"internalType": "bytes32",
							"name": "id",
							"type": "bytes32"
						}
					],
					"name": "PrestamoPagadoCompleto",
					"type": "event"
				},
				{
					"anonymous": false,
					"inputs": [
						{
							"indexed": true,
							"internalType": "bytes32",
							"name": "id",
							"type": "bytes32"
						}
					],
					"name": "PrestamoPagoInicial",
					"type": "event"
				},
				{
					"inputs": [
						{
							"internalType": "bytes32",
							"name": "id",
							"type": "bytes32"
						},
						{
							"internalType": "address",
							"name": "prestatario",
							"type": "address"
						},
						{
							"internalType": "address",
							"name": "token",
							"type": "address"
						},
						{
							"internalType": "uint256",
							"name": "cantidad",
							"type": "uint256"
						},
						{
							"internalType": "uint256",
							"name": "interes",
							"type": "uint256"
						},
						{
							"internalType": "uint256[]",
							"name": "fechas_de_pago",
							"type": "uint256[]"
						}
					],
					"name": "crear_prestamo",
					"outputs": [],
					"stateMutability": "nonpayable",
					"type": "function"
				},
				{
					"inputs": [
						{
							"internalType": "bytes32",
							"name": "id",
							"type": "bytes32"
						}
					],
					"name": "cuanto_falta",
					"outputs": [
						{
							"internalType": "uint256",
							"name": "",
							"type": "uint256"
						}
					],
					"stateMutability": "view",
					"type": "function"
				},
				{
					"inputs": [
						{
							"internalType": "bytes32",
							"name": "id",
							"type": "bytes32"
						}
					],
					"name": "ejecutar_prestamo",
					"outputs": [],
					"stateMutability": "nonpayable",
					"type": "function"
				},
				{
					"inputs": [
						{
							"internalType": "bytes32",
							"name": "id",
							"type": "bytes32"
						}
					],
					"name": "getLoanInfo",
					"outputs": [
						{
							"internalType": "address",
							"name": "prestamista",
							"type": "address"
						},
						{
							"internalType": "address",
							"name": "prestatario",
							"type": "address"
						},
						{
							"internalType": "address",
							"name": "token",
							"type": "address"
						},
						{
							"internalType": "uint256",
							"name": "cantidad",
							"type": "uint256"
						},
						{
							"internalType": "uint256",
							"name": "interes",
							"type": "uint256"
						},
						{
							"internalType": "uint256",
							"name": "total_pagar",
							"type": "uint256"
						},
						{
							"internalType": "uint256",
							"name": "pagado",
							"type": "uint256"
						},
						{
							"internalType": "bool",
							"name": "dinero_enviado",
							"type": "bool"
						},
						{
							"internalType": "bool",
							"name": "todo_pagado",
							"type": "bool"
						},
						{
							"internalType": "uint256",
							"name": "proxima_fecha",
							"type": "uint256"
						}
					],
					"stateMutability": "view",
					"type": "function"
				},
				{
					"inputs": [],
					"name": "owner",
					"outputs": [
						{
							"internalType": "address",
							"name": "",
							"type": "address"
						}
					],
					"stateMutability": "view",
					"type": "function"
				},
				{
					"inputs": [
						{
							"internalType": "bytes32",
							"name": "id",
							"type": "bytes32"
						},
						{
							"internalType": "uint256",
							"name": "cantidad",
							"type": "uint256"
						}
					],
					"name": "pagar_prestamo",
					"outputs": [],
					"stateMutability": "nonpayable",
					"type": "function"
				},
				{
					"inputs": [
						{
							"internalType": "bytes32",
							"name": "id",
							"type": "bytes32"
						}
					],
					"name": "pagos_vencidos",
					"outputs": [
						{
							"internalType": "uint256",
							"name": "",
							"type": "uint256"
						}
					],
					"stateMutability": "view",
					"type": "function"
				},
				{
					"inputs": [
						{
							"internalType": "bytes32",
							"name": "",
							"type": "bytes32"
						}
					],
					"name": "prestamos",
					"outputs": [
						{
							"internalType": "address",
							"name": "prestamista",
							"type": "address"
						},
						{
							"internalType": "address",
							"name": "prestatario",
							"type": "address"
						},
						{
							"internalType": "contract IERC20",
							"name": "token",
							"type": "address"
						},
						{
							"internalType": "uint256",
							"name": "cantidad",
							"type": "uint256"
						},
						{
							"internalType": "uint256",
							"name": "interes",
							"type": "uint256"
						},
						{
							"internalType": "uint256",
							"name": "total_pagar",
							"type": "uint256"
						},
						{
							"internalType": "uint256",
							"name": "pagado",
							"type": "uint256"
						},
						{
							"internalType": "bool",
							"name": "dinero_enviado",
							"type": "bool"
						},
						{
							"internalType": "bool",
							"name": "todo_pagado",
							"type": "bool"
						},
						{
							"internalType": "uint256",
							"name": "proxima_fecha",
							"type": "uint256"
						}
					],
					"stateMutability": "view",
					"type": "function"
				},
				{
					"inputs": [],
					"name": "renounceOwnership",
					"outputs": [],
					"stateMutability": "nonpayable",
					"type": "function"
				},
				{
					"inputs": [
						{
							"internalType": "address",
							"name": "tokenAddress",
							"type": "address"
						}
					],
					"name": "rescueTokens",
					"outputs": [],
					"stateMutability": "nonpayable",
					"type": "function"
				},
				{
					"inputs": [
						{
							"internalType": "address",
							"name": "newOwner",
							"type": "address"
						}
					],
					"name": "transferOwnership",
					"outputs": [],
					"stateMutability": "nonpayable",
					"type": "function"
				},
				{
					"inputs": [
						{
							"internalType": "bytes32",
							"name": "id",
							"type": "bytes32"
						}
					],
					"name": "ver_fechas_pago",
					"outputs": [
						{
							"internalType": "uint256[]",
							"name": "",
							"type": "uint256[]"
						}
					],
					"stateMutability": "view",
					"type": "function"
				}
			],
			"devdoc": {
				"errors": {
					"OwnableInvalidOwner(address)": [
						{
							"details": "The owner is not a valid owner account. (eg. `address(0)`)"
						}
					],
					"OwnableUnauthorizedAccount(address)": [
						{
							"details": "The caller account is not authorized to perform an operation."
						}
					],
					"ReentrancyGuardReentrantCall()": [
						{
							"details": "Unauthorized reentrant call."
						}
					],
					"SafeERC20FailedOperation(address)": [
						{
							"details": "An operation with an ERC-20 token failed."
						}
					]
				},
				"events": {
					"PrestamoCreado(bytes32,address,address,address,uint256,uint256,uint256,uint256[])": {
						"details": "Evento al crear un nuevo préstamo"
					},
					"PrestamoPagado(bytes32,address,uint256,uint256,uint256)": {
						"details": "Evento cuando el prestatario paga una cuota"
					},
					"PrestamoPagadoCompleto(bytes32)": {
						"details": "Evento cuando el préstamo se liquida por completo"
					},
					"PrestamoPagoInicial(bytes32)": {
						"details": "Evento cuando el prestamista deposita el principal"
					}
				},
				"kind": "dev",
				"methods": {
					"crear_prestamo(bytes32,address,address,uint256,uint256,uint256[])": {
						"params": {
							"cantidad": "Monto a prestar (en unidades del token, sin decimales añadidos).",
							"fechas_de_pago": "Array de timestamps UNIX ordenados de forma estrictamente ascendente (>= block.timestamp). Requisitos:  - Solo el prestamista puede llamar a esta función, pero en esta versión no forzamos modifier; el propio prestamista firma off‑chain.  - id debe no existir aún (mapeo prestamos[id].prestamista == address(0)).  - prestatario ≠ address(0).  - cantidad > 0.  - interes ≤ 10000.  - fechas_de_pago.length ≥ 1. Cada timestamp debe ser >= block.timestamp, y la secuencia debe ser estrictamente creciente. Al llamar:   1) Se calcula total_pagar = cantidad + (cantidad * interes / 10000).   2) Se guarda el Prestamo en prestamos[id], con dinero_enviado=false, pagado=0, todo_pagado=false, proxima_fecha=0.   3) Emite PrestamoCreado. La transferencia del principal (transferFrom) **NO** ocurre aquí, sino en `fundLoan(...)` tras approve.",
							"id": "Identificador único para este préstamo (por ejemplo: keccak256(abi.encodePacked(lender, borrower, block.timestamp))).",
							"interes": "Interés en basis points (p.ej. 500 = 5.00 %). Debe ser ≤ 10000 (100 %).",
							"prestatario": "Dirección Ethereum del prestatario.",
							"token": "Dirección del token ERC‑20 usado (p. ej. DAI, WETH)."
						}
					},
					"ejecutar_prestamo(bytes32)": {
						"params": {
							"id": "ID del préstamo previamente creado. Requisitos:  - Solo el lender (lo que guardamos en loans[id].lender) puede llamar.  - funded == false. Acciones:  1) Ejecuta `token.transferFrom(prestamista, prestatario, cantidad)`.  2) Marca `dinero_enviado = true`.  3) Emite PrestamoPagoInicial(id)."
						}
					},
					"owner()": {
						"details": "Returns the address of the current owner."
					},
					"pagar_prestamo(bytes32,uint256)": {
						"params": {
							"cantidad": "Monto que el prestatario quiere pagar (debe ser exactamente la cuota esperada). Requisitos:  - prestamos[id].dinero_enviado == true (el préstamo ya fue financiado).  - prestamos[id].todo_pagado == false.  - msg.sender == prestamos[id].prestatario.  - proxima_fecha < fechas_de_pago.length (aún quedan cuotas pendientes).  - block.timestamp >= fechas_de_pago[proxima_fecha] (fecha de vencimiento).  - cantidad == cuotaExacta (para evitar pagos parciales inválidos). Acciones:  1) Transfiere `cantidad` tokens desde prestatario → prestamista (requiere `approve` previo).  2) Actualiza `p.pagado += cantidad`.  3) Incrementa `p.proxima_fecha += 1`.  4) Si proxima_fecha == fechas_de_pago.length, marca `todo_pagado = true` y emite PrestamoPagadoCompleto(id).  5) Emite PrestamoPagado(id, prestatario, cantidad, restante, siguiente_fecha).",
							"id": "ID del préstamo."
						}
					},
					"renounceOwnership()": {
						"details": "Leaves the contract without owner. It will not be possible to call `onlyOwner` functions. Can only be called by the current owner. NOTE: Renouncing ownership will leave the contract without an owner, thereby disabling any functionality that is only available to the owner."
					},
					"transferOwnership(address)": {
						"details": "Transfers ownership of the contract to a new account (`newOwner`). Can only be called by the current owner."
					}
				},
				"stateVariables": {
					"prestamos": {
						"details": "Mapping de ID (bytes32) → Loan completo"
					}
				},
				"version": 1
			},
			"evm": {
				"assembly": "    /* \"contracts/loans.sol\":1031:13511  contract P2PBank is Ownable(msg.sender), ReentrancyGuard {... */\n  mstore(0x40, 0x80)\n  callvalue\n  dup1\n  iszero\n  tag_1\n  jumpi\n  revert(0x00, 0x00)\ntag_1:\n  pop\n    /* \"contracts/loans.sol\":1059:1069  msg.sender */\n  caller\n    /* \"@openzeppelin/contracts/access/Ownable.sol\":1297:1298  0 */\n  0x00\n    /* \"@openzeppelin/contracts/access/Ownable.sol\":1273:1299  initialOwner == address(0) */\n  0xffffffffffffffffffffffffffffffffffffffff\n  and\n    /* \"@openzeppelin/contracts/access/Ownable.sol\":1273:1285  initialOwner */\n  dup2\n    /* \"@openzeppelin/contracts/access/Ownable.sol\":1273:1299  initialOwner == address(0) */\n  0xffffffffffffffffffffffffffffffffffffffff\n  and\n  sub\n    /* \"@openzeppelin/contracts/access/Ownable.sol\":1269:1364  if (initialOwner == address(0)) {... */\n  tag_5\n  jumpi\n    /* \"@openzeppelin/contracts/access/Ownable.sol\":1350:1351  0 */\n  0x00\n    /* \"@openzeppelin/contracts/access/Ownable.sol\":1322:1353  OwnableInvalidOwner(address(0)) */\n  mload(0x40)\n  0x1e4fbdf700000000000000000000000000000000000000000000000000000000\n  dup2\n  mstore\n  0x04\n  add\n  tag_6\n  swap2\n  swap1\n  tag_7\n  jump\t// in\ntag_6:\n  mload(0x40)\n  dup1\n  swap2\n  sub\n  swap1\n  revert\n    /* \"@openzeppelin/contracts/access/Ownable.sol\":1269:1364  if (initialOwner == address(0)) {... */\ntag_5:\n    /* \"@openzeppelin/contracts/access/Ownable.sol\":1373:1405  _transferOwnership(initialOwner) */\n  tag_8\n    /* \"@openzeppelin/contracts/access/Ownable.sol\":1392:1404  initialOwner */\n  dup2\n    /* \"@openzeppelin/contracts/access/Ownable.sol\":1373:1391  _transferOwnership */\n  shl(0x20, tag_9)\n    /* \"@openzeppelin/contracts/access/Ownable.sol\":1373:1405  _transferOwnership(initialOwner) */\n  0x20\n  shr\n  jump\t// in\ntag_8:\n    /* \"@openzeppelin/contracts/access/Ownable.sol\":1225:1412  constructor(address initialOwner) {... */\n  pop\n    /* \"@openzeppelin/contracts/utils/ReentrancyGuard.sol\":1857:1858  1 */\n  0x01\n    /* \"@openzeppelin/contracts/utils/ReentrancyGuard.sol\":2061:2068  _status */\n  dup1\n    /* \"@openzeppelin/contracts/utils/ReentrancyGuard.sol\":2061:2082  _status = NOT_ENTERED */\n  dup2\n  swap1\n  sstore\n  pop\n    /* \"contracts/loans.sol\":1031:13511  contract P2PBank is Ownable(msg.sender), ReentrancyGuard {... */\n  jump(tag_11)\n    /* \"@openzeppelin/contracts/access/Ownable.sol\":2912:3099  function _transferOwnership(address newOwner) internal virtual {... */\ntag_9:\n    /* \"@openzeppelin/contracts/access/Ownable.sol\":2985:3001  address oldOwner */\n  0x00\n    /* \"@openzeppelin/contracts/access/Ownable.sol\":3004:3010  _owner */\n  0x00\n  0x00\n  swap1\n  sload\n  swap1\n  0x0100\n  exp\n  swap1\n  div\n  0xffffffffffffffffffffffffffffffffffffffff\n  and\n    /* \"@openzeppelin/contracts/access/Ownable.sol\":2985:3010  address oldOwner = _owner */\n  swap1\n  pop\n    /* \"@openzeppelin/contracts/access/Ownable.sol\":3029:3037  newOwner */\n  dup2\n    /* \"@openzeppelin/contracts/access/Ownable.sol\":3020:3026  _owner */\n  0x00\n  0x00\n    /* \"@openzeppelin/contracts/access/Ownable.sol\":3020:3037  _owner = newOwner */\n  0x0100\n  exp\n  dup2\n  sload\n  dup2\n  0xffffffffffffffffffffffffffffffffffffffff\n  mul\n  not\n  and\n  swap1\n  dup4\n  0xffffffffffffffffffffffffffffffffffffffff\n  and\n  mul\n  or\n  swap1\n  sstore\n  pop\n    /* \"@openzeppelin/contracts/access/Ownable.sol\":3083:3091  newOwner */\n  dup2\n    /* \"@openzeppelin/contracts/access/Ownable.sol\":3052:3092  OwnershipTransferred(oldOwner, newOwner) */\n  0xffffffffffffffffffffffffffffffffffffffff\n  and\n    /* \"@openzeppelin/contracts/access/Ownable.sol\":3073:3081  oldOwner */\n  dup2\n    /* \"@openzeppelin/contracts/access/Ownable.sol\":3052:3092  OwnershipTransferred(oldOwner, newOwner) */\n  0xffffffffffffffffffffffffffffffffffffffff\n  and\n  0x8be0079c531659141344cd1fd0a4f28419497f9722a3daafe3b4186f6b6457e0\n  mload(0x40)\n  mload(0x40)\n  dup1\n  swap2\n  sub\n  swap1\n  log3\n    /* \"@openzeppelin/contracts/access/Ownable.sol\":2975:3099  {... */\n  pop\n    /* \"@openzeppelin/contracts/access/Ownable.sol\":2912:3099  function _transferOwnership(address newOwner) internal virtual {... */\n  pop\n  jump\t// out\n    /* \"#utility.yul\":7:133   */\ntag_13:\n    /* \"#utility.yul\":44:51   */\n  0x00\n    /* \"#utility.yul\":84:126   */\n  0xffffffffffffffffffffffffffffffffffffffff\n    /* \"#utility.yul\":77:82   */\n  dup3\n    /* \"#utility.yul\":73:127   */\n  and\n    /* \"#utility.yul\":62:127   */\n  swap1\n  pop\n    /* \"#utility.yul\":7:133   */\n  swap2\n  swap1\n  pop\n  jump\t// out\n    /* \"#utility.yul\":139:235   */\ntag_14:\n    /* \"#utility.yul\":176:183   */\n  0x00\n    /* \"#utility.yul\":205:229   */\n  tag_19\n    /* \"#utility.yul\":223:228   */\n  dup3\n    /* \"#utility.yul\":205:229   */\n  tag_13\n  jump\t// in\ntag_19:\n    /* \"#utility.yul\":194:229   */\n  swap1\n  pop\n    /* \"#utility.yul\":139:235   */\n  swap2\n  swap1\n  pop\n  jump\t// out\n    /* \"#utility.yul\":241:359   */\ntag_15:\n    /* \"#utility.yul\":328:352   */\n  tag_21\n    /* \"#utility.yul\":346:351   */\n  dup2\n    /* \"#utility.yul\":328:352   */\n  tag_14\n  jump\t// in\ntag_21:\n    /* \"#utility.yul\":323:326   */\n  dup3\n    /* \"#utility.yul\":316:353   */\n  mstore\n    /* \"#utility.yul\":241:359   */\n  pop\n  pop\n  jump\t// out\n    /* \"#utility.yul\":365:587   */\ntag_7:\n    /* \"#utility.yul\":458:462   */\n  0x00\n    /* \"#utility.yul\":496:498   */\n  0x20\n    /* \"#utility.yul\":485:494   */\n  dup3\n    /* \"#utility.yul\":481:499   */\n  add\n    /* \"#utility.yul\":473:499   */\n  swap1\n  pop\n    /* \"#utility.yul\":509:580   */\n  tag_23\n    /* \"#utility.yul\":577:578   */\n  0x00\n    /* \"#utility.yul\":566:575   */\n  dup4\n    /* \"#utility.yul\":562:579   */\n  add\n    /* \"#utility.yul\":553:559   */\n  dup5\n    /* \"#utility.yul\":509:580   */\n  tag_15\n  jump\t// in\ntag_23:\n    /* \"#utility.yul\":365:587   */\n  swap3\n  swap2\n  pop\n  pop\n  jump\t// out\n    /* \"contracts/loans.sol\":1031:13511  contract P2PBank is Ownable(msg.sender), ReentrancyGuard {... */\ntag_11:\n  dataSize(sub_0)\n  dup1\n  dataOffset(sub_0)\n  0x00\n  codecopy\n  0x00\n  return\nstop\n\nsub_0: assembly {\n        /* \"contracts/loans.sol\":1031:13511  contract P2PBank is Ownable(msg.sender), ReentrancyGuard {... */\n      mstore(0x40, 0x80)\n      callvalue\n      dup1\n      iszero\n      tag_1\n      jumpi\n      revert(0x00, 0x00)\n    tag_1:\n      pop\n      jumpi(tag_2, lt(calldatasize, 0x04))\n      shr(0xe0, calldataload(0x00))\n      dup1\n      0x8da5cb5b\n      gt\n      tag_15\n      jumpi\n      dup1\n      0x8da5cb5b\n      eq\n      tag_9\n      jumpi\n      dup1\n      0x9aa1afa5\n      eq\n      tag_10\n      jumpi\n      dup1\n      0xb6157090\n      eq\n      tag_11\n      jumpi\n      dup1\n      0xb67f1828\n      eq\n      tag_12\n      jumpi\n      dup1\n      0xce614fa3\n      eq\n      tag_13\n      jumpi\n      dup1\n      0xf2fde38b\n      eq\n      tag_14\n      jumpi\n      jump(tag_2)\n    tag_15:\n      dup1\n      0xae3bf8\n      eq\n      tag_3\n      jumpi\n      dup1\n      0x03af79cd\n      eq\n      tag_4\n      jumpi\n      dup1\n      0x30d84cc1\n      eq\n      tag_5\n      jumpi\n      dup1\n      0x6316483b\n      eq\n      tag_6\n      jumpi\n      dup1\n      0x6676bf4f\n      eq\n      tag_7\n      jumpi\n      dup1\n      0x715018a6\n      eq\n      tag_8\n      jumpi\n    tag_2:\n      revert(0x00, 0x00)\n        /* \"contracts/loans.sol\":13248:13508  function rescueTokens(address tokenAddress) external onlyOwner {... */\n    tag_3:\n      tag_16\n      0x04\n      dup1\n      calldatasize\n      sub\n      dup2\n      add\n      swap1\n      tag_17\n      swap2\n      swap1\n      tag_18\n      jump\t// in\n    tag_17:\n      tag_19\n      jump\t// in\n    tag_16:\n      stop\n        /* \"contracts/loans.sol\":2141:2186  mapping(bytes32 => Prestamo) public prestamos */\n    tag_4:\n      tag_20\n      0x04\n      dup1\n      calldatasize\n      sub\n      dup2\n      add\n      swap1\n      tag_21\n      swap2\n      swap1\n      tag_22\n      jump\t// in\n    tag_21:\n      tag_23\n      jump\t// in\n    tag_20:\n      mload(0x40)\n      tag_24\n      swap11\n      swap10\n      swap9\n      swap8\n      swap7\n      swap6\n      swap5\n      swap4\n      swap3\n      swap2\n      swap1\n      tag_25\n      jump\t// in\n    tag_24:\n      mload(0x40)\n      dup1\n      swap2\n      sub\n      swap1\n      return\n        /* \"contracts/loans.sol\":4729:6670  function crear_prestamo(... */\n    tag_5:\n      tag_26\n      0x04\n      dup1\n      calldatasize\n      sub\n      dup2\n      add\n      swap1\n      tag_27\n      swap2\n      swap1\n      tag_28\n      jump\t// in\n    tag_27:\n      tag_29\n      jump\t// in\n    tag_26:\n      stop\n        /* \"contracts/loans.sol\":12117:12249  function ver_fechas_pago(bytes32 id) external view returns (uint256[] memory) {... */\n    tag_6:\n      tag_30\n      0x04\n      dup1\n      calldatasize\n      sub\n      dup2\n      add\n      swap1\n      tag_31\n      swap2\n      swap1\n      tag_22\n      jump\t// in\n    tag_31:\n      tag_32\n      jump\t// in\n    tag_30:\n      mload(0x40)\n      tag_33\n      swap2\n      swap1\n      tag_34\n      jump\t// in\n    tag_33:\n      mload(0x40)\n      dup1\n      swap2\n      sub\n      swap1\n      return\n        /* \"contracts/loans.sol\":7278:7792  function ejecutar_prestamo(bytes32 id) external nonReentrant {... */\n    tag_7:\n      tag_35\n      0x04\n      dup1\n      calldatasize\n      sub\n      dup2\n      add\n      swap1\n      tag_36\n      swap2\n      swap1\n      tag_22\n      jump\t// in\n    tag_36:\n      tag_37\n      jump\t// in\n    tag_35:\n      stop\n        /* \"@openzeppelin/contracts/access/Ownable.sol\":2293:2394  function renounceOwnership() public virtual onlyOwner {... */\n    tag_8:\n      tag_38\n      tag_39\n      jump\t// in\n    tag_38:\n      stop\n        /* \"@openzeppelin/contracts/access/Ownable.sol\":1638:1723  function owner() public view virtual returns (address) {... */\n    tag_9:\n      tag_40\n      tag_41\n      jump\t// in\n    tag_40:\n      mload(0x40)\n      tag_42\n      swap2\n      swap1\n      tag_43\n      jump\t// in\n    tag_42:\n      mload(0x40)\n      dup1\n      swap2\n      sub\n      swap1\n      return\n        /* \"contracts/loans.sol\":12809:13031  function cuanto_falta(bytes32 id) external view returns (uint256) {... */\n    tag_10:\n      tag_44\n      0x04\n      dup1\n      calldatasize\n      sub\n      dup2\n      add\n      swap1\n      tag_45\n      swap2\n      swap1\n      tag_22\n      jump\t// in\n    tag_45:\n      tag_46\n      jump\t// in\n    tag_44:\n      mload(0x40)\n      tag_47\n      swap2\n      swap1\n      tag_48\n      jump\t// in\n    tag_47:\n      mload(0x40)\n      dup1\n      swap2\n      sub\n      swap1\n      return\n        /* \"contracts/loans.sol\":11119:12025  function getLoanInfo(bytes32 id) external view returns (... */\n    tag_11:\n      tag_49\n      0x04\n      dup1\n      calldatasize\n      sub\n      dup2\n      add\n      swap1\n      tag_50\n      swap2\n      swap1\n      tag_22\n      jump\t// in\n    tag_50:\n      tag_51\n      jump\t// in\n    tag_49:\n      mload(0x40)\n      tag_52\n      swap11\n      swap10\n      swap9\n      swap8\n      swap7\n      swap6\n      swap5\n      swap4\n      swap3\n      swap2\n      swap1\n      tag_53\n      jump\t// in\n    tag_52:\n      mload(0x40)\n      dup1\n      swap2\n      sub\n      swap1\n      return\n        /* \"contracts/loans.sol\":12340:12725  function pagos_vencidos(bytes32 id) external view returns (uint256) {... */\n    tag_12:\n      tag_54\n      0x04\n      dup1\n      calldatasize\n      sub\n      dup2\n      add\n      swap1\n      tag_55\n      swap2\n      swap1\n      tag_22\n      jump\t// in\n    tag_55:\n      tag_56\n      jump\t// in\n    tag_54:\n      mload(0x40)\n      tag_57\n      swap2\n      swap1\n      tag_48\n      jump\t// in\n    tag_57:\n      mload(0x40)\n      dup1\n      swap2\n      sub\n      swap1\n      return\n        /* \"contracts/loans.sol\":9178:10914  function pagar_prestamo(bytes32 id, uint256 cantidad) external nonReentrant {... */\n    tag_13:\n      tag_58\n      0x04\n      dup1\n      calldatasize\n      sub\n      dup2\n      add\n      swap1\n      tag_59\n      swap2\n      swap1\n      tag_60\n      jump\t// in\n    tag_59:\n      tag_61\n      jump\t// in\n    tag_58:\n      stop\n        /* \"@openzeppelin/contracts/access/Ownable.sol\":2543:2758  function transferOwnership(address newOwner) public virtual onlyOwner {... */\n    tag_14:\n      tag_62\n      0x04\n      dup1\n      calldatasize\n      sub\n      dup2\n      add\n      swap1\n      tag_63\n      swap2\n      swap1\n      tag_18\n      jump\t// in\n    tag_63:\n      tag_64\n      jump\t// in\n    tag_62:\n      stop\n        /* \"contracts/loans.sol\":13248:13508  function rescueTokens(address tokenAddress) external onlyOwner {... */\n    tag_19:\n        /* \"@openzeppelin/contracts/access/Ownable.sol\":1531:1544  _checkOwner() */\n      tag_66\n        /* \"@openzeppelin/contracts/access/Ownable.sol\":1531:1542  _checkOwner */\n      tag_67\n        /* \"@openzeppelin/contracts/access/Ownable.sol\":1531:1544  _checkOwner() */\n      jump\t// in\n    tag_66:\n        /* \"contracts/loans.sol\":13322:13331  IERC20 tk */\n      0x00\n        /* \"contracts/loans.sol\":13341:13353  tokenAddress */\n      dup2\n        /* \"contracts/loans.sol\":13322:13354  IERC20 tk = IERC20(tokenAddress) */\n      swap1\n      pop\n        /* \"contracts/loans.sol\":13365:13376  uint256 bal */\n      0x00\n        /* \"contracts/loans.sol\":13379:13381  tk */\n      dup2\n        /* \"contracts/loans.sol\":13379:13391  tk.balanceOf */\n      0xffffffffffffffffffffffffffffffffffffffff\n      and\n      0x70a08231\n        /* \"contracts/loans.sol\":13400:13404  this */\n      address\n        /* \"contracts/loans.sol\":13379:13406  tk.balanceOf(address(this)) */\n      mload(0x40)\n      dup3\n      0xffffffff\n      and\n      0xe0\n      shl\n      dup2\n      mstore\n      0x04\n      add\n      tag_69\n      swap2\n      swap1\n      tag_43\n      jump\t// in\n    tag_69:\n      0x20\n      mload(0x40)\n      dup1\n      dup4\n      sub\n      dup2\n      dup7\n      gas\n      staticcall\n      iszero\n      dup1\n      iszero\n      tag_71\n      jumpi\n      returndatacopy(0x00, 0x00, returndatasize)\n      revert(0x00, returndatasize)\n    tag_71:\n      pop\n      pop\n      pop\n      pop\n      mload(0x40)\n      returndatasize\n      not(0x1f)\n      0x1f\n      dup3\n      add\n      and\n      dup3\n      add\n      dup1\n      0x40\n      mstore\n      pop\n      dup2\n      add\n      swap1\n      tag_72\n      swap2\n      swap1\n      tag_73\n      jump\t// in\n    tag_72:\n        /* \"contracts/loans.sol\":13365:13406  uint256 bal = tk.balanceOf(address(this)) */\n      swap1\n      pop\n        /* \"contracts/loans.sol\":13431:13432  0 */\n      0x00\n        /* \"contracts/loans.sol\":13425:13428  bal */\n      dup2\n        /* \"contracts/loans.sol\":13425:13432  bal > 0 */\n      gt\n        /* \"contracts/loans.sol\":13417:13460  require(bal > 0, \"Sin saldo para rescatar\") */\n      tag_74\n      jumpi\n      mload(0x40)\n      0x08c379a000000000000000000000000000000000000000000000000000000000\n      dup2\n      mstore\n      0x04\n      add\n      tag_75\n      swap1\n      tag_76\n      jump\t// in\n    tag_75:\n      mload(0x40)\n      dup1\n      swap2\n      sub\n      swap1\n      revert\n    tag_74:\n        /* \"contracts/loans.sol\":13471:13500  tk.safeTransfer(owner(), bal) */\n      tag_77\n        /* \"contracts/loans.sol\":13487:13494  owner() */\n      tag_78\n        /* \"contracts/loans.sol\":13487:13492  owner */\n      tag_41\n        /* \"contracts/loans.sol\":13487:13494  owner() */\n      jump\t// in\n    tag_78:\n        /* \"contracts/loans.sol\":13496:13499  bal */\n      dup3\n        /* \"contracts/loans.sol\":13471:13473  tk */\n      dup5\n        /* \"contracts/loans.sol\":13471:13486  tk.safeTransfer */\n      0xffffffffffffffffffffffffffffffffffffffff\n      and\n      tag_79\n      swap1\n        /* \"contracts/loans.sol\":13471:13500  tk.safeTransfer(owner(), bal) */\n      swap3\n      swap2\n      swap1\n      0xffffffff\n      and\n      jump\t// in\n    tag_77:\n        /* \"contracts/loans.sol\":13311:13508  {... */\n      pop\n      pop\n        /* \"contracts/loans.sol\":13248:13508  function rescueTokens(address tokenAddress) external onlyOwner {... */\n      pop\n      jump\t// out\n        /* \"contracts/loans.sol\":2141:2186  mapping(bytes32 => Prestamo) public prestamos */\n    tag_23:\n      mstore(0x20, 0x02)\n      dup1\n      0x00\n      mstore\n      keccak256(0x00, 0x40)\n      0x00\n      swap2\n      pop\n      swap1\n      pop\n      dup1\n      0x00\n      add\n      0x00\n      swap1\n      sload\n      swap1\n      0x0100\n      exp\n      swap1\n      div\n      0xffffffffffffffffffffffffffffffffffffffff\n      and\n      swap1\n      dup1\n      0x01\n      add\n      0x00\n      swap1\n      sload\n      swap1\n      0x0100\n      exp\n      swap1\n      div\n      0xffffffffffffffffffffffffffffffffffffffff\n      and\n      swap1\n      dup1\n      0x02\n      add\n      0x00\n      swap1\n      sload\n      swap1\n      0x0100\n      exp\n      swap1\n      div\n      0xffffffffffffffffffffffffffffffffffffffff\n      and\n      swap1\n      dup1\n      0x03\n      add\n      sload\n      swap1\n      dup1\n      0x04\n      add\n      sload\n      swap1\n      dup1\n      0x05\n      add\n      sload\n      swap1\n      dup1\n      0x06\n      add\n      sload\n      swap1\n      dup1\n      0x07\n      add\n      0x00\n      swap1\n      sload\n      swap1\n      0x0100\n      exp\n      swap1\n      div\n      0xff\n      and\n      swap1\n      dup1\n      0x07\n      add\n      0x01\n      swap1\n      sload\n      swap1\n      0x0100\n      exp\n      swap1\n      div\n      0xff\n      and\n      swap1\n      dup1\n      0x09\n      add\n      sload\n      swap1\n      pop\n      dup11\n      jump\t// out\n        /* \"contracts/loans.sol\":4729:6670  function crear_prestamo(... */\n    tag_29:\n        /* \"@openzeppelin/contracts/utils/ReentrancyGuard.sol\":2500:2521  _nonReentrantBefore() */\n      tag_81\n        /* \"@openzeppelin/contracts/utils/ReentrancyGuard.sol\":2500:2519  _nonReentrantBefore */\n      tag_82\n        /* \"@openzeppelin/contracts/utils/ReentrancyGuard.sol\":2500:2521  _nonReentrantBefore() */\n      jump\t// in\n    tag_81:\n        /* \"contracts/loans.sol\":5033:5034  0 */\n      0x00\n        /* \"contracts/loans.sol\":4996:5035  prestamos[id].prestamista == address(0) */\n      0xffffffffffffffffffffffffffffffffffffffff\n      and\n        /* \"contracts/loans.sol\":4996:5005  prestamos */\n      0x02\n        /* \"contracts/loans.sol\":4996:5009  prestamos[id] */\n      0x00\n        /* \"contracts/loans.sol\":5006:5008  id */\n      dup9\n        /* \"contracts/loans.sol\":4996:5009  prestamos[id] */\n      dup2\n      mstore\n      0x20\n      add\n      swap1\n      dup2\n      mstore\n      0x20\n      add\n      0x00\n      keccak256\n        /* \"contracts/loans.sol\":4996:5021  prestamos[id].prestamista */\n      0x00\n      add\n      0x00\n      swap1\n      sload\n      swap1\n      0x0100\n      exp\n      swap1\n      div\n      0xffffffffffffffffffffffffffffffffffffffff\n      and\n        /* \"contracts/loans.sol\":4996:5035  prestamos[id].prestamista == address(0) */\n      0xffffffffffffffffffffffffffffffffffffffff\n      and\n      eq\n        /* \"contracts/loans.sol\":4988:5052  require(prestamos[id].prestamista == address(0), \"ID ya existe\") */\n      tag_84\n      jumpi\n      mload(0x40)\n      0x08c379a000000000000000000000000000000000000000000000000000000000\n      dup2\n      mstore\n      0x04\n      add\n      tag_85\n      swap1\n      tag_86\n      jump\t// in\n    tag_85:\n      mload(0x40)\n      dup1\n      swap2\n      sub\n      swap1\n      revert\n    tag_84:\n        /* \"contracts/loans.sol\":5133:5134  0 */\n      0x00\n        /* \"contracts/loans.sol\":5110:5135  prestatario != address(0) */\n      0xffffffffffffffffffffffffffffffffffffffff\n      and\n        /* \"contracts/loans.sol\":5110:5121  prestatario */\n      dup6\n        /* \"contracts/loans.sol\":5110:5135  prestatario != address(0) */\n      0xffffffffffffffffffffffffffffffffffffffff\n      and\n      sub\n        /* \"contracts/loans.sol\":5102:5160  require(prestatario != address(0), \"Prestatario invalido\") */\n      tag_87\n      jumpi\n      mload(0x40)\n      0x08c379a000000000000000000000000000000000000000000000000000000000\n      dup2\n      mstore\n      0x04\n      add\n      tag_88\n      swap1\n      tag_89\n      jump\t// in\n    tag_88:\n      mload(0x40)\n      dup1\n      swap2\n      sub\n      swap1\n      revert\n    tag_87:\n        /* \"contracts/loans.sol\":5190:5191  0 */\n      0x00\n        /* \"contracts/loans.sol\":5179:5187  cantidad */\n      dup4\n        /* \"contracts/loans.sol\":5179:5191  cantidad > 0 */\n      gt\n        /* \"contracts/loans.sol\":5171:5218  require(cantidad > 0, \"Principal debe ser > 0\") */\n      tag_90\n      jumpi\n      mload(0x40)\n      0x08c379a000000000000000000000000000000000000000000000000000000000\n      dup2\n      mstore\n      0x04\n      add\n      tag_91\n      swap1\n      tag_92\n      jump\t// in\n    tag_91:\n      mload(0x40)\n      dup1\n      swap2\n      sub\n      swap1\n      revert\n    tag_90:\n        /* \"contracts/loans.sol\":5248:5253  10000 */\n      0x2710\n        /* \"contracts/loans.sol\":5237:5244  interes */\n      dup3\n        /* \"contracts/loans.sol\":5237:5253  interes <= 10000 */\n      gt\n      iszero\n        /* \"contracts/loans.sol\":5229:5277  require(interes <= 10000, \"Interes maximo 100%\") */\n      tag_93\n      jumpi\n      mload(0x40)\n      0x08c379a000000000000000000000000000000000000000000000000000000000\n      dup2\n      mstore\n      0x04\n      add\n      tag_94\n      swap1\n      tag_95\n      jump\t// in\n    tag_94:\n      mload(0x40)\n      dup1\n      swap2\n      sub\n      swap1\n      revert\n    tag_93:\n        /* \"contracts/loans.sol\":5320:5321  0 */\n      0x00\n        /* \"contracts/loans.sol\":5296:5310  fechas_de_pago */\n      dup2\n        /* \"contracts/loans.sol\":5296:5317  fechas_de_pago.length */\n      mload\n        /* \"contracts/loans.sol\":5296:5321  fechas_de_pago.length > 0 */\n      gt\n        /* \"contracts/loans.sol\":5288:5342  require(fechas_de_pago.length > 0, \"Cronograma vacio\") */\n      tag_96\n      jumpi\n      mload(0x40)\n      0x08c379a000000000000000000000000000000000000000000000000000000000\n      dup2\n      mstore\n      0x04\n      add\n      tag_97\n      swap1\n      tag_98\n      jump\t// in\n    tag_97:\n      mload(0x40)\n      dup1\n      swap2\n      sub\n      swap1\n      revert\n    tag_96:\n        /* \"contracts/loans.sol\":5423:5434  uint256 len */\n      0x00\n        /* \"contracts/loans.sol\":5437:5451  fechas_de_pago */\n      dup2\n        /* \"contracts/loans.sol\":5437:5458  fechas_de_pago.length */\n      mload\n        /* \"contracts/loans.sol\":5423:5458  uint256 len = fechas_de_pago.length */\n      swap1\n      pop\n        /* \"contracts/loans.sol\":5469:5481  uint256 prev */\n      0x00\n        /* \"contracts/loans.sol\":5484:5485  0 */\n      0x00\n        /* \"contracts/loans.sol\":5469:5485  uint256 prev = 0 */\n      swap1\n      pop\n        /* \"contracts/loans.sol\":5501:5510  uint256 i */\n      0x00\n        /* \"contracts/loans.sol\":5513:5514  0 */\n      0x00\n        /* \"contracts/loans.sol\":5501:5514  uint256 i = 0 */\n      swap1\n      pop\n        /* \"contracts/loans.sol\":5496:5776  for (uint256 i = 0; i < len; i++) {... */\n    tag_99:\n        /* \"contracts/loans.sol\":5520:5523  len */\n      dup3\n        /* \"contracts/loans.sol\":5516:5517  i */\n      dup2\n        /* \"contracts/loans.sol\":5516:5523  i < len */\n      lt\n        /* \"contracts/loans.sol\":5496:5776  for (uint256 i = 0; i < len; i++) {... */\n      iszero\n      tag_100\n      jumpi\n        /* \"contracts/loans.sol\":5545:5555  uint256 ts */\n      0x00\n        /* \"contracts/loans.sol\":5558:5572  fechas_de_pago */\n      dup5\n        /* \"contracts/loans.sol\":5573:5574  i */\n      dup3\n        /* \"contracts/loans.sol\":5558:5575  fechas_de_pago[i] */\n      dup2\n      mload\n      dup2\n      lt\n      tag_102\n      jumpi\n      tag_103\n      tag_104\n      jump\t// in\n    tag_103:\n    tag_102:\n      0x20\n      mul\n      0x20\n      add\n      add\n      mload\n        /* \"contracts/loans.sol\":5545:5575  uint256 ts = fechas_de_pago[i] */\n      swap1\n      pop\n        /* \"contracts/loans.sol\":5604:5619  block.timestamp */\n      timestamp\n        /* \"contracts/loans.sol\":5598:5600  ts */\n      dup2\n        /* \"contracts/loans.sol\":5598:5619  ts >= block.timestamp */\n      lt\n      iszero\n        /* \"contracts/loans.sol\":5590:5637  require(ts >= block.timestamp, \"Fecha < ahora\") */\n      tag_105\n      jumpi\n      mload(0x40)\n      0x08c379a000000000000000000000000000000000000000000000000000000000\n      dup2\n      mstore\n      0x04\n      add\n      tag_106\n      swap1\n      tag_107\n      jump\t// in\n    tag_106:\n      mload(0x40)\n      dup1\n      swap2\n      sub\n      swap1\n      revert\n    tag_105:\n        /* \"contracts/loans.sol\":5660:5661  0 */\n      0x00\n        /* \"contracts/loans.sol\":5656:5657  i */\n      dup3\n        /* \"contracts/loans.sol\":5656:5661  i > 0 */\n      gt\n        /* \"contracts/loans.sol\":5652:5741  if (i > 0) {... */\n      iszero\n      tag_108\n      jumpi\n        /* \"contracts/loans.sol\":5695:5699  prev */\n      dup3\n        /* \"contracts/loans.sol\":5690:5692  ts */\n      dup2\n        /* \"contracts/loans.sol\":5690:5699  ts > prev */\n      gt\n        /* \"contracts/loans.sol\":5682:5725  require(ts > prev, \"Fechas no ascendentes\") */\n      tag_109\n      jumpi\n      mload(0x40)\n      0x08c379a000000000000000000000000000000000000000000000000000000000\n      dup2\n      mstore\n      0x04\n      add\n      tag_110\n      swap1\n      tag_111\n      jump\t// in\n    tag_110:\n      mload(0x40)\n      dup1\n      swap2\n      sub\n      swap1\n      revert\n    tag_109:\n        /* \"contracts/loans.sol\":5652:5741  if (i > 0) {... */\n    tag_108:\n        /* \"contracts/loans.sol\":5762:5764  ts */\n      dup1\n        /* \"contracts/loans.sol\":5755:5764  prev = ts */\n      swap3\n      pop\n        /* \"contracts/loans.sol\":5530:5776  {... */\n      pop\n        /* \"contracts/loans.sol\":5525:5528  i++ */\n      dup1\n      dup1\n      0x01\n      add\n      swap2\n      pop\n      pop\n        /* \"contracts/loans.sol\":5496:5776  for (uint256 i = 0; i < len; i++) {... */\n      jump(tag_99)\n    tag_100:\n      pop\n        /* \"contracts/loans.sol\":5873:5886  uint256 total */\n      0x00\n        /* \"contracts/loans.sol\":5923:5928  10000 */\n      0x2710\n        /* \"contracts/loans.sol\":5912:5919  interes */\n      dup6\n        /* \"contracts/loans.sol\":5901:5909  cantidad */\n      dup8\n        /* \"contracts/loans.sol\":5901:5919  cantidad * interes */\n      tag_112\n      swap2\n      swap1\n      tag_113\n      jump\t// in\n    tag_112:\n        /* \"contracts/loans.sol\":5900:5928  (cantidad * interes) / 10000 */\n      tag_114\n      swap2\n      swap1\n      tag_115\n      jump\t// in\n    tag_114:\n        /* \"contracts/loans.sol\":5889:5897  cantidad */\n      dup7\n        /* \"contracts/loans.sol\":5889:5928  cantidad + (cantidad * interes) / 10000 */\n      tag_116\n      swap2\n      swap1\n      tag_117\n      jump\t// in\n    tag_116:\n        /* \"contracts/loans.sol\":5873:5928  uint256 total = cantidad + (cantidad * interes) / 10000 */\n      swap1\n      pop\n        /* \"contracts/loans.sol\":5983:6002  Prestamo storage ln */\n      0x00\n        /* \"contracts/loans.sol\":6005:6014  prestamos */\n      0x02\n        /* \"contracts/loans.sol\":6005:6018  prestamos[id] */\n      0x00\n        /* \"contracts/loans.sol\":6015:6017  id */\n      dup12\n        /* \"contracts/loans.sol\":6005:6018  prestamos[id] */\n      dup2\n      mstore\n      0x20\n      add\n      swap1\n      dup2\n      mstore\n      0x20\n      add\n      0x00\n      keccak256\n        /* \"contracts/loans.sol\":5983:6018  Prestamo storage ln = prestamos[id] */\n      swap1\n      pop\n        /* \"contracts/loans.sol\":6052:6062  msg.sender */\n      caller\n        /* \"contracts/loans.sol\":6029:6031  ln */\n      dup2\n        /* \"contracts/loans.sol\":6029:6043  ln.prestamista */\n      0x00\n      add\n      0x00\n        /* \"contracts/loans.sol\":6029:6062  ln.prestamista       = msg.sender */\n      0x0100\n      exp\n      dup2\n      sload\n      dup2\n      0xffffffffffffffffffffffffffffffffffffffff\n      mul\n      not\n      and\n      swap1\n      dup4\n      0xffffffffffffffffffffffffffffffffffffffff\n      and\n      mul\n      or\n      swap1\n      sstore\n      pop\n        /* \"contracts/loans.sol\":6094:6105  prestatario */\n      dup9\n        /* \"contracts/loans.sol\":6073:6075  ln */\n      dup2\n        /* \"contracts/loans.sol\":6073:6087  ln.prestatario */\n      0x01\n      add\n      0x00\n        /* \"contracts/loans.sol\":6073:6105  ln.prestatario     = prestatario */\n      0x0100\n      exp\n      dup2\n      sload\n      dup2\n      0xffffffffffffffffffffffffffffffffffffffff\n      mul\n      not\n      and\n      swap1\n      dup4\n      0xffffffffffffffffffffffffffffffffffffffff\n      and\n      mul\n      or\n      swap1\n      sstore\n      pop\n        /* \"contracts/loans.sol\":6141:6146  token */\n      dup8\n        /* \"contracts/loans.sol\":6116:6118  ln */\n      dup2\n        /* \"contracts/loans.sol\":6116:6124  ln.token */\n      0x02\n      add\n      0x00\n        /* \"contracts/loans.sol\":6116:6147  ln.token        = IERC20(token) */\n      0x0100\n      exp\n      dup2\n      sload\n      dup2\n      0xffffffffffffffffffffffffffffffffffffffff\n      mul\n      not\n      and\n      swap1\n      dup4\n      0xffffffffffffffffffffffffffffffffffffffff\n      and\n      mul\n      or\n      swap1\n      sstore\n      pop\n        /* \"contracts/loans.sol\":6175:6183  cantidad */\n      dup7\n        /* \"contracts/loans.sol\":6158:6160  ln */\n      dup2\n        /* \"contracts/loans.sol\":6158:6169  ln.cantidad */\n      0x03\n      add\n        /* \"contracts/loans.sol\":6158:6183  ln.cantidad    = cantidad */\n      dup2\n      swap1\n      sstore\n      pop\n        /* \"contracts/loans.sol\":6208:6215  interes */\n      dup6\n        /* \"contracts/loans.sol\":6194:6196  ln */\n      dup2\n        /* \"contracts/loans.sol\":6194:6204  ln.interes */\n      0x04\n      add\n        /* \"contracts/loans.sol\":6194:6215  ln.interes  = interes */\n      dup2\n      swap1\n      sstore\n      pop\n        /* \"contracts/loans.sol\":6243:6248  total */\n      dup2\n        /* \"contracts/loans.sol\":6226:6228  ln */\n      dup2\n        /* \"contracts/loans.sol\":6226:6240  ln.total_pagar */\n      0x05\n      add\n        /* \"contracts/loans.sol\":6226:6248  ln.total_pagar = total */\n      dup2\n      swap1\n      sstore\n      pop\n        /* \"contracts/loans.sol\":6277:6278  0 */\n      0x00\n        /* \"contracts/loans.sol\":6259:6261  ln */\n      dup2\n        /* \"contracts/loans.sol\":6259:6268  ln.pagado */\n      0x06\n      add\n        /* \"contracts/loans.sol\":6259:6278  ln.pagado       = 0 */\n      dup2\n      swap1\n      sstore\n      pop\n        /* \"contracts/loans.sol\":6315:6320  false */\n      0x00\n        /* \"contracts/loans.sol\":6289:6291  ln */\n      dup2\n        /* \"contracts/loans.sol\":6289:6306  ln.dinero_enviado */\n      0x07\n      add\n      0x00\n        /* \"contracts/loans.sol\":6289:6320  ln.dinero_enviado       = false */\n      0x0100\n      exp\n      dup2\n      sload\n      dup2\n      0xff\n      mul\n      not\n      and\n      swap1\n      dup4\n      iszero\n      iszero\n      mul\n      or\n      swap1\n      sstore\n      pop\n        /* \"contracts/loans.sol\":6349:6354  false */\n      0x00\n        /* \"contracts/loans.sol\":6331:6333  ln */\n      dup2\n        /* \"contracts/loans.sol\":6331:6345  ln.todo_pagado */\n      0x07\n      add\n      0x01\n        /* \"contracts/loans.sol\":6331:6354  ln.todo_pagado  = false */\n      0x0100\n      exp\n      dup2\n      sload\n      dup2\n      0xff\n      mul\n      not\n      and\n      swap1\n      dup4\n      iszero\n      iszero\n      mul\n      or\n      swap1\n      sstore\n      pop\n        /* \"contracts/loans.sol\":6389:6403  fechas_de_pago */\n      dup5\n        /* \"contracts/loans.sol\":6365:6367  ln */\n      dup2\n        /* \"contracts/loans.sol\":6365:6382  ln.fechas_de_pago */\n      0x08\n      add\n        /* \"contracts/loans.sol\":6365:6403  ln.fechas_de_pago     = fechas_de_pago */\n      swap1\n      dup1\n      mload\n      swap1\n      0x20\n      add\n      swap1\n      tag_118\n      swap3\n      swap2\n      swap1\n      tag_119\n      jump\t// in\n    tag_118:\n      pop\n        /* \"contracts/loans.sol\":6436:6437  0 */\n      0x00\n        /* \"contracts/loans.sol\":6414:6416  ln */\n      dup2\n        /* \"contracts/loans.sol\":6414:6430  ln.proxima_fecha */\n      0x09\n      add\n        /* \"contracts/loans.sol\":6414:6437  ln.proxima_fecha    = 0 */\n      dup2\n      swap1\n      sstore\n      pop\n        /* \"contracts/loans.sol\":6526:6537  prestatario */\n      dup9\n        /* \"contracts/loans.sol\":6455:6662  PrestamoCreado(... */\n      0xffffffffffffffffffffffffffffffffffffffff\n      and\n        /* \"contracts/loans.sol\":6501:6511  msg.sender */\n      caller\n        /* \"contracts/loans.sol\":6455:6662  PrestamoCreado(... */\n      0xffffffffffffffffffffffffffffffffffffffff\n      and\n        /* \"contracts/loans.sol\":6484:6486  id */\n      dup12\n        /* \"contracts/loans.sol\":6455:6662  PrestamoCreado(... */\n      0x679a35f396a7f020f0066bb8801931ebe39b7e55a1a1418d54cbd3aa724af7a8\n        /* \"contracts/loans.sol\":6552:6557  token */\n      dup12\n        /* \"contracts/loans.sol\":6572:6580  cantidad */\n      dup12\n        /* \"contracts/loans.sol\":6595:6602  interes */\n      dup12\n        /* \"contracts/loans.sol\":6617:6622  total */\n      dup9\n        /* \"contracts/loans.sol\":6637:6651  fechas_de_pago */\n      dup13\n        /* \"contracts/loans.sol\":6455:6662  PrestamoCreado(... */\n      mload(0x40)\n      tag_120\n      swap6\n      swap5\n      swap4\n      swap3\n      swap2\n      swap1\n      tag_121\n      jump\t// in\n    tag_120:\n      mload(0x40)\n      dup1\n      swap2\n      sub\n      swap1\n      log4\n        /* \"contracts/loans.sol\":4952:6670  {... */\n      pop\n      pop\n      pop\n      pop\n        /* \"@openzeppelin/contracts/utils/ReentrancyGuard.sol\":2542:2562  _nonReentrantAfter() */\n      tag_122\n        /* \"@openzeppelin/contracts/utils/ReentrancyGuard.sol\":2542:2560  _nonReentrantAfter */\n      tag_123\n        /* \"@openzeppelin/contracts/utils/ReentrancyGuard.sol\":2542:2562  _nonReentrantAfter() */\n      jump\t// in\n    tag_122:\n        /* \"contracts/loans.sol\":4729:6670  function crear_prestamo(... */\n      pop\n      pop\n      pop\n      pop\n      pop\n      pop\n      jump\t// out\n        /* \"contracts/loans.sol\":12117:12249  function ver_fechas_pago(bytes32 id) external view returns (uint256[] memory) {... */\n    tag_32:\n        /* \"contracts/loans.sol\":12177:12193  uint256[] memory */\n      0x60\n        /* \"contracts/loans.sol\":12213:12222  prestamos */\n      0x02\n        /* \"contracts/loans.sol\":12213:12226  prestamos[id] */\n      0x00\n        /* \"contracts/loans.sol\":12223:12225  id */\n      dup4\n        /* \"contracts/loans.sol\":12213:12226  prestamos[id] */\n      dup2\n      mstore\n      0x20\n      add\n      swap1\n      dup2\n      mstore\n      0x20\n      add\n      0x00\n      keccak256\n        /* \"contracts/loans.sol\":12213:12241  prestamos[id].fechas_de_pago */\n      0x08\n      add\n        /* \"contracts/loans.sol\":12206:12241  return prestamos[id].fechas_de_pago */\n      dup1\n      sload\n      dup1\n      0x20\n      mul\n      0x20\n      add\n      mload(0x40)\n      swap1\n      dup2\n      add\n      0x40\n      mstore\n      dup1\n      swap3\n      swap2\n      swap1\n      dup2\n      dup2\n      mstore\n      0x20\n      add\n      dup3\n      dup1\n      sload\n      dup1\n      iszero\n      tag_125\n      jumpi\n      0x20\n      mul\n      dup3\n      add\n      swap2\n      swap1\n      0x00\n      mstore\n      keccak256(0x00, 0x20)\n      swap1\n    tag_126:\n      dup2\n      sload\n      dup2\n      mstore\n      0x20\n      add\n      swap1\n      0x01\n      add\n      swap1\n      dup1\n      dup4\n      gt\n      tag_126\n      jumpi\n    tag_125:\n      pop\n      pop\n      pop\n      pop\n      pop\n      swap1\n      pop\n        /* \"contracts/loans.sol\":12117:12249  function ver_fechas_pago(bytes32 id) external view returns (uint256[] memory) {... */\n      swap2\n      swap1\n      pop\n      jump\t// out\n        /* \"contracts/loans.sol\":7278:7792  function ejecutar_prestamo(bytes32 id) external nonReentrant {... */\n    tag_37:\n        /* \"@openzeppelin/contracts/utils/ReentrancyGuard.sol\":2500:2521  _nonReentrantBefore() */\n      tag_128\n        /* \"@openzeppelin/contracts/utils/ReentrancyGuard.sol\":2500:2519  _nonReentrantBefore */\n      tag_82\n        /* \"@openzeppelin/contracts/utils/ReentrancyGuard.sol\":2500:2521  _nonReentrantBefore() */\n      jump\t// in\n    tag_128:\n        /* \"contracts/loans.sol\":7350:7368  Prestamo storage p */\n      0x00\n        /* \"contracts/loans.sol\":7371:7380  prestamos */\n      0x02\n        /* \"contracts/loans.sol\":7371:7384  prestamos[id] */\n      0x00\n        /* \"contracts/loans.sol\":7381:7383  id */\n      dup4\n        /* \"contracts/loans.sol\":7371:7384  prestamos[id] */\n      dup2\n      mstore\n      0x20\n      add\n      swap1\n      dup2\n      mstore\n      0x20\n      add\n      0x00\n      keccak256\n        /* \"contracts/loans.sol\":7350:7384  Prestamo storage p = prestamos[id] */\n      swap1\n      pop\n        /* \"contracts/loans.sol\":7428:7429  0 */\n      0x00\n        /* \"contracts/loans.sol\":7403:7430  p.prestamista != address(0) */\n      0xffffffffffffffffffffffffffffffffffffffff\n      and\n        /* \"contracts/loans.sol\":7403:7404  p */\n      dup2\n        /* \"contracts/loans.sol\":7403:7416  p.prestamista */\n      0x00\n      add\n      0x00\n      swap1\n      sload\n      swap1\n      0x0100\n      exp\n      swap1\n      div\n      0xffffffffffffffffffffffffffffffffffffffff\n      and\n        /* \"contracts/loans.sol\":7403:7430  p.prestamista != address(0) */\n      0xffffffffffffffffffffffffffffffffffffffff\n      and\n      sub\n        /* \"contracts/loans.sol\":7395:7453  require(p.prestamista != address(0), \"Prestamo no existe\") */\n      tag_130\n      jumpi\n      mload(0x40)\n      0x08c379a000000000000000000000000000000000000000000000000000000000\n      dup2\n      mstore\n      0x04\n      add\n      tag_131\n      swap1\n      tag_132\n      jump\t// in\n    tag_131:\n      mload(0x40)\n      dup1\n      swap2\n      sub\n      swap1\n      revert\n    tag_130:\n        /* \"contracts/loans.sol\":7486:7487  p */\n      dup1\n        /* \"contracts/loans.sol\":7486:7499  p.prestamista */\n      0x00\n      add\n      0x00\n      swap1\n      sload\n      swap1\n      0x0100\n      exp\n      swap1\n      div\n      0xffffffffffffffffffffffffffffffffffffffff\n      and\n        /* \"contracts/loans.sol\":7472:7499  msg.sender == p.prestamista */\n      0xffffffffffffffffffffffffffffffffffffffff\n      and\n        /* \"contracts/loans.sol\":7472:7482  msg.sender */\n      caller\n        /* \"contracts/loans.sol\":7472:7499  msg.sender == p.prestamista */\n      0xffffffffffffffffffffffffffffffffffffffff\n      and\n      eq\n        /* \"contracts/loans.sol\":7464:7515  require(msg.sender == p.prestamista, \"Solo lender\") */\n      tag_133\n      jumpi\n      mload(0x40)\n      0x08c379a000000000000000000000000000000000000000000000000000000000\n      dup2\n      mstore\n      0x04\n      add\n      tag_134\n      swap1\n      tag_135\n      jump\t// in\n    tag_134:\n      mload(0x40)\n      dup1\n      swap2\n      sub\n      swap1\n      revert\n    tag_133:\n        /* \"contracts/loans.sol\":7535:7536  p */\n      dup1\n        /* \"contracts/loans.sol\":7535:7551  p.dinero_enviado */\n      0x07\n      add\n      0x00\n      swap1\n      sload\n      swap1\n      0x0100\n      exp\n      swap1\n      div\n      0xff\n      and\n        /* \"contracts/loans.sol\":7534:7551  !p.dinero_enviado */\n      iszero\n        /* \"contracts/loans.sol\":7526:7573  require(!p.dinero_enviado, \"Ya fue financiado\") */\n      tag_136\n      jumpi\n      mload(0x40)\n      0x08c379a000000000000000000000000000000000000000000000000000000000\n      dup2\n      mstore\n      0x04\n      add\n      tag_137\n      swap1\n      tag_138\n      jump\t// in\n    tag_137:\n      mload(0x40)\n      dup1\n      swap2\n      sub\n      swap1\n      revert\n    tag_136:\n        /* \"contracts/loans.sol\":7643:7709  p.token.safeTransferFrom(p.prestamista, p.prestatario, p.cantidad) */\n      tag_139\n        /* \"contracts/loans.sol\":7668:7669  p */\n      dup2\n        /* \"contracts/loans.sol\":7668:7681  p.prestamista */\n      0x00\n      add\n      0x00\n      swap1\n      sload\n      swap1\n      0x0100\n      exp\n      swap1\n      div\n      0xffffffffffffffffffffffffffffffffffffffff\n      and\n        /* \"contracts/loans.sol\":7683:7684  p */\n      dup3\n        /* \"contracts/loans.sol\":7683:7696  p.prestatario */\n      0x01\n      add\n      0x00\n      swap1\n      sload\n      swap1\n      0x0100\n      exp\n      swap1\n      div\n      0xffffffffffffffffffffffffffffffffffffffff\n      and\n        /* \"contracts/loans.sol\":7698:7699  p */\n      dup4\n        /* \"contracts/loans.sol\":7698:7708  p.cantidad */\n      0x03\n      add\n      sload\n        /* \"contracts/loans.sol\":7643:7644  p */\n      dup5\n        /* \"contracts/loans.sol\":7643:7650  p.token */\n      0x02\n      add\n      0x00\n      swap1\n      sload\n      swap1\n      0x0100\n      exp\n      swap1\n      div\n      0xffffffffffffffffffffffffffffffffffffffff\n      and\n        /* \"contracts/loans.sol\":7643:7667  p.token.safeTransferFrom */\n      0xffffffffffffffffffffffffffffffffffffffff\n      and\n      tag_140\n      swap1\n        /* \"contracts/loans.sol\":7643:7709  p.token.safeTransferFrom(p.prestamista, p.prestatario, p.cantidad) */\n      swap4\n      swap3\n      swap2\n      swap1\n      0xffffffff\n      and\n      jump\t// in\n    tag_139:\n        /* \"contracts/loans.sol\":7739:7743  true */\n      0x01\n        /* \"contracts/loans.sol\":7720:7721  p */\n      dup2\n        /* \"contracts/loans.sol\":7720:7736  p.dinero_enviado */\n      0x07\n      add\n      0x00\n        /* \"contracts/loans.sol\":7720:7743  p.dinero_enviado = true */\n      0x0100\n      exp\n      dup2\n      sload\n      dup2\n      0xff\n      mul\n      not\n      and\n      swap1\n      dup4\n      iszero\n      iszero\n      mul\n      or\n      swap1\n      sstore\n      pop\n        /* \"contracts/loans.sol\":7781:7783  id */\n      dup2\n        /* \"contracts/loans.sol\":7761:7784  PrestamoPagoInicial(id) */\n      0xbec62f1874a5747638ac99ea0bf3c512a2a5ebd945412bd231ca5e71ce1363c0\n      mload(0x40)\n      mload(0x40)\n      dup1\n      swap2\n      sub\n      swap1\n      log2\n        /* \"contracts/loans.sol\":7339:7792  {... */\n      pop\n        /* \"@openzeppelin/contracts/utils/ReentrancyGuard.sol\":2542:2562  _nonReentrantAfter() */\n      tag_141\n        /* \"@openzeppelin/contracts/utils/ReentrancyGuard.sol\":2542:2560  _nonReentrantAfter */\n      tag_123\n        /* \"@openzeppelin/contracts/utils/ReentrancyGuard.sol\":2542:2562  _nonReentrantAfter() */\n      jump\t// in\n    tag_141:\n        /* \"contracts/loans.sol\":7278:7792  function ejecutar_prestamo(bytes32 id) external nonReentrant {... */\n      pop\n      jump\t// out\n        /* \"@openzeppelin/contracts/access/Ownable.sol\":2293:2394  function renounceOwnership() public virtual onlyOwner {... */\n    tag_39:\n        /* \"@openzeppelin/contracts/access/Ownable.sol\":1531:1544  _checkOwner() */\n      tag_143\n        /* \"@openzeppelin/contracts/access/Ownable.sol\":1531:1542  _checkOwner */\n      tag_67\n        /* \"@openzeppelin/contracts/access/Ownable.sol\":1531:1544  _checkOwner() */\n      jump\t// in\n    tag_143:\n        /* \"@openzeppelin/contracts/access/Ownable.sol\":2357:2387  _transferOwnership(address(0)) */\n      tag_145\n        /* \"@openzeppelin/contracts/access/Ownable.sol\":2384:2385  0 */\n      0x00\n        /* \"@openzeppelin/contracts/access/Ownable.sol\":2357:2375  _transferOwnership */\n      tag_146\n        /* \"@openzeppelin/contracts/access/Ownable.sol\":2357:2387  _transferOwnership(address(0)) */\n      jump\t// in\n    tag_145:\n        /* \"@openzeppelin/contracts/access/Ownable.sol\":2293:2394  function renounceOwnership() public virtual onlyOwner {... */\n      jump\t// out\n        /* \"@openzeppelin/contracts/access/Ownable.sol\":1638:1723  function owner() public view virtual returns (address) {... */\n    tag_41:\n        /* \"@openzeppelin/contracts/access/Ownable.sol\":1684:1691  address */\n      0x00\n        /* \"@openzeppelin/contracts/access/Ownable.sol\":1710:1716  _owner */\n      0x00\n      0x00\n      swap1\n      sload\n      swap1\n      0x0100\n      exp\n      swap1\n      div\n      0xffffffffffffffffffffffffffffffffffffffff\n      and\n        /* \"@openzeppelin/contracts/access/Ownable.sol\":1703:1716  return _owner */\n      swap1\n      pop\n        /* \"@openzeppelin/contracts/access/Ownable.sol\":1638:1723  function owner() public view virtual returns (address) {... */\n      swap1\n      jump\t// out\n        /* \"contracts/loans.sol\":12809:13031  function cuanto_falta(bytes32 id) external view returns (uint256) {... */\n    tag_46:\n        /* \"contracts/loans.sol\":12866:12873  uint256 */\n      0x00\n        /* \"contracts/loans.sol\":12886:12904  Prestamo storage p */\n      0x00\n        /* \"contracts/loans.sol\":12907:12916  prestamos */\n      0x02\n        /* \"contracts/loans.sol\":12907:12920  prestamos[id] */\n      0x00\n        /* \"contracts/loans.sol\":12917:12919  id */\n      dup5\n        /* \"contracts/loans.sol\":12907:12920  prestamos[id] */\n      dup2\n      mstore\n      0x20\n      add\n      swap1\n      dup2\n      mstore\n      0x20\n      add\n      0x00\n      keccak256\n        /* \"contracts/loans.sol\":12886:12920  Prestamo storage p = prestamos[id] */\n      swap1\n      pop\n        /* \"contracts/loans.sol\":12955:12956  p */\n      dup1\n        /* \"contracts/loans.sol\":12955:12963  p.pagado */\n      0x06\n      add\n      sload\n        /* \"contracts/loans.sol\":12939:12940  p */\n      dup2\n        /* \"contracts/loans.sol\":12939:12952  p.total_pagar */\n      0x05\n      add\n      sload\n        /* \"contracts/loans.sol\":12939:12963  p.total_pagar > p.pagado */\n      gt\n        /* \"contracts/loans.sol\":12938:13023  (p.total_pagar > p.pagado)... */\n      tag_149\n      jumpi\n        /* \"contracts/loans.sol\":13022:13023  0 */\n      0x00\n        /* \"contracts/loans.sol\":12938:13023  (p.total_pagar > p.pagado)... */\n      jump(tag_150)\n    tag_149:\n        /* \"contracts/loans.sol\":12997:12998  p */\n      dup1\n        /* \"contracts/loans.sol\":12997:13005  p.pagado */\n      0x06\n      add\n      sload\n        /* \"contracts/loans.sol\":12981:12982  p */\n      dup2\n        /* \"contracts/loans.sol\":12981:12994  p.total_pagar */\n      0x05\n      add\n      sload\n        /* \"contracts/loans.sol\":12981:13005  p.total_pagar - p.pagado */\n      tag_151\n      swap2\n      swap1\n      tag_152\n      jump\t// in\n    tag_151:\n        /* \"contracts/loans.sol\":12938:13023  (p.total_pagar > p.pagado)... */\n    tag_150:\n        /* \"contracts/loans.sol\":12931:13023  return (p.total_pagar > p.pagado)... */\n      swap2\n      pop\n      pop\n        /* \"contracts/loans.sol\":12809:13031  function cuanto_falta(bytes32 id) external view returns (uint256) {... */\n      swap2\n      swap1\n      pop\n      jump\t// out\n        /* \"contracts/loans.sol\":11119:12025  function getLoanInfo(bytes32 id) external view returns (... */\n    tag_51:\n        /* \"contracts/loans.sol\":11185:11204  address prestamista */\n      0x00\n        /* \"contracts/loans.sol\":11215:11234  address prestatario */\n      0x00\n        /* \"contracts/loans.sol\":11245:11258  address token */\n      0x00\n        /* \"contracts/loans.sol\":11269:11285  uint256 cantidad */\n      0x00\n        /* \"contracts/loans.sol\":11296:11311  uint256 interes */\n      0x00\n        /* \"contracts/loans.sol\":11322:11341  uint256 total_pagar */\n      0x00\n        /* \"contracts/loans.sol\":11352:11366  uint256 pagado */\n      0x00\n        /* \"contracts/loans.sol\":11377:11396  bool dinero_enviado */\n      0x00\n        /* \"contracts/loans.sol\":11407:11423  bool todo_pagado */\n      0x00\n        /* \"contracts/loans.sol\":11434:11455  uint256 proxima_fecha */\n      0x00\n        /* \"contracts/loans.sol\":11474:11492  Prestamo storage p */\n      0x00\n        /* \"contracts/loans.sol\":11495:11504  prestamos */\n      0x02\n        /* \"contracts/loans.sol\":11495:11508  prestamos[id] */\n      0x00\n        /* \"contracts/loans.sol\":11505:11507  id */\n      dup14\n        /* \"contracts/loans.sol\":11495:11508  prestamos[id] */\n      dup2\n      mstore\n      0x20\n      add\n      swap1\n      dup2\n      mstore\n      0x20\n      add\n      0x00\n      keccak256\n        /* \"contracts/loans.sol\":11474:11508  Prestamo storage p = prestamos[id] */\n      swap1\n      pop\n        /* \"contracts/loans.sol\":11541:11542  p */\n      dup1\n        /* \"contracts/loans.sol\":11541:11554  p.prestamista */\n      0x00\n      add\n      0x00\n      swap1\n      sload\n      swap1\n      0x0100\n      exp\n      swap1\n      div\n      0xffffffffffffffffffffffffffffffffffffffff\n      and\n        /* \"contracts/loans.sol\":11519:11554  prestamista         = p.prestamista */\n      swap11\n      pop\n        /* \"contracts/loans.sol\":11585:11586  p */\n      dup1\n        /* \"contracts/loans.sol\":11585:11598  p.prestatario */\n      0x01\n      add\n      0x00\n      swap1\n      sload\n      swap1\n      0x0100\n      exp\n      swap1\n      div\n      0xffffffffffffffffffffffffffffffffffffffff\n      and\n        /* \"contracts/loans.sol\":11565:11598  prestatario       = p.prestatario */\n      swap10\n      pop\n        /* \"contracts/loans.sol\":11634:11635  p */\n      dup1\n        /* \"contracts/loans.sol\":11634:11641  p.token */\n      0x02\n      add\n      0x00\n      swap1\n      sload\n      swap1\n      0x0100\n      exp\n      swap1\n      div\n      0xffffffffffffffffffffffffffffffffffffffff\n      and\n        /* \"contracts/loans.sol\":11609:11642  token          = address(p.token) */\n      swap9\n      pop\n        /* \"contracts/loans.sol\":11669:11670  p */\n      dup1\n        /* \"contracts/loans.sol\":11669:11679  p.cantidad */\n      0x03\n      add\n      sload\n        /* \"contracts/loans.sol\":11653:11679  cantidad      = p.cantidad */\n      swap8\n      pop\n        /* \"contracts/loans.sol\":11703:11704  p */\n      dup1\n        /* \"contracts/loans.sol\":11703:11712  p.interes */\n      0x04\n      add\n      sload\n        /* \"contracts/loans.sol\":11690:11712  interes    = p.interes */\n      swap7\n      pop\n        /* \"contracts/loans.sol\":11739:11740  p */\n      dup1\n        /* \"contracts/loans.sol\":11739:11752  p.total_pagar */\n      0x05\n      add\n      sload\n        /* \"contracts/loans.sol\":11723:11752  total_pagar   = p.total_pagar */\n      swap6\n      pop\n        /* \"contracts/loans.sol\":11780:11781  p */\n      dup1\n        /* \"contracts/loans.sol\":11780:11788  p.pagado */\n      0x06\n      add\n      sload\n        /* \"contracts/loans.sol\":11763:11788  pagado         = p.pagado */\n      swap5\n      pop\n        /* \"contracts/loans.sol\":11824:11825  p */\n      dup1\n        /* \"contracts/loans.sol\":11824:11840  p.dinero_enviado */\n      0x07\n      add\n      0x00\n      swap1\n      sload\n      swap1\n      0x0100\n      exp\n      swap1\n      div\n      0xff\n      and\n        /* \"contracts/loans.sol\":11799:11840  dinero_enviado         = p.dinero_enviado */\n      swap4\n      pop\n        /* \"contracts/loans.sol\":11868:11869  p */\n      dup1\n        /* \"contracts/loans.sol\":11868:11881  p.todo_pagado */\n      0x07\n      add\n      0x01\n      swap1\n      sload\n      swap1\n      0x0100\n      exp\n      swap1\n      div\n      0xff\n      and\n        /* \"contracts/loans.sol\":11851:11881  todo_pagado    = p.todo_pagado */\n      swap3\n      pop\n        /* \"contracts/loans.sol\":11927:11928  p */\n      dup1\n        /* \"contracts/loans.sol\":11927:11943  p.fechas_de_pago */\n      0x08\n      add\n        /* \"contracts/loans.sol\":11927:11950  p.fechas_de_pago.length */\n      dup1\n      sload\n      swap1\n      pop\n        /* \"contracts/loans.sol\":11909:11910  p */\n      dup2\n        /* \"contracts/loans.sol\":11909:11924  p.proxima_fecha */\n      0x09\n      add\n      sload\n        /* \"contracts/loans.sol\":11909:11950  p.proxima_fecha < p.fechas_de_pago.length */\n      lt\n        /* \"contracts/loans.sol\":11908:12017  (p.proxima_fecha < p.fechas_de_pago.length)... */\n      tag_154\n      jumpi\n        /* \"contracts/loans.sol\":12016:12017  0 */\n      0x00\n        /* \"contracts/loans.sol\":11908:12017  (p.proxima_fecha < p.fechas_de_pago.length)... */\n      jump(tag_155)\n    tag_154:\n        /* \"contracts/loans.sol\":11967:11968  p */\n      dup1\n        /* \"contracts/loans.sol\":11967:11983  p.fechas_de_pago */\n      0x08\n      add\n        /* \"contracts/loans.sol\":11984:11985  p */\n      dup2\n        /* \"contracts/loans.sol\":11984:11999  p.proxima_fecha */\n      0x09\n      add\n      sload\n        /* \"contracts/loans.sol\":11967:12000  p.fechas_de_pago[p.proxima_fecha] */\n      dup2\n      sload\n      dup2\n      lt\n      tag_156\n      jumpi\n      tag_157\n      tag_104\n      jump\t// in\n    tag_157:\n    tag_156:\n      swap1\n      0x00\n      mstore\n      keccak256(0x00, 0x20)\n      add\n      sload\n        /* \"contracts/loans.sol\":11908:12017  (p.proxima_fecha < p.fechas_de_pago.length)... */\n    tag_155:\n        /* \"contracts/loans.sol\":11892:12017  proxima_fecha = (p.proxima_fecha < p.fechas_de_pago.length)... */\n      swap2\n      pop\n        /* \"contracts/loans.sol\":11463:12025  {... */\n      pop\n        /* \"contracts/loans.sol\":11119:12025  function getLoanInfo(bytes32 id) external view returns (... */\n      swap2\n      swap4\n      swap6\n      swap8\n      swap10\n      pop\n      swap2\n      swap4\n      swap6\n      swap8\n      swap10\n      jump\t// out\n        /* \"contracts/loans.sol\":12340:12725  function pagos_vencidos(bytes32 id) external view returns (uint256) {... */\n    tag_56:\n        /* \"contracts/loans.sol\":12399:12406  uint256 */\n      0x00\n        /* \"contracts/loans.sol\":12419:12437  Prestamo storage p */\n      0x00\n        /* \"contracts/loans.sol\":12440:12449  prestamos */\n      0x02\n        /* \"contracts/loans.sol\":12440:12453  prestamos[id] */\n      0x00\n        /* \"contracts/loans.sol\":12450:12452  id */\n      dup5\n        /* \"contracts/loans.sol\":12440:12453  prestamos[id] */\n      dup2\n      mstore\n      0x20\n      add\n      swap1\n      dup2\n      mstore\n      0x20\n      add\n      0x00\n      keccak256\n        /* \"contracts/loans.sol\":12419:12453  Prestamo storage p = prestamos[id] */\n      swap1\n      pop\n        /* \"contracts/loans.sol\":12464:12480  uint256 vencidos */\n      0x00\n        /* \"contracts/loans.sol\":12483:12484  0 */\n      0x00\n        /* \"contracts/loans.sol\":12464:12484  uint256 vencidos = 0 */\n      swap1\n      pop\n        /* \"contracts/loans.sol\":12495:12506  uint256 len */\n      0x00\n        /* \"contracts/loans.sol\":12509:12510  p */\n      dup3\n        /* \"contracts/loans.sol\":12509:12525  p.fechas_de_pago */\n      0x08\n      add\n        /* \"contracts/loans.sol\":12509:12532  p.fechas_de_pago.length */\n      dup1\n      sload\n      swap1\n      pop\n        /* \"contracts/loans.sol\":12495:12532  uint256 len = p.fechas_de_pago.length */\n      swap1\n      pop\n        /* \"contracts/loans.sol\":12548:12557  uint256 i */\n      0x00\n        /* \"contracts/loans.sol\":12560:12561  0 */\n      0x00\n        /* \"contracts/loans.sol\":12548:12561  uint256 i = 0 */\n      swap1\n      pop\n        /* \"contracts/loans.sol\":12543:12692  for (uint256 i = 0; i < len; i++) {... */\n    tag_160:\n        /* \"contracts/loans.sol\":12567:12570  len */\n      dup2\n        /* \"contracts/loans.sol\":12563:12564  i */\n      dup2\n        /* \"contracts/loans.sol\":12563:12570  i < len */\n      lt\n        /* \"contracts/loans.sol\":12543:12692  for (uint256 i = 0; i < len; i++) {... */\n      iszero\n      tag_161\n      jumpi\n        /* \"contracts/loans.sol\":12615:12616  p */\n      dup4\n        /* \"contracts/loans.sol\":12615:12631  p.fechas_de_pago */\n      0x08\n      add\n        /* \"contracts/loans.sol\":12632:12633  i */\n      dup2\n        /* \"contracts/loans.sol\":12615:12634  p.fechas_de_pago[i] */\n      dup2\n      sload\n      dup2\n      lt\n      tag_163\n      jumpi\n      tag_164\n      tag_104\n      jump\t// in\n    tag_164:\n    tag_163:\n      swap1\n      0x00\n      mstore\n      keccak256(0x00, 0x20)\n      add\n      sload\n        /* \"contracts/loans.sol\":12596:12611  block.timestamp */\n      timestamp\n        /* \"contracts/loans.sol\":12596:12634  block.timestamp >= p.fechas_de_pago[i] */\n      lt\n        /* \"contracts/loans.sol\":12592:12681  if (block.timestamp >= p.fechas_de_pago[i]) {... */\n      tag_166\n      jumpi\n        /* \"contracts/loans.sol\":12655:12665  vencidos++ */\n      dup3\n      dup1\n      tag_167\n      swap1\n      tag_168\n      jump\t// in\n    tag_167:\n      swap4\n      pop\n      pop\n        /* \"contracts/loans.sol\":12592:12681  if (block.timestamp >= p.fechas_de_pago[i]) {... */\n    tag_166:\n        /* \"contracts/loans.sol\":12572:12575  i++ */\n      dup1\n      dup1\n      0x01\n      add\n      swap2\n      pop\n      pop\n        /* \"contracts/loans.sol\":12543:12692  for (uint256 i = 0; i < len; i++) {... */\n      jump(tag_160)\n    tag_161:\n      pop\n        /* \"contracts/loans.sol\":12709:12717  vencidos */\n      dup2\n        /* \"contracts/loans.sol\":12702:12717  return vencidos */\n      swap4\n      pop\n      pop\n      pop\n      pop\n        /* \"contracts/loans.sol\":12340:12725  function pagos_vencidos(bytes32 id) external view returns (uint256) {... */\n      swap2\n      swap1\n      pop\n      jump\t// out\n        /* \"contracts/loans.sol\":9178:10914  function pagar_prestamo(bytes32 id, uint256 cantidad) external nonReentrant {... */\n    tag_61:\n        /* \"@openzeppelin/contracts/utils/ReentrancyGuard.sol\":2500:2521  _nonReentrantBefore() */\n      tag_170\n        /* \"@openzeppelin/contracts/utils/ReentrancyGuard.sol\":2500:2519  _nonReentrantBefore */\n      tag_82\n        /* \"@openzeppelin/contracts/utils/ReentrancyGuard.sol\":2500:2521  _nonReentrantBefore() */\n      jump\t// in\n    tag_170:\n        /* \"contracts/loans.sol\":9265:9283  Prestamo storage p */\n      0x00\n        /* \"contracts/loans.sol\":9286:9295  prestamos */\n      0x02\n        /* \"contracts/loans.sol\":9286:9299  prestamos[id] */\n      0x00\n        /* \"contracts/loans.sol\":9296:9298  id */\n      dup5\n        /* \"contracts/loans.sol\":9286:9299  prestamos[id] */\n      dup2\n      mstore\n      0x20\n      add\n      swap1\n      dup2\n      mstore\n      0x20\n      add\n      0x00\n      keccak256\n        /* \"contracts/loans.sol\":9265:9299  Prestamo storage p = prestamos[id] */\n      swap1\n      pop\n        /* \"contracts/loans.sol\":9343:9344  0 */\n      0x00\n        /* \"contracts/loans.sol\":9318:9345  p.prestamista != address(0) */\n      0xffffffffffffffffffffffffffffffffffffffff\n      and\n        /* \"contracts/loans.sol\":9318:9319  p */\n      dup2\n        /* \"contracts/loans.sol\":9318:9331  p.prestamista */\n      0x00\n      add\n      0x00\n      swap1\n      sload\n      swap1\n      0x0100\n      exp\n      swap1\n      div\n      0xffffffffffffffffffffffffffffffffffffffff\n      and\n        /* \"contracts/loans.sol\":9318:9345  p.prestamista != address(0) */\n      0xffffffffffffffffffffffffffffffffffffffff\n      and\n      sub\n        /* \"contracts/loans.sol\":9310:9368  require(p.prestamista != address(0), \"Prestamo no existe\") */\n      tag_172\n      jumpi\n      mload(0x40)\n      0x08c379a000000000000000000000000000000000000000000000000000000000\n      dup2\n      mstore\n      0x04\n      add\n      tag_173\n      swap1\n      tag_132\n      jump\t// in\n    tag_173:\n      mload(0x40)\n      dup1\n      swap2\n      sub\n      swap1\n      revert\n    tag_172:\n        /* \"contracts/loans.sol\":9387:9388  p */\n      dup1\n        /* \"contracts/loans.sol\":9387:9403  p.dinero_enviado */\n      0x07\n      add\n      0x00\n      swap1\n      sload\n      swap1\n      0x0100\n      exp\n      swap1\n      div\n      0xff\n      and\n        /* \"contracts/loans.sol\":9379:9425  require(p.dinero_enviado, \"No financiado aun\") */\n      tag_174\n      jumpi\n      mload(0x40)\n      0x08c379a000000000000000000000000000000000000000000000000000000000\n      dup2\n      mstore\n      0x04\n      add\n      tag_175\n      swap1\n      tag_176\n      jump\t// in\n    tag_175:\n      mload(0x40)\n      dup1\n      swap2\n      sub\n      swap1\n      revert\n    tag_174:\n        /* \"contracts/loans.sol\":9445:9446  p */\n      dup1\n        /* \"contracts/loans.sol\":9445:9458  p.todo_pagado */\n      0x07\n      add\n      0x01\n      swap1\n      sload\n      swap1\n      0x0100\n      exp\n      swap1\n      div\n      0xff\n      and\n        /* \"contracts/loans.sol\":9444:9458  !p.todo_pagado */\n      iszero\n        /* \"contracts/loans.sol\":9436:9475  require(!p.todo_pagado, \"Ya liquidado\") */\n      tag_177\n      jumpi\n      mload(0x40)\n      0x08c379a000000000000000000000000000000000000000000000000000000000\n      dup2\n      mstore\n      0x04\n      add\n      tag_178\n      swap1\n      tag_179\n      jump\t// in\n    tag_178:\n      mload(0x40)\n      dup1\n      swap2\n      sub\n      swap1\n      revert\n    tag_177:\n        /* \"contracts/loans.sol\":9508:9509  p */\n      dup1\n        /* \"contracts/loans.sol\":9508:9521  p.prestatario */\n      0x01\n      add\n      0x00\n      swap1\n      sload\n      swap1\n      0x0100\n      exp\n      swap1\n      div\n      0xffffffffffffffffffffffffffffffffffffffff\n      and\n        /* \"contracts/loans.sol\":9494:9521  msg.sender == p.prestatario */\n      0xffffffffffffffffffffffffffffffffffffffff\n      and\n        /* \"contracts/loans.sol\":9494:9504  msg.sender */\n      caller\n        /* \"contracts/loans.sol\":9494:9521  msg.sender == p.prestatario */\n      0xffffffffffffffffffffffffffffffffffffffff\n      and\n      eq\n        /* \"contracts/loans.sol\":9486:9539  require(msg.sender == p.prestatario, \"Solo borrower\") */\n      tag_180\n      jumpi\n      mload(0x40)\n      0x08c379a000000000000000000000000000000000000000000000000000000000\n      dup2\n      mstore\n      0x04\n      add\n      tag_181\n      swap1\n      tag_182\n      jump\t// in\n    tag_181:\n      mload(0x40)\n      dup1\n      swap2\n      sub\n      swap1\n      revert\n    tag_180:\n        /* \"contracts/loans.sol\":9560:9571  uint256 idx */\n      0x00\n        /* \"contracts/loans.sol\":9574:9575  p */\n      dup2\n        /* \"contracts/loans.sol\":9574:9589  p.proxima_fecha */\n      0x09\n      add\n      sload\n        /* \"contracts/loans.sol\":9560:9589  uint256 idx = p.proxima_fecha */\n      swap1\n      pop\n        /* \"contracts/loans.sol\":9614:9615  p */\n      dup2\n        /* \"contracts/loans.sol\":9614:9630  p.fechas_de_pago */\n      0x08\n      add\n        /* \"contracts/loans.sol\":9614:9637  p.fechas_de_pago.length */\n      dup1\n      sload\n      swap1\n      pop\n        /* \"contracts/loans.sol\":9608:9611  idx */\n      dup2\n        /* \"contracts/loans.sol\":9608:9637  idx < p.fechas_de_pago.length */\n      lt\n        /* \"contracts/loans.sol\":9600:9661  require(idx < p.fechas_de_pago.length, \"Todas fechas usadas\") */\n      tag_183\n      jumpi\n      mload(0x40)\n      0x08c379a000000000000000000000000000000000000000000000000000000000\n      dup2\n      mstore\n      0x04\n      add\n      tag_184\n      swap1\n      tag_185\n      jump\t// in\n    tag_184:\n      mload(0x40)\n      dup1\n      swap2\n      sub\n      swap1\n      revert\n    tag_183:\n        /* \"contracts/loans.sol\":9699:9700  p */\n      dup2\n        /* \"contracts/loans.sol\":9699:9715  p.fechas_de_pago */\n      0x08\n      add\n        /* \"contracts/loans.sol\":9716:9719  idx */\n      dup2\n        /* \"contracts/loans.sol\":9699:9720  p.fechas_de_pago[idx] */\n      dup2\n      sload\n      dup2\n      lt\n      tag_186\n      jumpi\n      tag_187\n      tag_104\n      jump\t// in\n    tag_187:\n    tag_186:\n      swap1\n      0x00\n      mstore\n      keccak256(0x00, 0x20)\n      add\n      sload\n        /* \"contracts/loans.sol\":9680:9695  block.timestamp */\n      timestamp\n        /* \"contracts/loans.sol\":9680:9720  block.timestamp >= p.fechas_de_pago[idx] */\n      lt\n      iszero\n        /* \"contracts/loans.sol\":9672:9749  require(block.timestamp >= p.fechas_de_pago[idx], \"Fecha de pago no vencida\") */\n      tag_189\n      jumpi\n      mload(0x40)\n      0x08c379a000000000000000000000000000000000000000000000000000000000\n      dup2\n      mstore\n      0x04\n      add\n      tag_190\n      swap1\n      tag_191\n      jump\t// in\n    tag_190:\n      mload(0x40)\n      dup1\n      swap2\n      sub\n      swap1\n      revert\n    tag_189:\n        /* \"contracts/loans.sol\":9797:9818  uint256 saldoRestante */\n      0x00\n        /* \"contracts/loans.sol\":9837:9838  p */\n      dup3\n        /* \"contracts/loans.sol\":9837:9845  p.pagado */\n      0x06\n      add\n      sload\n        /* \"contracts/loans.sol\":9821:9822  p */\n      dup4\n        /* \"contracts/loans.sol\":9821:9834  p.total_pagar */\n      0x05\n      add\n      sload\n        /* \"contracts/loans.sol\":9821:9845  p.total_pagar - p.pagado */\n      tag_192\n      swap2\n      swap1\n      tag_152\n      jump\t// in\n    tag_192:\n        /* \"contracts/loans.sol\":9797:9845  uint256 saldoRestante = p.total_pagar - p.pagado */\n      swap1\n      pop\n        /* \"contracts/loans.sol\":9856:9879  uint256 cuotasRestantes */\n      0x00\n        /* \"contracts/loans.sol\":9908:9911  idx */\n      dup3\n        /* \"contracts/loans.sol\":9882:9883  p */\n      dup5\n        /* \"contracts/loans.sol\":9882:9898  p.fechas_de_pago */\n      0x08\n      add\n        /* \"contracts/loans.sol\":9882:9905  p.fechas_de_pago.length */\n      dup1\n      sload\n      swap1\n      pop\n        /* \"contracts/loans.sol\":9882:9911  p.fechas_de_pago.length - idx */\n      tag_193\n      swap2\n      swap1\n      tag_152\n      jump\t// in\n    tag_193:\n        /* \"contracts/loans.sol\":9856:9911  uint256 cuotasRestantes = p.fechas_de_pago.length - idx */\n      swap1\n      pop\n        /* \"contracts/loans.sol\":10001:10022  uint256 montoPorCuota */\n      0x00\n        /* \"contracts/loans.sol\":10041:10056  cuotasRestantes */\n      dup2\n        /* \"contracts/loans.sol\":10025:10038  saldoRestante */\n      dup4\n        /* \"contracts/loans.sol\":10025:10056  saldoRestante / cuotasRestantes */\n      tag_194\n      swap2\n      swap1\n      tag_115\n      jump\t// in\n    tag_194:\n        /* \"contracts/loans.sol\":10001:10056  uint256 montoPorCuota = saldoRestante / cuotasRestantes */\n      swap1\n      pop\n        /* \"contracts/loans.sol\":10091:10092  0 */\n      0x00\n        /* \"contracts/loans.sol\":10075:10088  montoPorCuota */\n      dup2\n        /* \"contracts/loans.sol\":10075:10092  montoPorCuota > 0 */\n      gt\n        /* \"contracts/loans.sol\":10067:10111  require(montoPorCuota > 0, \"Cuota invalida\") */\n      tag_195\n      jumpi\n      mload(0x40)\n      0x08c379a000000000000000000000000000000000000000000000000000000000\n      dup2\n      mstore\n      0x04\n      add\n      tag_196\n      swap1\n      tag_197\n      jump\t// in\n    tag_196:\n      mload(0x40)\n      dup1\n      swap2\n      sub\n      swap1\n      revert\n    tag_195:\n        /* \"contracts/loans.sol\":10142:10155  montoPorCuota */\n      dup1\n        /* \"contracts/loans.sol\":10130:10138  cantidad */\n      dup7\n        /* \"contracts/loans.sol\":10130:10155  cantidad == montoPorCuota */\n      eq\n        /* \"contracts/loans.sol\":10122:10177  require(cantidad == montoPorCuota, \"Paga cuota exacta\") */\n      tag_198\n      jumpi\n      mload(0x40)\n      0x08c379a000000000000000000000000000000000000000000000000000000000\n      dup2\n      mstore\n      0x04\n      add\n      tag_199\n      swap1\n      tag_200\n      jump\t// in\n    tag_199:\n      mload(0x40)\n      dup1\n      swap2\n      sub\n      swap1\n      revert\n    tag_198:\n        /* \"contracts/loans.sol\":10228:10297  p.token.safeTransferFrom(p.prestatario, p.prestamista, montoPorCuota) */\n      tag_201\n        /* \"contracts/loans.sol\":10253:10254  p */\n      dup6\n        /* \"contracts/loans.sol\":10253:10266  p.prestatario */\n      0x01\n      add\n      0x00\n      swap1\n      sload\n      swap1\n      0x0100\n      exp\n      swap1\n      div\n      0xffffffffffffffffffffffffffffffffffffffff\n      and\n        /* \"contracts/loans.sol\":10268:10269  p */\n      dup7\n        /* \"contracts/loans.sol\":10268:10281  p.prestamista */\n      0x00\n      add\n      0x00\n      swap1\n      sload\n      swap1\n      0x0100\n      exp\n      swap1\n      div\n      0xffffffffffffffffffffffffffffffffffffffff\n      and\n        /* \"contracts/loans.sol\":10283:10296  montoPorCuota */\n      dup4\n        /* \"contracts/loans.sol\":10228:10229  p */\n      dup9\n        /* \"contracts/loans.sol\":10228:10235  p.token */\n      0x02\n      add\n      0x00\n      swap1\n      sload\n      swap1\n      0x0100\n      exp\n      swap1\n      div\n      0xffffffffffffffffffffffffffffffffffffffff\n      and\n        /* \"contracts/loans.sol\":10228:10252  p.token.safeTransferFrom */\n      0xffffffffffffffffffffffffffffffffffffffff\n      and\n      tag_140\n      swap1\n        /* \"contracts/loans.sol\":10228:10297  p.token.safeTransferFrom(p.prestatario, p.prestamista, montoPorCuota) */\n      swap4\n      swap3\n      swap2\n      swap1\n      0xffffffff\n      and\n      jump\t// in\n    tag_201:\n        /* \"contracts/loans.sol\":10356:10369  montoPorCuota */\n      dup1\n        /* \"contracts/loans.sol\":10341:10342  p */\n      dup6\n        /* \"contracts/loans.sol\":10341:10349  p.pagado */\n      0x06\n      add\n      0x00\n        /* \"contracts/loans.sol\":10341:10369  p.pagado    += montoPorCuota */\n      dup3\n      dup3\n      sload\n      tag_202\n      swap2\n      swap1\n      tag_117\n      jump\t// in\n    tag_202:\n      swap3\n      pop\n      pop\n      dup2\n      swap1\n      sstore\n      pop\n        /* \"contracts/loans.sol\":10399:10400  1 */\n      0x01\n        /* \"contracts/loans.sol\":10380:10381  p */\n      dup6\n        /* \"contracts/loans.sol\":10380:10395  p.proxima_fecha */\n      0x09\n      add\n      0x00\n        /* \"contracts/loans.sol\":10380:10400  p.proxima_fecha += 1 */\n      dup3\n      dup3\n      sload\n      tag_203\n      swap2\n      swap1\n      tag_117\n      jump\t// in\n    tag_203:\n      swap3\n      pop\n      pop\n      dup2\n      swap1\n      sstore\n      pop\n        /* \"contracts/loans.sol\":10447:10470  uint256 restanteDespues */\n      0x00\n        /* \"contracts/loans.sol\":10489:10490  p */\n      dup6\n        /* \"contracts/loans.sol\":10489:10497  p.pagado */\n      0x06\n      add\n      sload\n        /* \"contracts/loans.sol\":10473:10474  p */\n      dup7\n        /* \"contracts/loans.sol\":10473:10486  p.total_pagar */\n      0x05\n      add\n      sload\n        /* \"contracts/loans.sol\":10473:10497  p.total_pagar - p.pagado */\n      tag_204\n      swap2\n      swap1\n      tag_152\n      jump\t// in\n    tag_204:\n        /* \"contracts/loans.sol\":10447:10497  uint256 restanteDespues = p.total_pagar - p.pagado */\n      swap1\n      pop\n        /* \"contracts/loans.sol\":10508:10523  uint256 nextDue */\n      0x00\n        /* \"contracts/loans.sol\":10545:10546  p */\n      dup7\n        /* \"contracts/loans.sol\":10545:10561  p.fechas_de_pago */\n      0x08\n      add\n        /* \"contracts/loans.sol\":10545:10568  p.fechas_de_pago.length */\n      dup1\n      sload\n      swap1\n      pop\n        /* \"contracts/loans.sol\":10527:10528  p */\n      dup8\n        /* \"contracts/loans.sol\":10527:10542  p.proxima_fecha */\n      0x09\n      add\n      sload\n        /* \"contracts/loans.sol\":10527:10568  p.proxima_fecha < p.fechas_de_pago.length */\n      lt\n        /* \"contracts/loans.sol\":10526:10635  (p.proxima_fecha < p.fechas_de_pago.length)... */\n      tag_205\n      jumpi\n        /* \"contracts/loans.sol\":10634:10635  0 */\n      0x00\n        /* \"contracts/loans.sol\":10526:10635  (p.proxima_fecha < p.fechas_de_pago.length)... */\n      jump(tag_206)\n    tag_205:\n        /* \"contracts/loans.sol\":10585:10586  p */\n      dup7\n        /* \"contracts/loans.sol\":10585:10601  p.fechas_de_pago */\n      0x08\n      add\n        /* \"contracts/loans.sol\":10602:10603  p */\n      dup8\n        /* \"contracts/loans.sol\":10602:10617  p.proxima_fecha */\n      0x09\n      add\n      sload\n        /* \"contracts/loans.sol\":10585:10618  p.fechas_de_pago[p.proxima_fecha] */\n      dup2\n      sload\n      dup2\n      lt\n      tag_207\n      jumpi\n      tag_208\n      tag_104\n      jump\t// in\n    tag_208:\n    tag_207:\n      swap1\n      0x00\n      mstore\n      keccak256(0x00, 0x20)\n      add\n      sload\n        /* \"contracts/loans.sol\":10526:10635  (p.proxima_fecha < p.fechas_de_pago.length)... */\n    tag_206:\n        /* \"contracts/loans.sol\":10508:10635  uint256 nextDue = (p.proxima_fecha < p.fechas_de_pago.length)... */\n      swap1\n      pop\n        /* \"contracts/loans.sol\":10672:10682  msg.sender */\n      caller\n        /* \"contracts/loans.sol\":10653:10724  PrestamoPagado(id, msg.sender, montoPorCuota, restanteDespues, nextDue) */\n      0xffffffffffffffffffffffffffffffffffffffff\n      and\n        /* \"contracts/loans.sol\":10668:10670  id */\n      dup10\n        /* \"contracts/loans.sol\":10653:10724  PrestamoPagado(id, msg.sender, montoPorCuota, restanteDespues, nextDue) */\n      0x3e966ded2f69775351b0d34f9c16cba615d55454b8dcc96874ff8378ed0cea8b\n        /* \"contracts/loans.sol\":10684:10697  montoPorCuota */\n      dup6\n        /* \"contracts/loans.sol\":10699:10714  restanteDespues */\n      dup6\n        /* \"contracts/loans.sol\":10716:10723  nextDue */\n      dup6\n        /* \"contracts/loans.sol\":10653:10724  PrestamoPagado(id, msg.sender, montoPorCuota, restanteDespues, nextDue) */\n      mload(0x40)\n      tag_210\n      swap4\n      swap3\n      swap2\n      swap1\n      tag_211\n      jump\t// in\n    tag_210:\n      mload(0x40)\n      dup1\n      swap2\n      sub\n      swap1\n      log3\n        /* \"contracts/loans.sol\":10789:10790  p */\n      dup7\n        /* \"contracts/loans.sol\":10789:10805  p.fechas_de_pago */\n      0x08\n      add\n        /* \"contracts/loans.sol\":10789:10812  p.fechas_de_pago.length */\n      dup1\n      sload\n      swap1\n      pop\n        /* \"contracts/loans.sol\":10770:10771  p */\n      dup8\n        /* \"contracts/loans.sol\":10770:10785  p.proxima_fecha */\n      0x09\n      add\n      sload\n        /* \"contracts/loans.sol\":10770:10812  p.proxima_fecha == p.fechas_de_pago.length */\n      sub\n        /* \"contracts/loans.sol\":10766:10907  if (p.proxima_fecha == p.fechas_de_pago.length) {... */\n      tag_212\n      jumpi\n        /* \"contracts/loans.sol\":10845:10849  true */\n      0x01\n        /* \"contracts/loans.sol\":10829:10830  p */\n      dup8\n        /* \"contracts/loans.sol\":10829:10842  p.todo_pagado */\n      0x07\n      add\n      0x01\n        /* \"contracts/loans.sol\":10829:10849  p.todo_pagado = true */\n      0x0100\n      exp\n      dup2\n      sload\n      dup2\n      0xff\n      mul\n      not\n      and\n      swap1\n      dup4\n      iszero\n      iszero\n      mul\n      or\n      swap1\n      sstore\n      pop\n        /* \"contracts/loans.sol\":10892:10894  id */\n      dup9\n        /* \"contracts/loans.sol\":10869:10895  PrestamoPagadoCompleto(id) */\n      0x39dedc2a3f7a596f05388293c3394fd45b0c856ef856ca3e7d629707e7533019\n      mload(0x40)\n      mload(0x40)\n      dup1\n      swap2\n      sub\n      swap1\n      log2\n        /* \"contracts/loans.sol\":10766:10907  if (p.proxima_fecha == p.fechas_de_pago.length) {... */\n    tag_212:\n        /* \"contracts/loans.sol\":9254:10914  {... */\n      pop\n      pop\n      pop\n      pop\n      pop\n      pop\n      pop\n        /* \"@openzeppelin/contracts/utils/ReentrancyGuard.sol\":2542:2562  _nonReentrantAfter() */\n      tag_213\n        /* \"@openzeppelin/contracts/utils/ReentrancyGuard.sol\":2542:2560  _nonReentrantAfter */\n      tag_123\n        /* \"@openzeppelin/contracts/utils/ReentrancyGuard.sol\":2542:2562  _nonReentrantAfter() */\n      jump\t// in\n    tag_213:\n        /* \"contracts/loans.sol\":9178:10914  function pagar_prestamo(bytes32 id, uint256 cantidad) external nonReentrant {... */\n      pop\n      pop\n      jump\t// out\n        /* \"@openzeppelin/contracts/access/Ownable.sol\":2543:2758  function transferOwnership(address newOwner) public virtual onlyOwner {... */\n    tag_64:\n        /* \"@openzeppelin/contracts/access/Ownable.sol\":1531:1544  _checkOwner() */\n      tag_215\n        /* \"@openzeppelin/contracts/access/Ownable.sol\":1531:1542  _checkOwner */\n      tag_67\n        /* \"@openzeppelin/contracts/access/Ownable.sol\":1531:1544  _checkOwner() */\n      jump\t// in\n    tag_215:\n        /* \"@openzeppelin/contracts/access/Ownable.sol\":2647:2648  0 */\n      0x00\n        /* \"@openzeppelin/contracts/access/Ownable.sol\":2627:2649  newOwner == address(0) */\n      0xffffffffffffffffffffffffffffffffffffffff\n      and\n        /* \"@openzeppelin/contracts/access/Ownable.sol\":2627:2635  newOwner */\n      dup2\n        /* \"@openzeppelin/contracts/access/Ownable.sol\":2627:2649  newOwner == address(0) */\n      0xffffffffffffffffffffffffffffffffffffffff\n      and\n      sub\n        /* \"@openzeppelin/contracts/access/Ownable.sol\":2623:2714  if (newOwner == address(0)) {... */\n      tag_217\n      jumpi\n        /* \"@openzeppelin/contracts/access/Ownable.sol\":2700:2701  0 */\n      0x00\n        /* \"@openzeppelin/contracts/access/Ownable.sol\":2672:2703  OwnableInvalidOwner(address(0)) */\n      mload(0x40)\n      0x1e4fbdf700000000000000000000000000000000000000000000000000000000\n      dup2\n      mstore\n      0x04\n      add\n      tag_218\n      swap2\n      swap1\n      tag_43\n      jump\t// in\n    tag_218:\n      mload(0x40)\n      dup1\n      swap2\n      sub\n      swap1\n      revert\n        /* \"@openzeppelin/contracts/access/Ownable.sol\":2623:2714  if (newOwner == address(0)) {... */\n    tag_217:\n        /* \"@openzeppelin/contracts/access/Ownable.sol\":2723:2751  _transferOwnership(newOwner) */\n      tag_219\n        /* \"@openzeppelin/contracts/access/Ownable.sol\":2742:2750  newOwner */\n      dup2\n        /* \"@openzeppelin/contracts/access/Ownable.sol\":2723:2741  _transferOwnership */\n      tag_146\n        /* \"@openzeppelin/contracts/access/Ownable.sol\":2723:2751  _transferOwnership(newOwner) */\n      jump\t// in\n    tag_219:\n        /* \"@openzeppelin/contracts/access/Ownable.sol\":2543:2758  function transferOwnership(address newOwner) public virtual onlyOwner {... */\n      pop\n      jump\t// out\n        /* \"@openzeppelin/contracts/access/Ownable.sol\":1796:1958  function _checkOwner() internal view virtual {... */\n    tag_67:\n        /* \"@openzeppelin/contracts/access/Ownable.sol\":1866:1878  _msgSender() */\n      tag_221\n        /* \"@openzeppelin/contracts/access/Ownable.sol\":1866:1876  _msgSender */\n      tag_222\n        /* \"@openzeppelin/contracts/access/Ownable.sol\":1866:1878  _msgSender() */\n      jump\t// in\n    tag_221:\n        /* \"@openzeppelin/contracts/access/Ownable.sol\":1855:1878  owner() != _msgSender() */\n      0xffffffffffffffffffffffffffffffffffffffff\n      and\n        /* \"@openzeppelin/contracts/access/Ownable.sol\":1855:1862  owner() */\n      tag_223\n        /* \"@openzeppelin/contracts/access/Ownable.sol\":1855:1860  owner */\n      tag_41\n        /* \"@openzeppelin/contracts/access/Ownable.sol\":1855:1862  owner() */\n      jump\t// in\n    tag_223:\n        /* \"@openzeppelin/contracts/access/Ownable.sol\":1855:1878  owner() != _msgSender() */\n      0xffffffffffffffffffffffffffffffffffffffff\n      and\n      eq\n        /* \"@openzeppelin/contracts/access/Ownable.sol\":1851:1952  if (owner() != _msgSender()) {... */\n      tag_224\n      jumpi\n        /* \"@openzeppelin/contracts/access/Ownable.sol\":1928:1940  _msgSender() */\n      tag_225\n        /* \"@openzeppelin/contracts/access/Ownable.sol\":1928:1938  _msgSender */\n      tag_222\n        /* \"@openzeppelin/contracts/access/Ownable.sol\":1928:1940  _msgSender() */\n      jump\t// in\n    tag_225:\n        /* \"@openzeppelin/contracts/access/Ownable.sol\":1901:1941  OwnableUnauthorizedAccount(_msgSender()) */\n      mload(0x40)\n      0x118cdaa700000000000000000000000000000000000000000000000000000000\n      dup2\n      mstore\n      0x04\n      add\n      tag_226\n      swap2\n      swap1\n      tag_43\n      jump\t// in\n    tag_226:\n      mload(0x40)\n      dup1\n      swap2\n      sub\n      swap1\n      revert\n        /* \"@openzeppelin/contracts/access/Ownable.sol\":1851:1952  if (owner() != _msgSender()) {... */\n    tag_224:\n        /* \"@openzeppelin/contracts/access/Ownable.sol\":1796:1958  function _checkOwner() internal view virtual {... */\n      jump\t// out\n        /* \"@openzeppelin/contracts/token/ERC20/utils/SafeERC20.sol\":1219:1379  function safeTransfer(IERC20 token, address to, uint256 value) internal {... */\n    tag_79:\n        /* \"@openzeppelin/contracts/token/ERC20/utils/SafeERC20.sol\":1301:1372  _callOptionalReturn(token, abi.encodeCall(token.transfer, (to, value))) */\n      tag_228\n        /* \"@openzeppelin/contracts/token/ERC20/utils/SafeERC20.sol\":1321:1326  token */\n      dup4\n        /* \"@openzeppelin/contracts/token/ERC20/utils/SafeERC20.sol\":1343:1348  token */\n      dup5\n        /* \"@openzeppelin/contracts/token/ERC20/utils/SafeERC20.sol\":1343:1357  token.transfer */\n      0xffffffffffffffffffffffffffffffffffffffff\n      and\n      0xa9059cbb\n        /* \"@openzeppelin/contracts/token/ERC20/utils/SafeERC20.sol\":1360:1362  to */\n      dup6\n        /* \"@openzeppelin/contracts/token/ERC20/utils/SafeERC20.sol\":1364:1369  value */\n      dup6\n        /* \"@openzeppelin/contracts/token/ERC20/utils/SafeERC20.sol\":1328:1371  abi.encodeCall(token.transfer, (to, value)) */\n      add(0x24, mload(0x40))\n      tag_229\n      swap3\n      swap2\n      swap1\n      tag_230\n      jump\t// in\n    tag_229:\n      mload(0x40)\n      0x20\n      dup2\n      dup4\n      sub\n      sub\n      dup2\n      mstore\n      swap1\n      0x40\n      mstore\n      swap2\n      pop\n      0xe0\n      shl\n      0x20\n      dup3\n      add\n      dup1\n      mload\n      0xffffffffffffffffffffffffffffffffffffffffffffffffffffffff\n      dup4\n      dup2\n      dup4\n      and\n      or\n      dup4\n      mstore\n      pop\n      pop\n      pop\n      pop\n        /* \"@openzeppelin/contracts/token/ERC20/utils/SafeERC20.sol\":1301:1320  _callOptionalReturn */\n      tag_231\n        /* \"@openzeppelin/contracts/token/ERC20/utils/SafeERC20.sol\":1301:1372  _callOptionalReturn(token, abi.encodeCall(token.transfer, (to, value))) */\n      jump\t// in\n    tag_228:\n        /* \"@openzeppelin/contracts/token/ERC20/utils/SafeERC20.sol\":1219:1379  function safeTransfer(IERC20 token, address to, uint256 value) internal {... */\n      pop\n      pop\n      pop\n      jump\t// out\n        /* \"@openzeppelin/contracts/utils/ReentrancyGuard.sol\":2575:2882  function _nonReentrantBefore() private {... */\n    tag_82:\n        /* \"@openzeppelin/contracts/utils/ReentrancyGuard.sol\":1899:1900  2 */\n      0x02\n        /* \"@openzeppelin/contracts/utils/ReentrancyGuard.sol\":2702:2709  _status */\n      sload(0x01)\n        /* \"@openzeppelin/contracts/utils/ReentrancyGuard.sol\":2702:2720  _status == ENTERED */\n      sub\n        /* \"@openzeppelin/contracts/utils/ReentrancyGuard.sol\":2698:2784  if (_status == ENTERED) {... */\n      tag_233\n      jumpi\n        /* \"@openzeppelin/contracts/utils/ReentrancyGuard.sol\":2743:2773  ReentrancyGuardReentrantCall() */\n      mload(0x40)\n      0x3ee5aeb500000000000000000000000000000000000000000000000000000000\n      dup2\n      mstore\n      0x04\n      add\n      mload(0x40)\n      dup1\n      swap2\n      sub\n      swap1\n      revert\n        /* \"@openzeppelin/contracts/utils/ReentrancyGuard.sol\":2698:2784  if (_status == ENTERED) {... */\n    tag_233:\n        /* \"@openzeppelin/contracts/utils/ReentrancyGuard.sol\":1899:1900  2 */\n      0x02\n        /* \"@openzeppelin/contracts/utils/ReentrancyGuard.sol\":2858:2865  _status */\n      0x01\n        /* \"@openzeppelin/contracts/utils/ReentrancyGuard.sol\":2858:2875  _status = ENTERED */\n      dup2\n      swap1\n      sstore\n      pop\n        /* \"@openzeppelin/contracts/utils/ReentrancyGuard.sol\":2575:2882  function _nonReentrantBefore() private {... */\n      jump\t// out\n        /* \"@openzeppelin/contracts/utils/ReentrancyGuard.sol\":2888:3096  function _nonReentrantAfter() private {... */\n    tag_123:\n        /* \"@openzeppelin/contracts/utils/ReentrancyGuard.sol\":1857:1858  1 */\n      0x01\n        /* \"@openzeppelin/contracts/utils/ReentrancyGuard.sol\":3068:3075  _status */\n      dup1\n        /* \"@openzeppelin/contracts/utils/ReentrancyGuard.sol\":3068:3089  _status = NOT_ENTERED */\n      dup2\n      swap1\n      sstore\n      pop\n        /* \"@openzeppelin/contracts/utils/ReentrancyGuard.sol\":2888:3096  function _nonReentrantAfter() private {... */\n      jump\t// out\n        /* \"@openzeppelin/contracts/token/ERC20/utils/SafeERC20.sol\":1618:1806  function safeTransferFrom(IERC20 token, address from, address to, uint256 value) internal {... */\n    tag_140:\n        /* \"@openzeppelin/contracts/token/ERC20/utils/SafeERC20.sol\":1718:1799  _callOptionalReturn(token, abi.encodeCall(token.transferFrom, (from, to, value))) */\n      tag_236\n        /* \"@openzeppelin/contracts/token/ERC20/utils/SafeERC20.sol\":1738:1743  token */\n      dup5\n        /* \"@openzeppelin/contracts/token/ERC20/utils/SafeERC20.sol\":1760:1765  token */\n      dup6\n        /* \"@openzeppelin/contracts/token/ERC20/utils/SafeERC20.sol\":1760:1778  token.transferFrom */\n      0xffffffffffffffffffffffffffffffffffffffff\n      and\n      0x23b872dd\n        /* \"@openzeppelin/contracts/token/ERC20/utils/SafeERC20.sol\":1781:1785  from */\n      dup7\n        /* \"@openzeppelin/contracts/token/ERC20/utils/SafeERC20.sol\":1787:1789  to */\n      dup7\n        /* \"@openzeppelin/contracts/token/ERC20/utils/SafeERC20.sol\":1791:1796  value */\n      dup7\n        /* \"@openzeppelin/contracts/token/ERC20/utils/SafeERC20.sol\":1745:1798  abi.encodeCall(token.transferFrom, (from, to, value)) */\n      add(0x24, mload(0x40))\n      tag_237\n      swap4\n      swap3\n      swap2\n      swap1\n      tag_238\n      jump\t// in\n    tag_237:\n      mload(0x40)\n      0x20\n      dup2\n      dup4\n      sub\n      sub\n      dup2\n      mstore\n      swap1\n      0x40\n      mstore\n      swap2\n      pop\n      0xe0\n      shl\n      0x20\n      dup3\n      add\n      dup1\n      mload\n      0xffffffffffffffffffffffffffffffffffffffffffffffffffffffff\n      dup4\n      dup2\n      dup4\n      and\n      or\n      dup4\n      mstore\n      pop\n      pop\n      pop\n      pop\n        /* \"@openzeppelin/contracts/token/ERC20/utils/SafeERC20.sol\":1718:1737  _callOptionalReturn */\n      tag_231\n        /* \"@openzeppelin/contracts/token/ERC20/utils/SafeERC20.sol\":1718:1799  _callOptionalReturn(token, abi.encodeCall(token.transferFrom, (from, to, value))) */\n      jump\t// in\n    tag_236:\n        /* \"@openzeppelin/contracts/token/ERC20/utils/SafeERC20.sol\":1618:1806  function safeTransferFrom(IERC20 token, address from, address to, uint256 value) internal {... */\n      pop\n      pop\n      pop\n      pop\n      jump\t// out\n        /* \"@openzeppelin/contracts/access/Ownable.sol\":2912:3099  function _transferOwnership(address newOwner) internal virtual {... */\n    tag_146:\n        /* \"@openzeppelin/contracts/access/Ownable.sol\":2985:3001  address oldOwner */\n      0x00\n        /* \"@openzeppelin/contracts/access/Ownable.sol\":3004:3010  _owner */\n      0x00\n      0x00\n      swap1\n      sload\n      swap1\n      0x0100\n      exp\n      swap1\n      div\n      0xffffffffffffffffffffffffffffffffffffffff\n      and\n        /* \"@openzeppelin/contracts/access/Ownable.sol\":2985:3010  address oldOwner = _owner */\n      swap1\n      pop\n        /* \"@openzeppelin/contracts/access/Ownable.sol\":3029:3037  newOwner */\n      dup2\n        /* \"@openzeppelin/contracts/access/Ownable.sol\":3020:3026  _owner */\n      0x00\n      0x00\n        /* \"@openzeppelin/contracts/access/Ownable.sol\":3020:3037  _owner = newOwner */\n      0x0100\n      exp\n      dup2\n      sload\n      dup2\n      0xffffffffffffffffffffffffffffffffffffffff\n      mul\n      not\n      and\n      swap1\n      dup4\n      0xffffffffffffffffffffffffffffffffffffffff\n      and\n      mul\n      or\n      swap1\n      sstore\n      pop\n        /* \"@openzeppelin/contracts/access/Ownable.sol\":3083:3091  newOwner */\n      dup2\n        /* \"@openzeppelin/contracts/access/Ownable.sol\":3052:3092  OwnershipTransferred(oldOwner, newOwner) */\n      0xffffffffffffffffffffffffffffffffffffffff\n      and\n        /* \"@openzeppelin/contracts/access/Ownable.sol\":3073:3081  oldOwner */\n      dup2\n        /* \"@openzeppelin/contracts/access/Ownable.sol\":3052:3092  OwnershipTransferred(oldOwner, newOwner) */\n      0xffffffffffffffffffffffffffffffffffffffff\n      and\n      0x8be0079c531659141344cd1fd0a4f28419497f9722a3daafe3b4186f6b6457e0\n      mload(0x40)\n      mload(0x40)\n      dup1\n      swap2\n      sub\n      swap1\n      log3\n        /* \"@openzeppelin/contracts/access/Ownable.sol\":2975:3099  {... */\n      pop\n        /* \"@openzeppelin/contracts/access/Ownable.sol\":2912:3099  function _transferOwnership(address newOwner) internal virtual {... */\n      pop\n      jump\t// out\n        /* \"@openzeppelin/contracts/utils/Context.sol\":656:752  function _msgSender() internal view virtual returns (address) {... */\n    tag_222:\n        /* \"@openzeppelin/contracts/utils/Context.sol\":709:716  address */\n      0x00\n        /* \"@openzeppelin/contracts/utils/Context.sol\":735:745  msg.sender */\n      caller\n        /* \"@openzeppelin/contracts/utils/Context.sol\":728:745  return msg.sender */\n      swap1\n      pop\n        /* \"@openzeppelin/contracts/utils/Context.sol\":656:752  function _msgSender() internal view virtual returns (address) {... */\n      swap1\n      jump\t// out\n        /* \"@openzeppelin/contracts/token/ERC20/utils/SafeERC20.sol\":8370:9090  function _callOptionalReturn(IERC20 token, bytes memory data) private {... */\n    tag_231:\n        /* \"@openzeppelin/contracts/token/ERC20/utils/SafeERC20.sol\":8450:8468  uint256 returnSize */\n      0x00\n        /* \"@openzeppelin/contracts/token/ERC20/utils/SafeERC20.sol\":8478:8497  uint256 returnValue */\n      0x00\n        /* \"@openzeppelin/contracts/token/ERC20/utils/SafeERC20.sol\":8616:8620  0x20 */\n      0x20\n        /* \"@openzeppelin/contracts/token/ERC20/utils/SafeERC20.sol\":8613:8614  0 */\n      0x00\n        /* \"@openzeppelin/contracts/token/ERC20/utils/SafeERC20.sol\":8606:8610  data */\n      dup5\n        /* \"@openzeppelin/contracts/token/ERC20/utils/SafeERC20.sol\":8600:8611  mload(data) */\n      mload\n        /* \"@openzeppelin/contracts/token/ERC20/utils/SafeERC20.sol\":8593:8597  0x20 */\n      0x20\n        /* \"@openzeppelin/contracts/token/ERC20/utils/SafeERC20.sol\":8587:8591  data */\n      dup7\n        /* \"@openzeppelin/contracts/token/ERC20/utils/SafeERC20.sol\":8583:8598  add(data, 0x20) */\n      add\n        /* \"@openzeppelin/contracts/token/ERC20/utils/SafeERC20.sol\":8580:8581  0 */\n      0x00\n        /* \"@openzeppelin/contracts/token/ERC20/utils/SafeERC20.sol\":8573:8578  token */\n      dup9\n        /* \"@openzeppelin/contracts/token/ERC20/utils/SafeERC20.sol\":8566:8571  gas() */\n      gas\n        /* \"@openzeppelin/contracts/token/ERC20/utils/SafeERC20.sol\":8561:8621  call(gas(), token, 0, add(data, 0x20), mload(data), 0, 0x20) */\n      call\n        /* \"@openzeppelin/contracts/token/ERC20/utils/SafeERC20.sol\":8673:8680  success */\n      dup1\n        /* \"@openzeppelin/contracts/token/ERC20/utils/SafeERC20.sol\":8663:8839  if iszero(success) {... */\n      tag_242\n      jumpi\n        /* \"@openzeppelin/contracts/token/ERC20/utils/SafeERC20.sol\":8717:8721  0x40 */\n      0x40\n        /* \"@openzeppelin/contracts/token/ERC20/utils/SafeERC20.sol\":8711:8722  mload(0x40) */\n      mload\n        /* \"@openzeppelin/contracts/token/ERC20/utils/SafeERC20.sol\":8762:8778  returndatasize() */\n      returndatasize\n        /* \"@openzeppelin/contracts/token/ERC20/utils/SafeERC20.sol\":8759:8760  0 */\n      0x00\n        /* \"@openzeppelin/contracts/token/ERC20/utils/SafeERC20.sol\":8754:8757  ptr */\n      dup3\n        /* \"@openzeppelin/contracts/token/ERC20/utils/SafeERC20.sol\":8739:8779  returndatacopy(ptr, 0, returndatasize()) */\n      returndatacopy\n        /* \"@openzeppelin/contracts/token/ERC20/utils/SafeERC20.sol\":8808:8824  returndatasize() */\n      returndatasize\n        /* \"@openzeppelin/contracts/token/ERC20/utils/SafeERC20.sol\":8803:8806  ptr */\n      dup2\n        /* \"@openzeppelin/contracts/token/ERC20/utils/SafeERC20.sol\":8796:8825  revert(ptr, returndatasize()) */\n      revert\n        /* \"@openzeppelin/contracts/token/ERC20/utils/SafeERC20.sol\":8663:8839  if iszero(success) {... */\n    tag_242:\n        /* \"@openzeppelin/contracts/token/ERC20/utils/SafeERC20.sol\":8866:8882  returndatasize() */\n      returndatasize\n        /* \"@openzeppelin/contracts/token/ERC20/utils/SafeERC20.sol\":8852:8882  returnSize := returndatasize() */\n      swap3\n      pop\n        /* \"@openzeppelin/contracts/token/ERC20/utils/SafeERC20.sol\":8916:8917  0 */\n      0x00\n        /* \"@openzeppelin/contracts/token/ERC20/utils/SafeERC20.sol\":8910:8918  mload(0) */\n      mload\n        /* \"@openzeppelin/contracts/token/ERC20/utils/SafeERC20.sol\":8895:8918  returnValue := mload(0) */\n      swap2\n      pop\n        /* \"@openzeppelin/contracts/token/ERC20/utils/SafeERC20.sol\":8532:8928  {... */\n      pop\n        /* \"@openzeppelin/contracts/token/ERC20/utils/SafeERC20.sol\":8956:8957  0 */\n      0x00\n        /* \"@openzeppelin/contracts/token/ERC20/utils/SafeERC20.sol\":8942:8952  returnSize */\n      dup3\n        /* \"@openzeppelin/contracts/token/ERC20/utils/SafeERC20.sol\":8942:8957  returnSize == 0 */\n      eq\n        /* \"@openzeppelin/contracts/token/ERC20/utils/SafeERC20.sol\":8942:9010  returnSize == 0 ? address(token).code.length == 0 : returnValue != 1 */\n      tag_243\n      jumpi\n        /* \"@openzeppelin/contracts/token/ERC20/utils/SafeERC20.sol\":9009:9010  1 */\n      0x01\n        /* \"@openzeppelin/contracts/token/ERC20/utils/SafeERC20.sol\":8994:9005  returnValue */\n      dup2\n        /* \"@openzeppelin/contracts/token/ERC20/utils/SafeERC20.sol\":8994:9010  returnValue != 1 */\n      eq\n      iszero\n        /* \"@openzeppelin/contracts/token/ERC20/utils/SafeERC20.sol\":8942:9010  returnSize == 0 ? address(token).code.length == 0 : returnValue != 1 */\n      jump(tag_244)\n    tag_243:\n        /* \"@openzeppelin/contracts/token/ERC20/utils/SafeERC20.sol\":8990:8991  0 */\n      0x00\n        /* \"@openzeppelin/contracts/token/ERC20/utils/SafeERC20.sol\":8968:8973  token */\n      dup5\n        /* \"@openzeppelin/contracts/token/ERC20/utils/SafeERC20.sol\":8960:8986  address(token).code.length */\n      0xffffffffffffffffffffffffffffffffffffffff\n      and\n      extcodesize\n        /* \"@openzeppelin/contracts/token/ERC20/utils/SafeERC20.sol\":8960:8991  address(token).code.length == 0 */\n      eq\n        /* \"@openzeppelin/contracts/token/ERC20/utils/SafeERC20.sol\":8942:9010  returnSize == 0 ? address(token).code.length == 0 : returnValue != 1 */\n    tag_244:\n        /* \"@openzeppelin/contracts/token/ERC20/utils/SafeERC20.sol\":8938:9084  if (returnSize == 0 ? address(token).code.length == 0 : returnValue != 1) {... */\n      iszero\n      tag_245\n      jumpi\n        /* \"@openzeppelin/contracts/token/ERC20/utils/SafeERC20.sol\":9066:9071  token */\n      dup4\n        /* \"@openzeppelin/contracts/token/ERC20/utils/SafeERC20.sol\":9033:9073  SafeERC20FailedOperation(address(token)) */\n      mload(0x40)\n      0x5274afe700000000000000000000000000000000000000000000000000000000\n      dup2\n      mstore\n      0x04\n      add\n      tag_246\n      swap2\n      swap1\n      tag_43\n      jump\t// in\n    tag_246:\n      mload(0x40)\n      dup1\n      swap2\n      sub\n      swap1\n      revert\n        /* \"@openzeppelin/contracts/token/ERC20/utils/SafeERC20.sol\":8938:9084  if (returnSize == 0 ? address(token).code.length == 0 : returnValue != 1) {... */\n    tag_245:\n        /* \"@openzeppelin/contracts/token/ERC20/utils/SafeERC20.sol\":8440:9090  {... */\n      pop\n      pop\n        /* \"@openzeppelin/contracts/token/ERC20/utils/SafeERC20.sol\":8370:9090  function _callOptionalReturn(IERC20 token, bytes memory data) private {... */\n      pop\n      pop\n      jump\t// out\n    tag_119:\n      dup3\n      dup1\n      sload\n      dup3\n      dup3\n      sstore\n      swap1\n      0x00\n      mstore\n      keccak256(0x00, 0x20)\n      swap1\n      dup2\n      add\n      swap3\n      dup3\n      iszero\n      tag_247\n      jumpi\n      swap2\n      0x20\n      mul\n      dup3\n      add\n    tag_248:\n      dup3\n      dup2\n      gt\n      iszero\n      tag_249\n      jumpi\n      dup3\n      mload\n      dup3\n      sstore\n      swap2\n      0x20\n      add\n      swap2\n      swap1\n      0x01\n      add\n      swap1\n      jump(tag_248)\n    tag_249:\n    tag_247:\n      pop\n      swap1\n      pop\n      tag_250\n      swap2\n      swap1\n      tag_251\n      jump\t// in\n    tag_250:\n      pop\n      swap1\n      jump\t// out\n    tag_251:\n    tag_252:\n      dup1\n      dup3\n      gt\n      iszero\n      tag_253\n      jumpi\n      0x00\n      dup2\n      0x00\n      swap1\n      sstore\n      pop\n      0x01\n      add\n      jump(tag_252)\n    tag_253:\n      pop\n      swap1\n      jump\t// out\n        /* \"#utility.yul\":7:82   */\n    tag_254:\n        /* \"#utility.yul\":40:46   */\n      0x00\n        /* \"#utility.yul\":73:75   */\n      0x40\n        /* \"#utility.yul\":67:76   */\n      mload\n        /* \"#utility.yul\":57:76   */\n      swap1\n      pop\n        /* \"#utility.yul\":7:82   */\n      swap1\n      jump\t// out\n        /* \"#utility.yul\":88:205   */\n    tag_255:\n        /* \"#utility.yul\":197:198   */\n      0x00\n        /* \"#utility.yul\":194:195   */\n      0x00\n        /* \"#utility.yul\":187:199   */\n      revert\n        /* \"#utility.yul\":211:328   */\n    tag_256:\n        /* \"#utility.yul\":320:321   */\n      0x00\n        /* \"#utility.yul\":317:318   */\n      0x00\n        /* \"#utility.yul\":310:322   */\n      revert\n        /* \"#utility.yul\":334:460   */\n    tag_257:\n        /* \"#utility.yul\":371:378   */\n      0x00\n        /* \"#utility.yul\":411:453   */\n      0xffffffffffffffffffffffffffffffffffffffff\n        /* \"#utility.yul\":404:409   */\n      dup3\n        /* \"#utility.yul\":400:454   */\n      and\n        /* \"#utility.yul\":389:454   */\n      swap1\n      pop\n        /* \"#utility.yul\":334:460   */\n      swap2\n      swap1\n      pop\n      jump\t// out\n        /* \"#utility.yul\":466:562   */\n    tag_258:\n        /* \"#utility.yul\":503:510   */\n      0x00\n        /* \"#utility.yul\":532:556   */\n      tag_338\n        /* \"#utility.yul\":550:555   */\n      dup3\n        /* \"#utility.yul\":532:556   */\n      tag_257\n      jump\t// in\n    tag_338:\n        /* \"#utility.yul\":521:556   */\n      swap1\n      pop\n        /* \"#utility.yul\":466:562   */\n      swap2\n      swap1\n      pop\n      jump\t// out\n        /* \"#utility.yul\":568:690   */\n    tag_259:\n        /* \"#utility.yul\":641:665   */\n      tag_340\n        /* \"#utility.yul\":659:664   */\n      dup2\n        /* \"#utility.yul\":641:665   */\n      tag_258\n      jump\t// in\n    tag_340:\n        /* \"#utility.yul\":634:639   */\n      dup2\n        /* \"#utility.yul\":631:666   */\n      eq\n        /* \"#utility.yul\":621:684   */\n      tag_341\n      jumpi\n        /* \"#utility.yul\":680:681   */\n      0x00\n        /* \"#utility.yul\":677:678   */\n      0x00\n        /* \"#utility.yul\":670:682   */\n      revert\n        /* \"#utility.yul\":621:684   */\n    tag_341:\n        /* \"#utility.yul\":568:690   */\n      pop\n      jump\t// out\n        /* \"#utility.yul\":696:835   */\n    tag_260:\n        /* \"#utility.yul\":742:747   */\n      0x00\n        /* \"#utility.yul\":780:786   */\n      dup2\n        /* \"#utility.yul\":767:787   */\n      calldataload\n        /* \"#utility.yul\":758:787   */\n      swap1\n      pop\n        /* \"#utility.yul\":796:829   */\n      tag_343\n        /* \"#utility.yul\":823:828   */\n      dup2\n        /* \"#utility.yul\":796:829   */\n      tag_259\n      jump\t// in\n    tag_343:\n        /* \"#utility.yul\":696:835   */\n      swap3\n      swap2\n      pop\n      pop\n      jump\t// out\n        /* \"#utility.yul\":841:1170   */\n    tag_18:\n        /* \"#utility.yul\":900:906   */\n      0x00\n        /* \"#utility.yul\":949:951   */\n      0x20\n        /* \"#utility.yul\":937:946   */\n      dup3\n        /* \"#utility.yul\":928:935   */\n      dup5\n        /* \"#utility.yul\":924:947   */\n      sub\n        /* \"#utility.yul\":920:952   */\n      slt\n        /* \"#utility.yul\":917:1036   */\n      iszero\n      tag_345\n      jumpi\n        /* \"#utility.yul\":955:1034   */\n      tag_346\n      tag_255\n      jump\t// in\n    tag_346:\n        /* \"#utility.yul\":917:1036   */\n    tag_345:\n        /* \"#utility.yul\":1075:1076   */\n      0x00\n        /* \"#utility.yul\":1100:1153   */\n      tag_347\n        /* \"#utility.yul\":1145:1152   */\n      dup5\n        /* \"#utility.yul\":1136:1142   */\n      dup3\n        /* \"#utility.yul\":1125:1134   */\n      dup6\n        /* \"#utility.yul\":1121:1143   */\n      add\n        /* \"#utility.yul\":1100:1153   */\n      tag_260\n      jump\t// in\n    tag_347:\n        /* \"#utility.yul\":1090:1153   */\n      swap2\n      pop\n        /* \"#utility.yul\":1046:1163   */\n      pop\n        /* \"#utility.yul\":841:1170   */\n      swap3\n      swap2\n      pop\n      pop\n      jump\t// out\n        /* \"#utility.yul\":1176:1253   */\n    tag_261:\n        /* \"#utility.yul\":1213:1220   */\n      0x00\n        /* \"#utility.yul\":1242:1247   */\n      dup2\n        /* \"#utility.yul\":1231:1247   */\n      swap1\n      pop\n        /* \"#utility.yul\":1176:1253   */\n      swap2\n      swap1\n      pop\n      jump\t// out\n        /* \"#utility.yul\":1259:1381   */\n    tag_262:\n        /* \"#utility.yul\":1332:1356   */\n      tag_350\n        /* \"#utility.yul\":1350:1355   */\n      dup2\n        /* \"#utility.yul\":1332:1356   */\n      tag_261\n      jump\t// in\n    tag_350:\n        /* \"#utility.yul\":1325:1330   */\n      dup2\n        /* \"#utility.yul\":1322:1357   */\n      eq\n        /* \"#utility.yul\":1312:1375   */\n      tag_351\n      jumpi\n        /* \"#utility.yul\":1371:1372   */\n      0x00\n        /* \"#utility.yul\":1368:1369   */\n      0x00\n        /* \"#utility.yul\":1361:1373   */\n      revert\n        /* \"#utility.yul\":1312:1375   */\n    tag_351:\n        /* \"#utility.yul\":1259:1381   */\n      pop\n      jump\t// out\n        /* \"#utility.yul\":1387:1526   */\n    tag_263:\n        /* \"#utility.yul\":1433:1438   */\n      0x00\n        /* \"#utility.yul\":1471:1477   */\n      dup2\n        /* \"#utility.yul\":1458:1478   */\n      calldataload\n        /* \"#utility.yul\":1449:1478   */\n      swap1\n      pop\n        /* \"#utility.yul\":1487:1520   */\n      tag_353\n        /* \"#utility.yul\":1514:1519   */\n      dup2\n        /* \"#utility.yul\":1487:1520   */\n      tag_262\n      jump\t// in\n    tag_353:\n        /* \"#utility.yul\":1387:1526   */\n      swap3\n      swap2\n      pop\n      pop\n      jump\t// out\n        /* \"#utility.yul\":1532:1861   */\n    tag_22:\n        /* \"#utility.yul\":1591:1597   */\n      0x00\n        /* \"#utility.yul\":1640:1642   */\n      0x20\n        /* \"#utility.yul\":1628:1637   */\n      dup3\n        /* \"#utility.yul\":1619:1626   */\n      dup5\n        /* \"#utility.yul\":1615:1638   */\n      sub\n        /* \"#utility.yul\":1611:1643   */\n      slt\n        /* \"#utility.yul\":1608:1727   */\n      iszero\n      tag_355\n      jumpi\n        /* \"#utility.yul\":1646:1725   */\n      tag_356\n      tag_255\n      jump\t// in\n    tag_356:\n        /* \"#utility.yul\":1608:1727   */\n    tag_355:\n        /* \"#utility.yul\":1766:1767   */\n      0x00\n        /* \"#utility.yul\":1791:1844   */\n      tag_357\n        /* \"#utility.yul\":1836:1843   */\n      dup5\n        /* \"#utility.yul\":1827:1833   */\n      dup3\n        /* \"#utility.yul\":1816:1825   */\n      dup6\n        /* \"#utility.yul\":1812:1834   */\n      add\n        /* \"#utility.yul\":1791:1844   */\n      tag_263\n      jump\t// in\n    tag_357:\n        /* \"#utility.yul\":1781:1844   */\n      swap2\n      pop\n        /* \"#utility.yul\":1737:1854   */\n      pop\n        /* \"#utility.yul\":1532:1861   */\n      swap3\n      swap2\n      pop\n      pop\n      jump\t// out\n        /* \"#utility.yul\":1867:1985   */\n    tag_264:\n        /* \"#utility.yul\":1954:1978   */\n      tag_359\n        /* \"#utility.yul\":1972:1977   */\n      dup2\n        /* \"#utility.yul\":1954:1978   */\n      tag_258\n      jump\t// in\n    tag_359:\n        /* \"#utility.yul\":1949:1952   */\n      dup3\n        /* \"#utility.yul\":1942:1979   */\n      mstore\n        /* \"#utility.yul\":1867:1985   */\n      pop\n      pop\n      jump\t// out\n        /* \"#utility.yul\":1991:2051   */\n    tag_265:\n        /* \"#utility.yul\":2019:2022   */\n      0x00\n        /* \"#utility.yul\":2040:2045   */\n      dup2\n        /* \"#utility.yul\":2033:2045   */\n      swap1\n      pop\n        /* \"#utility.yul\":1991:2051   */\n      swap2\n      swap1\n      pop\n      jump\t// out\n        /* \"#utility.yul\":2057:2199   */\n    tag_266:\n        /* \"#utility.yul\":2107:2116   */\n      0x00\n        /* \"#utility.yul\":2140:2193   */\n      tag_362\n        /* \"#utility.yul\":2158:2192   */\n      tag_363\n        /* \"#utility.yul\":2167:2191   */\n      tag_364\n        /* \"#utility.yul\":2185:2190   */\n      dup5\n        /* \"#utility.yul\":2167:2191   */\n      tag_257\n      jump\t// in\n    tag_364:\n        /* \"#utility.yul\":2158:2192   */\n      tag_265\n      jump\t// in\n    tag_363:\n        /* \"#utility.yul\":2140:2193   */\n      tag_257\n      jump\t// in\n    tag_362:\n        /* \"#utility.yul\":2127:2193   */\n      swap1\n      pop\n        /* \"#utility.yul\":2057:2199   */\n      swap2\n      swap1\n      pop\n      jump\t// out\n        /* \"#utility.yul\":2205:2331   */\n    tag_267:\n        /* \"#utility.yul\":2255:2264   */\n      0x00\n        /* \"#utility.yul\":2288:2325   */\n      tag_366\n        /* \"#utility.yul\":2319:2324   */\n      dup3\n        /* \"#utility.yul\":2288:2325   */\n      tag_266\n      jump\t// in\n    tag_366:\n        /* \"#utility.yul\":2275:2325   */\n      swap1\n      pop\n        /* \"#utility.yul\":2205:2331   */\n      swap2\n      swap1\n      pop\n      jump\t// out\n        /* \"#utility.yul\":2337:2477   */\n    tag_268:\n        /* \"#utility.yul\":2401:2410   */\n      0x00\n        /* \"#utility.yul\":2434:2471   */\n      tag_368\n        /* \"#utility.yul\":2465:2470   */\n      dup3\n        /* \"#utility.yul\":2434:2471   */\n      tag_267\n      jump\t// in\n    tag_368:\n        /* \"#utility.yul\":2421:2471   */\n      swap1\n      pop\n        /* \"#utility.yul\":2337:2477   */\n      swap2\n      swap1\n      pop\n      jump\t// out\n        /* \"#utility.yul\":2483:2642   */\n    tag_269:\n        /* \"#utility.yul\":2584:2635   */\n      tag_370\n        /* \"#utility.yul\":2629:2634   */\n      dup2\n        /* \"#utility.yul\":2584:2635   */\n      tag_268\n      jump\t// in\n    tag_370:\n        /* \"#utility.yul\":2579:2582   */\n      dup3\n        /* \"#utility.yul\":2572:2636   */\n      mstore\n        /* \"#utility.yul\":2483:2642   */\n      pop\n      pop\n      jump\t// out\n        /* \"#utility.yul\":2648:2725   */\n    tag_270:\n        /* \"#utility.yul\":2685:2692   */\n      0x00\n        /* \"#utility.yul\":2714:2719   */\n      dup2\n        /* \"#utility.yul\":2703:2719   */\n      swap1\n      pop\n        /* \"#utility.yul\":2648:2725   */\n      swap2\n      swap1\n      pop\n      jump\t// out\n        /* \"#utility.yul\":2731:2849   */\n    tag_271:\n        /* \"#utility.yul\":2818:2842   */\n      tag_373\n        /* \"#utility.yul\":2836:2841   */\n      dup2\n        /* \"#utility.yul\":2818:2842   */\n      tag_270\n      jump\t// in\n    tag_373:\n        /* \"#utility.yul\":2813:2816   */\n      dup3\n        /* \"#utility.yul\":2806:2843   */\n      mstore\n        /* \"#utility.yul\":2731:2849   */\n      pop\n      pop\n      jump\t// out\n        /* \"#utility.yul\":2855:2945   */\n    tag_272:\n        /* \"#utility.yul\":2889:2896   */\n      0x00\n        /* \"#utility.yul\":2932:2937   */\n      dup2\n        /* \"#utility.yul\":2925:2938   */\n      iszero\n        /* \"#utility.yul\":2918:2939   */\n      iszero\n        /* \"#utility.yul\":2907:2939   */\n      swap1\n      pop\n        /* \"#utility.yul\":2855:2945   */\n      swap2\n      swap1\n      pop\n      jump\t// out\n        /* \"#utility.yul\":2951:3060   */\n    tag_273:\n        /* \"#utility.yul\":3032:3053   */\n      tag_376\n        /* \"#utility.yul\":3047:3052   */\n      dup2\n        /* \"#utility.yul\":3032:3053   */\n      tag_272\n      jump\t// in\n    tag_376:\n        /* \"#utility.yul\":3027:3030   */\n      dup3\n        /* \"#utility.yul\":3020:3054   */\n      mstore\n        /* \"#utility.yul\":2951:3060   */\n      pop\n      pop\n      jump\t// out\n        /* \"#utility.yul\":3066:4289   */\n    tag_25:\n        /* \"#utility.yul\":3413:3417   */\n      0x00\n        /* \"#utility.yul\":3451:3454   */\n      0x0140\n        /* \"#utility.yul\":3440:3449   */\n      dup3\n        /* \"#utility.yul\":3436:3455   */\n      add\n        /* \"#utility.yul\":3428:3455   */\n      swap1\n      pop\n        /* \"#utility.yul\":3465:3536   */\n      tag_378\n        /* \"#utility.yul\":3533:3534   */\n      0x00\n        /* \"#utility.yul\":3522:3531   */\n      dup4\n        /* \"#utility.yul\":3518:3535   */\n      add\n        /* \"#utility.yul\":3509:3515   */\n      dup14\n        /* \"#utility.yul\":3465:3536   */\n      tag_264\n      jump\t// in\n    tag_378:\n        /* \"#utility.yul\":3546:3618   */\n      tag_379\n        /* \"#utility.yul\":3614:3616   */\n      0x20\n        /* \"#utility.yul\":3603:3612   */\n      dup4\n        /* \"#utility.yul\":3599:3617   */\n      add\n        /* \"#utility.yul\":3590:3596   */\n      dup13\n        /* \"#utility.yul\":3546:3618   */\n      tag_264\n      jump\t// in\n    tag_379:\n        /* \"#utility.yul\":3628:3714   */\n      tag_380\n        /* \"#utility.yul\":3710:3712   */\n      0x40\n        /* \"#utility.yul\":3699:3708   */\n      dup4\n        /* \"#utility.yul\":3695:3713   */\n      add\n        /* \"#utility.yul\":3686:3692   */\n      dup12\n        /* \"#utility.yul\":3628:3714   */\n      tag_269\n      jump\t// in\n    tag_380:\n        /* \"#utility.yul\":3724:3796   */\n      tag_381\n        /* \"#utility.yul\":3792:3794   */\n      0x60\n        /* \"#utility.yul\":3781:3790   */\n      dup4\n        /* \"#utility.yul\":3777:3795   */\n      add\n        /* \"#utility.yul\":3768:3774   */\n      dup11\n        /* \"#utility.yul\":3724:3796   */\n      tag_271\n      jump\t// in\n    tag_381:\n        /* \"#utility.yul\":3806:3879   */\n      tag_382\n        /* \"#utility.yul\":3874:3877   */\n      0x80\n        /* \"#utility.yul\":3863:3872   */\n      dup4\n        /* \"#utility.yul\":3859:3878   */\n      add\n        /* \"#utility.yul\":3850:3856   */\n      dup10\n        /* \"#utility.yul\":3806:3879   */\n      tag_271\n      jump\t// in\n    tag_382:\n        /* \"#utility.yul\":3889:3962   */\n      tag_383\n        /* \"#utility.yul\":3957:3960   */\n      0xa0\n        /* \"#utility.yul\":3946:3955   */\n      dup4\n        /* \"#utility.yul\":3942:3961   */\n      add\n        /* \"#utility.yul\":3933:3939   */\n      dup9\n        /* \"#utility.yul\":3889:3962   */\n      tag_271\n      jump\t// in\n    tag_383:\n        /* \"#utility.yul\":3972:4045   */\n      tag_384\n        /* \"#utility.yul\":4040:4043   */\n      0xc0\n        /* \"#utility.yul\":4029:4038   */\n      dup4\n        /* \"#utility.yul\":4025:4044   */\n      add\n        /* \"#utility.yul\":4016:4022   */\n      dup8\n        /* \"#utility.yul\":3972:4045   */\n      tag_271\n      jump\t// in\n    tag_384:\n        /* \"#utility.yul\":4055:4122   */\n      tag_385\n        /* \"#utility.yul\":4117:4120   */\n      0xe0\n        /* \"#utility.yul\":4106:4115   */\n      dup4\n        /* \"#utility.yul\":4102:4121   */\n      add\n        /* \"#utility.yul\":4093:4099   */\n      dup7\n        /* \"#utility.yul\":4055:4122   */\n      tag_273\n      jump\t// in\n    tag_385:\n        /* \"#utility.yul\":4132:4199   */\n      tag_386\n        /* \"#utility.yul\":4194:4197   */\n      0x0100\n        /* \"#utility.yul\":4183:4192   */\n      dup4\n        /* \"#utility.yul\":4179:4198   */\n      add\n        /* \"#utility.yul\":4170:4176   */\n      dup6\n        /* \"#utility.yul\":4132:4199   */\n      tag_273\n      jump\t// in\n    tag_386:\n        /* \"#utility.yul\":4209:4282   */\n      tag_387\n        /* \"#utility.yul\":4277:4280   */\n      0x0120\n        /* \"#utility.yul\":4266:4275   */\n      dup4\n        /* \"#utility.yul\":4262:4281   */\n      add\n        /* \"#utility.yul\":4253:4259   */\n      dup5\n        /* \"#utility.yul\":4209:4282   */\n      tag_271\n      jump\t// in\n    tag_387:\n        /* \"#utility.yul\":3066:4289   */\n      swap12\n      swap11\n      pop\n      pop\n      pop\n      pop\n      pop\n      pop\n      pop\n      pop\n      pop\n      pop\n      pop\n      jump\t// out\n        /* \"#utility.yul\":4295:4417   */\n    tag_274:\n        /* \"#utility.yul\":4368:4392   */\n      tag_389\n        /* \"#utility.yul\":4386:4391   */\n      dup2\n        /* \"#utility.yul\":4368:4392   */\n      tag_270\n      jump\t// in\n    tag_389:\n        /* \"#utility.yul\":4361:4366   */\n      dup2\n        /* \"#utility.yul\":4358:4393   */\n      eq\n        /* \"#utility.yul\":4348:4411   */\n      tag_390\n      jumpi\n        /* \"#utility.yul\":4407:4408   */\n      0x00\n        /* \"#utility.yul\":4404:4405   */\n      0x00\n        /* \"#utility.yul\":4397:4409   */\n      revert\n        /* \"#utility.yul\":4348:4411   */\n    tag_390:\n        /* \"#utility.yul\":4295:4417   */\n      pop\n      jump\t// out\n        /* \"#utility.yul\":4423:4562   */\n    tag_275:\n        /* \"#utility.yul\":4469:4474   */\n      0x00\n        /* \"#utility.yul\":4507:4513   */\n      dup2\n        /* \"#utility.yul\":4494:4514   */\n      calldataload\n        /* \"#utility.yul\":4485:4514   */\n      swap1\n      pop\n        /* \"#utility.yul\":4523:4556   */\n      tag_392\n        /* \"#utility.yul\":4550:4555   */\n      dup2\n        /* \"#utility.yul\":4523:4556   */\n      tag_274\n      jump\t// in\n    tag_392:\n        /* \"#utility.yul\":4423:4562   */\n      swap3\n      swap2\n      pop\n      pop\n      jump\t// out\n        /* \"#utility.yul\":4568:4685   */\n    tag_276:\n        /* \"#utility.yul\":4677:4678   */\n      0x00\n        /* \"#utility.yul\":4674:4675   */\n      0x00\n        /* \"#utility.yul\":4667:4679   */\n      revert\n        /* \"#utility.yul\":4691:4793   */\n    tag_277:\n        /* \"#utility.yul\":4732:4738   */\n      0x00\n        /* \"#utility.yul\":4783:4785   */\n      0x1f\n        /* \"#utility.yul\":4779:4786   */\n      not\n        /* \"#utility.yul\":4774:4776   */\n      0x1f\n        /* \"#utility.yul\":4767:4772   */\n      dup4\n        /* \"#utility.yul\":4763:4777   */\n      add\n        /* \"#utility.yul\":4759:4787   */\n      and\n        /* \"#utility.yul\":4749:4787   */\n      swap1\n      pop\n        /* \"#utility.yul\":4691:4793   */\n      swap2\n      swap1\n      pop\n      jump\t// out\n        /* \"#utility.yul\":4799:4979   */\n    tag_278:\n        /* \"#utility.yul\":4847:4924   */\n      0x4e487b7100000000000000000000000000000000000000000000000000000000\n        /* \"#utility.yul\":4844:4845   */\n      0x00\n        /* \"#utility.yul\":4837:4925   */\n      mstore\n        /* \"#utility.yul\":4944:4948   */\n      0x41\n        /* \"#utility.yul\":4941:4942   */\n      0x04\n        /* \"#utility.yul\":4934:4949   */\n      mstore\n        /* \"#utility.yul\":4968:4972   */\n      0x24\n        /* \"#utility.yul\":4965:4966   */\n      0x00\n        /* \"#utility.yul\":4958:4973   */\n      revert\n        /* \"#utility.yul\":4985:5266   */\n    tag_279:\n        /* \"#utility.yul\":5068:5095   */\n      tag_397\n        /* \"#utility.yul\":5090:5094   */\n      dup3\n        /* \"#utility.yul\":5068:5095   */\n      tag_277\n      jump\t// in\n    tag_397:\n        /* \"#utility.yul\":5060:5066   */\n      dup2\n        /* \"#utility.yul\":5056:5096   */\n      add\n        /* \"#utility.yul\":5198:5204   */\n      dup2\n        /* \"#utility.yul\":5186:5196   */\n      dup2\n        /* \"#utility.yul\":5183:5205   */\n      lt\n        /* \"#utility.yul\":5162:5180   */\n      0xffffffffffffffff\n        /* \"#utility.yul\":5150:5160   */\n      dup3\n        /* \"#utility.yul\":5147:5181   */\n      gt\n        /* \"#utility.yul\":5144:5206   */\n      or\n        /* \"#utility.yul\":5141:5229   */\n      iszero\n      tag_398\n      jumpi\n        /* \"#utility.yul\":5209:5227   */\n      tag_399\n      tag_278\n      jump\t// in\n    tag_399:\n        /* \"#utility.yul\":5141:5229   */\n    tag_398:\n        /* \"#utility.yul\":5249:5259   */\n      dup1\n        /* \"#utility.yul\":5245:5247   */\n      0x40\n        /* \"#utility.yul\":5238:5260   */\n      mstore\n        /* \"#utility.yul\":5028:5266   */\n      pop\n        /* \"#utility.yul\":4985:5266   */\n      pop\n      pop\n      jump\t// out\n        /* \"#utility.yul\":5272:5401   */\n    tag_280:\n        /* \"#utility.yul\":5306:5312   */\n      0x00\n        /* \"#utility.yul\":5333:5353   */\n      tag_401\n      tag_254\n      jump\t// in\n    tag_401:\n        /* \"#utility.yul\":5323:5353   */\n      swap1\n      pop\n        /* \"#utility.yul\":5362:5395   */\n      tag_402\n        /* \"#utility.yul\":5390:5394   */\n      dup3\n        /* \"#utility.yul\":5382:5388   */\n      dup3\n        /* \"#utility.yul\":5362:5395   */\n      tag_279\n      jump\t// in\n    tag_402:\n        /* \"#utility.yul\":5272:5401   */\n      swap2\n      swap1\n      pop\n      jump\t// out\n        /* \"#utility.yul\":5407:5718   */\n    tag_281:\n        /* \"#utility.yul\":5484:5488   */\n      0x00\n        /* \"#utility.yul\":5574:5592   */\n      0xffffffffffffffff\n        /* \"#utility.yul\":5566:5572   */\n      dup3\n        /* \"#utility.yul\":5563:5593   */\n      gt\n        /* \"#utility.yul\":5560:5616   */\n      iszero\n      tag_404\n      jumpi\n        /* \"#utility.yul\":5596:5614   */\n      tag_405\n      tag_278\n      jump\t// in\n    tag_405:\n        /* \"#utility.yul\":5560:5616   */\n    tag_404:\n        /* \"#utility.yul\":5646:5650   */\n      0x20\n        /* \"#utility.yul\":5638:5644   */\n      dup3\n        /* \"#utility.yul\":5634:5651   */\n      mul\n        /* \"#utility.yul\":5626:5651   */\n      swap1\n      pop\n        /* \"#utility.yul\":5706:5710   */\n      0x20\n        /* \"#utility.yul\":5700:5704   */\n      dup2\n        /* \"#utility.yul\":5696:5711   */\n      add\n        /* \"#utility.yul\":5688:5711   */\n      swap1\n      pop\n        /* \"#utility.yul\":5407:5718   */\n      swap2\n      swap1\n      pop\n      jump\t// out\n        /* \"#utility.yul\":5724:5841   */\n    tag_282:\n        /* \"#utility.yul\":5833:5834   */\n      0x00\n        /* \"#utility.yul\":5830:5831   */\n      0x00\n        /* \"#utility.yul\":5823:5835   */\n      revert\n        /* \"#utility.yul\":5864:6574   */\n    tag_283:\n        /* \"#utility.yul\":5960:5965   */\n      0x00\n        /* \"#utility.yul\":5985:6066   */\n      tag_408\n        /* \"#utility.yul\":6001:6065   */\n      tag_409\n        /* \"#utility.yul\":6058:6064   */\n      dup5\n        /* \"#utility.yul\":6001:6065   */\n      tag_281\n      jump\t// in\n    tag_409:\n        /* \"#utility.yul\":5985:6066   */\n      tag_280\n      jump\t// in\n    tag_408:\n        /* \"#utility.yul\":5976:6066   */\n      swap1\n      pop\n        /* \"#utility.yul\":6086:6091   */\n      dup1\n        /* \"#utility.yul\":6115:6121   */\n      dup4\n        /* \"#utility.yul\":6108:6113   */\n      dup3\n        /* \"#utility.yul\":6101:6122   */\n      mstore\n        /* \"#utility.yul\":6149:6153   */\n      0x20\n        /* \"#utility.yul\":6142:6147   */\n      dup3\n        /* \"#utility.yul\":6138:6154   */\n      add\n        /* \"#utility.yul\":6131:6154   */\n      swap1\n      pop\n        /* \"#utility.yul\":6202:6206   */\n      0x20\n        /* \"#utility.yul\":6194:6200   */\n      dup5\n        /* \"#utility.yul\":6190:6207   */\n      mul\n        /* \"#utility.yul\":6182:6188   */\n      dup4\n        /* \"#utility.yul\":6178:6208   */\n      add\n        /* \"#utility.yul\":6231:6234   */\n      dup6\n        /* \"#utility.yul\":6223:6229   */\n      dup2\n        /* \"#utility.yul\":6220:6235   */\n      gt\n        /* \"#utility.yul\":6217:6339   */\n      iszero\n      tag_410\n      jumpi\n        /* \"#utility.yul\":6250:6329   */\n      tag_411\n      tag_282\n      jump\t// in\n    tag_411:\n        /* \"#utility.yul\":6217:6339   */\n    tag_410:\n        /* \"#utility.yul\":6365:6371   */\n      dup4\n        /* \"#utility.yul\":6348:6568   */\n    tag_412:\n        /* \"#utility.yul\":6382:6388   */\n      dup2\n        /* \"#utility.yul\":6377:6380   */\n      dup2\n        /* \"#utility.yul\":6374:6389   */\n      lt\n        /* \"#utility.yul\":6348:6568   */\n      iszero\n      tag_414\n      jumpi\n        /* \"#utility.yul\":6457:6460   */\n      dup1\n        /* \"#utility.yul\":6486:6523   */\n      tag_415\n        /* \"#utility.yul\":6519:6522   */\n      dup9\n        /* \"#utility.yul\":6507:6517   */\n      dup3\n        /* \"#utility.yul\":6486:6523   */\n      tag_275\n      jump\t// in\n    tag_415:\n        /* \"#utility.yul\":6481:6484   */\n      dup5\n        /* \"#utility.yul\":6474:6524   */\n      mstore\n        /* \"#utility.yul\":6553:6557   */\n      0x20\n        /* \"#utility.yul\":6548:6551   */\n      dup5\n        /* \"#utility.yul\":6544:6558   */\n      add\n        /* \"#utility.yul\":6537:6558   */\n      swap4\n      pop\n        /* \"#utility.yul\":6424:6568   */\n      pop\n        /* \"#utility.yul\":6408:6412   */\n      0x20\n        /* \"#utility.yul\":6403:6406   */\n      dup2\n        /* \"#utility.yul\":6399:6413   */\n      add\n        /* \"#utility.yul\":6392:6413   */\n      swap1\n      pop\n        /* \"#utility.yul\":6348:6568   */\n      jump(tag_412)\n    tag_414:\n        /* \"#utility.yul\":6352:6373   */\n      pop\n        /* \"#utility.yul\":5966:6574   */\n      pop\n      pop\n        /* \"#utility.yul\":5864:6574   */\n      swap4\n      swap3\n      pop\n      pop\n      pop\n      jump\t// out\n        /* \"#utility.yul\":6597:6967   */\n    tag_284:\n        /* \"#utility.yul\":6668:6673   */\n      0x00\n        /* \"#utility.yul\":6717:6720   */\n      dup3\n        /* \"#utility.yul\":6710:6714   */\n      0x1f\n        /* \"#utility.yul\":6702:6708   */\n      dup4\n        /* \"#utility.yul\":6698:6715   */\n      add\n        /* \"#utility.yul\":6694:6721   */\n      slt\n        /* \"#utility.yul\":6684:6806   */\n      tag_417\n      jumpi\n        /* \"#utility.yul\":6725:6804   */\n      tag_418\n      tag_276\n      jump\t// in\n    tag_418:\n        /* \"#utility.yul\":6684:6806   */\n    tag_417:\n        /* \"#utility.yul\":6842:6848   */\n      dup2\n        /* \"#utility.yul\":6829:6849   */\n      calldataload\n        /* \"#utility.yul\":6867:6961   */\n      tag_419\n        /* \"#utility.yul\":6957:6960   */\n      dup5\n        /* \"#utility.yul\":6949:6955   */\n      dup3\n        /* \"#utility.yul\":6942:6946   */\n      0x20\n        /* \"#utility.yul\":6934:6940   */\n      dup7\n        /* \"#utility.yul\":6930:6947   */\n      add\n        /* \"#utility.yul\":6867:6961   */\n      tag_283\n      jump\t// in\n    tag_419:\n        /* \"#utility.yul\":6858:6961   */\n      swap2\n      pop\n        /* \"#utility.yul\":6674:6967   */\n      pop\n        /* \"#utility.yul\":6597:6967   */\n      swap3\n      swap2\n      pop\n      pop\n      jump\t// out\n        /* \"#utility.yul\":6973:8240   */\n    tag_28:\n        /* \"#utility.yul\":7102:7108   */\n      0x00\n        /* \"#utility.yul\":7110:7116   */\n      0x00\n        /* \"#utility.yul\":7118:7124   */\n      0x00\n        /* \"#utility.yul\":7126:7132   */\n      0x00\n        /* \"#utility.yul\":7134:7140   */\n      0x00\n        /* \"#utility.yul\":7142:7148   */\n      0x00\n        /* \"#utility.yul\":7191:7194   */\n      0xc0\n        /* \"#utility.yul\":7179:7188   */\n      dup8\n        /* \"#utility.yul\":7170:7177   */\n      dup10\n        /* \"#utility.yul\":7166:7189   */\n      sub\n        /* \"#utility.yul\":7162:7195   */\n      slt\n        /* \"#utility.yul\":7159:7279   */\n      iszero\n      tag_421\n      jumpi\n        /* \"#utility.yul\":7198:7277   */\n      tag_422\n      tag_255\n      jump\t// in\n    tag_422:\n        /* \"#utility.yul\":7159:7279   */\n    tag_421:\n        /* \"#utility.yul\":7318:7319   */\n      0x00\n        /* \"#utility.yul\":7343:7396   */\n      tag_423\n        /* \"#utility.yul\":7388:7395   */\n      dup10\n        /* \"#utility.yul\":7379:7385   */\n      dup3\n        /* \"#utility.yul\":7368:7377   */\n      dup11\n        /* \"#utility.yul\":7364:7386   */\n      add\n        /* \"#utility.yul\":7343:7396   */\n      tag_263\n      jump\t// in\n    tag_423:\n        /* \"#utility.yul\":7333:7396   */\n      swap7\n      pop\n        /* \"#utility.yul\":7289:7406   */\n      pop\n        /* \"#utility.yul\":7445:7447   */\n      0x20\n        /* \"#utility.yul\":7471:7524   */\n      tag_424\n        /* \"#utility.yul\":7516:7523   */\n      dup10\n        /* \"#utility.yul\":7507:7513   */\n      dup3\n        /* \"#utility.yul\":7496:7505   */\n      dup11\n        /* \"#utility.yul\":7492:7514   */\n      add\n        /* \"#utility.yul\":7471:7524   */\n      tag_260\n      jump\t// in\n    tag_424:\n        /* \"#utility.yul\":7461:7524   */\n      swap6\n      pop\n        /* \"#utility.yul\":7416:7534   */\n      pop\n        /* \"#utility.yul\":7573:7575   */\n      0x40\n        /* \"#utility.yul\":7599:7652   */\n      tag_425\n        /* \"#utility.yul\":7644:7651   */\n      dup10\n        /* \"#utility.yul\":7635:7641   */\n      dup3\n        /* \"#utility.yul\":7624:7633   */\n      dup11\n        /* \"#utility.yul\":7620:7642   */\n      add\n        /* \"#utility.yul\":7599:7652   */\n      tag_260\n      jump\t// in\n    tag_425:\n        /* \"#utility.yul\":7589:7652   */\n      swap5\n      pop\n        /* \"#utility.yul\":7544:7662   */\n      pop\n        /* \"#utility.yul\":7701:7703   */\n      0x60\n        /* \"#utility.yul\":7727:7780   */\n      tag_426\n        /* \"#utility.yul\":7772:7779   */\n      dup10\n        /* \"#utility.yul\":7763:7769   */\n      dup3\n        /* \"#utility.yul\":7752:7761   */\n      dup11\n        /* \"#utility.yul\":7748:7770   */\n      add\n        /* \"#utility.yul\":7727:7780   */\n      tag_275\n      jump\t// in\n    tag_426:\n        /* \"#utility.yul\":7717:7780   */\n      swap4\n      pop\n        /* \"#utility.yul\":7672:7790   */\n      pop\n        /* \"#utility.yul\":7829:7832   */\n      0x80\n        /* \"#utility.yul\":7856:7909   */\n      tag_427\n        /* \"#utility.yul\":7901:7908   */\n      dup10\n        /* \"#utility.yul\":7892:7898   */\n      dup3\n        /* \"#utility.yul\":7881:7890   */\n      dup11\n        /* \"#utility.yul\":7877:7899   */\n      add\n        /* \"#utility.yul\":7856:7909   */\n      tag_275\n      jump\t// in\n    tag_427:\n        /* \"#utility.yul\":7846:7909   */\n      swap3\n      pop\n        /* \"#utility.yul\":7800:7919   */\n      pop\n        /* \"#utility.yul\":7986:7989   */\n      0xa0\n        /* \"#utility.yul\":7975:7984   */\n      dup8\n        /* \"#utility.yul\":7971:7990   */\n      add\n        /* \"#utility.yul\":7958:7991   */\n      calldataload\n        /* \"#utility.yul\":8018:8036   */\n      0xffffffffffffffff\n        /* \"#utility.yul\":8010:8016   */\n      dup2\n        /* \"#utility.yul\":8007:8037   */\n      gt\n        /* \"#utility.yul\":8004:8121   */\n      iszero\n      tag_428\n      jumpi\n        /* \"#utility.yul\":8040:8119   */\n      tag_429\n      tag_256\n      jump\t// in\n    tag_429:\n        /* \"#utility.yul\":8004:8121   */\n    tag_428:\n        /* \"#utility.yul\":8145:8223   */\n      tag_430\n        /* \"#utility.yul\":8215:8222   */\n      dup10\n        /* \"#utility.yul\":8206:8212   */\n      dup3\n        /* \"#utility.yul\":8195:8204   */\n      dup11\n        /* \"#utility.yul\":8191:8213   */\n      add\n        /* \"#utility.yul\":8145:8223   */\n      tag_284\n      jump\t// in\n    tag_430:\n        /* \"#utility.yul\":8135:8223   */\n      swap2\n      pop\n        /* \"#utility.yul\":7929:8233   */\n      pop\n        /* \"#utility.yul\":6973:8240   */\n      swap3\n      swap6\n      pop\n      swap3\n      swap6\n      pop\n      swap3\n      swap6\n      jump\t// out\n        /* \"#utility.yul\":8246:8360   */\n    tag_285:\n        /* \"#utility.yul\":8313:8319   */\n      0x00\n        /* \"#utility.yul\":8347:8352   */\n      dup2\n        /* \"#utility.yul\":8341:8353   */\n      mload\n        /* \"#utility.yul\":8331:8353   */\n      swap1\n      pop\n        /* \"#utility.yul\":8246:8360   */\n      swap2\n      swap1\n      pop\n      jump\t// out\n        /* \"#utility.yul\":8366:8550   */\n    tag_286:\n        /* \"#utility.yul\":8465:8476   */\n      0x00\n        /* \"#utility.yul\":8499:8505   */\n      dup3\n        /* \"#utility.yul\":8494:8497   */\n      dup3\n        /* \"#utility.yul\":8487:8506   */\n      mstore\n        /* \"#utility.yul\":8539:8543   */\n      0x20\n        /* \"#utility.yul\":8534:8537   */\n      dup3\n        /* \"#utility.yul\":8530:8544   */\n      add\n        /* \"#utility.yul\":8515:8544   */\n      swap1\n      pop\n        /* \"#utility.yul\":8366:8550   */\n      swap3\n      swap2\n      pop\n      pop\n      jump\t// out\n        /* \"#utility.yul\":8556:8688   */\n    tag_287:\n        /* \"#utility.yul\":8623:8627   */\n      0x00\n        /* \"#utility.yul\":8646:8649   */\n      dup2\n        /* \"#utility.yul\":8638:8649   */\n      swap1\n      pop\n        /* \"#utility.yul\":8676:8680   */\n      0x20\n        /* \"#utility.yul\":8671:8674   */\n      dup3\n        /* \"#utility.yul\":8667:8681   */\n      add\n        /* \"#utility.yul\":8659:8681   */\n      swap1\n      pop\n        /* \"#utility.yul\":8556:8688   */\n      swap2\n      swap1\n      pop\n      jump\t// out\n        /* \"#utility.yul\":8694:8802   */\n    tag_288:\n        /* \"#utility.yul\":8771:8795   */\n      tag_435\n        /* \"#utility.yul\":8789:8794   */\n      dup2\n        /* \"#utility.yul\":8771:8795   */\n      tag_270\n      jump\t// in\n    tag_435:\n        /* \"#utility.yul\":8766:8769   */\n      dup3\n        /* \"#utility.yul\":8759:8796   */\n      mstore\n        /* \"#utility.yul\":8694:8802   */\n      pop\n      pop\n      jump\t// out\n        /* \"#utility.yul\":8808:8987   */\n    tag_289:\n        /* \"#utility.yul\":8877:8887   */\n      0x00\n        /* \"#utility.yul\":8898:8944   */\n      tag_437\n        /* \"#utility.yul\":8940:8943   */\n      dup4\n        /* \"#utility.yul\":8932:8938   */\n      dup4\n        /* \"#utility.yul\":8898:8944   */\n      tag_288\n      jump\t// in\n    tag_437:\n        /* \"#utility.yul\":8976:8980   */\n      0x20\n        /* \"#utility.yul\":8971:8974   */\n      dup4\n        /* \"#utility.yul\":8967:8981   */\n      add\n        /* \"#utility.yul\":8953:8981   */\n      swap1\n      pop\n        /* \"#utility.yul\":8808:8987   */\n      swap3\n      swap2\n      pop\n      pop\n      jump\t// out\n        /* \"#utility.yul\":8993:9106   */\n    tag_290:\n        /* \"#utility.yul\":9063:9067   */\n      0x00\n        /* \"#utility.yul\":9095:9099   */\n      0x20\n        /* \"#utility.yul\":9090:9093   */\n      dup3\n        /* \"#utility.yul\":9086:9100   */\n      add\n        /* \"#utility.yul\":9078:9100   */\n      swap1\n      pop\n        /* \"#utility.yul\":8993:9106   */\n      swap2\n      swap1\n      pop\n      jump\t// out\n        /* \"#utility.yul\":9142:9874   */\n    tag_291:\n        /* \"#utility.yul\":9261:9264   */\n      0x00\n        /* \"#utility.yul\":9290:9344   */\n      tag_440\n        /* \"#utility.yul\":9338:9343   */\n      dup3\n        /* \"#utility.yul\":9290:9344   */\n      tag_285\n      jump\t// in\n    tag_440:\n        /* \"#utility.yul\":9360:9446   */\n      tag_441\n        /* \"#utility.yul\":9439:9445   */\n      dup2\n        /* \"#utility.yul\":9434:9437   */\n      dup6\n        /* \"#utility.yul\":9360:9446   */\n      tag_286\n      jump\t// in\n    tag_441:\n        /* \"#utility.yul\":9353:9446   */\n      swap4\n      pop\n        /* \"#utility.yul\":9470:9526   */\n      tag_442\n        /* \"#utility.yul\":9520:9525   */\n      dup4\n        /* \"#utility.yul\":9470:9526   */\n      tag_287\n      jump\t// in\n    tag_442:\n        /* \"#utility.yul\":9549:9556   */\n      dup1\n        /* \"#utility.yul\":9580:9581   */\n      0x00\n        /* \"#utility.yul\":9565:9849   */\n    tag_443:\n        /* \"#utility.yul\":9590:9596   */\n      dup4\n        /* \"#utility.yul\":9587:9588   */\n      dup2\n        /* \"#utility.yul\":9584:9597   */\n      lt\n        /* \"#utility.yul\":9565:9849   */\n      iszero\n      tag_445\n      jumpi\n        /* \"#utility.yul\":9666:9672   */\n      dup2\n        /* \"#utility.yul\":9660:9673   */\n      mload\n        /* \"#utility.yul\":9693:9756   */\n      tag_446\n        /* \"#utility.yul\":9752:9755   */\n      dup9\n        /* \"#utility.yul\":9737:9750   */\n      dup3\n        /* \"#utility.yul\":9693:9756   */\n      tag_289\n      jump\t// in\n    tag_446:\n        /* \"#utility.yul\":9686:9756   */\n      swap8\n      pop\n        /* \"#utility.yul\":9779:9839   */\n      tag_447\n        /* \"#utility.yul\":9832:9838   */\n      dup4\n        /* \"#utility.yul\":9779:9839   */\n      tag_290\n      jump\t// in\n    tag_447:\n        /* \"#utility.yul\":9769:9839   */\n      swap3\n      pop\n        /* \"#utility.yul\":9625:9849   */\n      pop\n        /* \"#utility.yul\":9612:9613   */\n      0x01\n        /* \"#utility.yul\":9609:9610   */\n      dup2\n        /* \"#utility.yul\":9605:9614   */\n      add\n        /* \"#utility.yul\":9600:9614   */\n      swap1\n      pop\n        /* \"#utility.yul\":9565:9849   */\n      jump(tag_443)\n    tag_445:\n        /* \"#utility.yul\":9569:9583   */\n      pop\n        /* \"#utility.yul\":9865:9868   */\n      dup6\n        /* \"#utility.yul\":9858:9868   */\n      swap4\n      pop\n        /* \"#utility.yul\":9266:9874   */\n      pop\n      pop\n      pop\n        /* \"#utility.yul\":9142:9874   */\n      swap3\n      swap2\n      pop\n      pop\n      jump\t// out\n        /* \"#utility.yul\":9880:10253   */\n    tag_34:\n        /* \"#utility.yul\":10023:10027   */\n      0x00\n        /* \"#utility.yul\":10061:10063   */\n      0x20\n        /* \"#utility.yul\":10050:10059   */\n      dup3\n        /* \"#utility.yul\":10046:10064   */\n      add\n        /* \"#utility.yul\":10038:10064   */\n      swap1\n      pop\n        /* \"#utility.yul\":10110:10119   */\n      dup2\n        /* \"#utility.yul\":10104:10108   */\n      dup2\n        /* \"#utility.yul\":10100:10120   */\n      sub\n        /* \"#utility.yul\":10096:10097   */\n      0x00\n        /* \"#utility.yul\":10085:10094   */\n      dup4\n        /* \"#utility.yul\":10081:10098   */\n      add\n        /* \"#utility.yul\":10074:10121   */\n      mstore\n        /* \"#utility.yul\":10138:10246   */\n      tag_449\n        /* \"#utility.yul\":10241:10245   */\n      dup2\n        /* \"#utility.yul\":10232:10238   */\n      dup5\n        /* \"#utility.yul\":10138:10246   */\n      tag_291\n      jump\t// in\n    tag_449:\n        /* \"#utility.yul\":10130:10246   */\n      swap1\n      pop\n        /* \"#utility.yul\":9880:10253   */\n      swap3\n      swap2\n      pop\n      pop\n      jump\t// out\n        /* \"#utility.yul\":10259:10481   */\n    tag_43:\n        /* \"#utility.yul\":10352:10356   */\n      0x00\n        /* \"#utility.yul\":10390:10392   */\n      0x20\n        /* \"#utility.yul\":10379:10388   */\n      dup3\n        /* \"#utility.yul\":10375:10393   */\n      add\n        /* \"#utility.yul\":10367:10393   */\n      swap1\n      pop\n        /* \"#utility.yul\":10403:10474   */\n      tag_451\n        /* \"#utility.yul\":10471:10472   */\n      0x00\n        /* \"#utility.yul\":10460:10469   */\n      dup4\n        /* \"#utility.yul\":10456:10473   */\n      add\n        /* \"#utility.yul\":10447:10453   */\n      dup5\n        /* \"#utility.yul\":10403:10474   */\n      tag_264\n      jump\t// in\n    tag_451:\n        /* \"#utility.yul\":10259:10481   */\n      swap3\n      swap2\n      pop\n      pop\n      jump\t// out\n        /* \"#utility.yul\":10487:10709   */\n    tag_48:\n        /* \"#utility.yul\":10580:10584   */\n      0x00\n        /* \"#utility.yul\":10618:10620   */\n      0x20\n        /* \"#utility.yul\":10607:10616   */\n      dup3\n        /* \"#utility.yul\":10603:10621   */\n      add\n        /* \"#utility.yul\":10595:10621   */\n      swap1\n      pop\n        /* \"#utility.yul\":10631:10702   */\n      tag_453\n        /* \"#utility.yul\":10699:10700   */\n      0x00\n        /* \"#utility.yul\":10688:10697   */\n      dup4\n        /* \"#utility.yul\":10684:10701   */\n      add\n        /* \"#utility.yul\":10675:10681   */\n      dup5\n        /* \"#utility.yul\":10631:10702   */\n      tag_271\n      jump\t// in\n    tag_453:\n        /* \"#utility.yul\":10487:10709   */\n      swap3\n      swap2\n      pop\n      pop\n      jump\t// out\n        /* \"#utility.yul\":10715:11910   */\n    tag_53:\n        /* \"#utility.yul\":11048:11052   */\n      0x00\n        /* \"#utility.yul\":11086:11089   */\n      0x0140\n        /* \"#utility.yul\":11075:11084   */\n      dup3\n        /* \"#utility.yul\":11071:11090   */\n      add\n        /* \"#utility.yul\":11063:11090   */\n      swap1\n      pop\n        /* \"#utility.yul\":11100:11171   */\n      tag_455\n        /* \"#utility.yul\":11168:11169   */\n      0x00\n        /* \"#utility.yul\":11157:11166   */\n      dup4\n        /* \"#utility.yul\":11153:11170   */\n      add\n        /* \"#utility.yul\":11144:11150   */\n      dup14\n        /* \"#utility.yul\":11100:11171   */\n      tag_264\n      jump\t// in\n    tag_455:\n        /* \"#utility.yul\":11181:11253   */\n      tag_456\n        /* \"#utility.yul\":11249:11251   */\n      0x20\n        /* \"#utility.yul\":11238:11247   */\n      dup4\n        /* \"#utility.yul\":11234:11252   */\n      add\n        /* \"#utility.yul\":11225:11231   */\n      dup13\n        /* \"#utility.yul\":11181:11253   */\n      tag_264\n      jump\t// in\n    tag_456:\n        /* \"#utility.yul\":11263:11335   */\n      tag_457\n        /* \"#utility.yul\":11331:11333   */\n      0x40\n        /* \"#utility.yul\":11320:11329   */\n      dup4\n        /* \"#utility.yul\":11316:11334   */\n      add\n        /* \"#utility.yul\":11307:11313   */\n      dup12\n        /* \"#utility.yul\":11263:11335   */\n      tag_264\n      jump\t// in\n    tag_457:\n        /* \"#utility.yul\":11345:11417   */\n      tag_458\n        /* \"#utility.yul\":11413:11415   */\n      0x60\n        /* \"#utility.yul\":11402:11411   */\n      dup4\n        /* \"#utility.yul\":11398:11416   */\n      add\n        /* \"#utility.yul\":11389:11395   */\n      dup11\n        /* \"#utility.yul\":11345:11417   */\n      tag_271\n      jump\t// in\n    tag_458:\n        /* \"#utility.yul\":11427:11500   */\n      tag_459\n        /* \"#utility.yul\":11495:11498   */\n      0x80\n        /* \"#utility.yul\":11484:11493   */\n      dup4\n        /* \"#utility.yul\":11480:11499   */\n      add\n        /* \"#utility.yul\":11471:11477   */\n      dup10\n        /* \"#utility.yul\":11427:11500   */\n      tag_271\n      jump\t// in\n    tag_459:\n        /* \"#utility.yul\":11510:11583   */\n      tag_460\n        /* \"#utility.yul\":11578:11581   */\n      0xa0\n        /* \"#utility.yul\":11567:11576   */\n      dup4\n        /* \"#utility.yul\":11563:11582   */\n      add\n        /* \"#utility.yul\":11554:11560   */\n      dup9\n        /* \"#utility.yul\":11510:11583   */\n      tag_271\n      jump\t// in\n    tag_460:\n        /* \"#utility.yul\":11593:11666   */\n      tag_461\n        /* \"#utility.yul\":11661:11664   */\n      0xc0\n        /* \"#utility.yul\":11650:11659   */\n      dup4\n        /* \"#utility.yul\":11646:11665   */\n      add\n        /* \"#utility.yul\":11637:11643   */\n      dup8\n        /* \"#utility.yul\":11593:11666   */\n      tag_271\n      jump\t// in\n    tag_461:\n        /* \"#utility.yul\":11676:11743   */\n      tag_462\n        /* \"#utility.yul\":11738:11741   */\n      0xe0\n        /* \"#utility.yul\":11727:11736   */\n      dup4\n        /* \"#utility.yul\":11723:11742   */\n      add\n        /* \"#utility.yul\":11714:11720   */\n      dup7\n        /* \"#utility.yul\":11676:11743   */\n      tag_273\n      jump\t// in\n    tag_462:\n        /* \"#utility.yul\":11753:11820   */\n      tag_463\n        /* \"#utility.yul\":11815:11818   */\n      0x0100\n        /* \"#utility.yul\":11804:11813   */\n      dup4\n        /* \"#utility.yul\":11800:11819   */\n      add\n        /* \"#utility.yul\":11791:11797   */\n      dup6\n        /* \"#utility.yul\":11753:11820   */\n      tag_273\n      jump\t// in\n    tag_463:\n        /* \"#utility.yul\":11830:11903   */\n      tag_464\n        /* \"#utility.yul\":11898:11901   */\n      0x0120\n        /* \"#utility.yul\":11887:11896   */\n      dup4\n        /* \"#utility.yul\":11883:11902   */\n      add\n        /* \"#utility.yul\":11874:11880   */\n      dup5\n        /* \"#utility.yul\":11830:11903   */\n      tag_271\n      jump\t// in\n    tag_464:\n        /* \"#utility.yul\":10715:11910   */\n      swap12\n      swap11\n      pop\n      pop\n      pop\n      pop\n      pop\n      pop\n      pop\n      pop\n      pop\n      pop\n      pop\n      jump\t// out\n        /* \"#utility.yul\":11916:12390   */\n    tag_60:\n        /* \"#utility.yul\":11984:11990   */\n      0x00\n        /* \"#utility.yul\":11992:11998   */\n      0x00\n        /* \"#utility.yul\":12041:12043   */\n      0x40\n        /* \"#utility.yul\":12029:12038   */\n      dup4\n        /* \"#utility.yul\":12020:12027   */\n      dup6\n        /* \"#utility.yul\":12016:12039   */\n      sub\n        /* \"#utility.yul\":12012:12044   */\n      slt\n        /* \"#utility.yul\":12009:12128   */\n      iszero\n      tag_466\n      jumpi\n        /* \"#utility.yul\":12047:12126   */\n      tag_467\n      tag_255\n      jump\t// in\n    tag_467:\n        /* \"#utility.yul\":12009:12128   */\n    tag_466:\n        /* \"#utility.yul\":12167:12168   */\n      0x00\n        /* \"#utility.yul\":12192:12245   */\n      tag_468\n        /* \"#utility.yul\":12237:12244   */\n      dup6\n        /* \"#utility.yul\":12228:12234   */\n      dup3\n        /* \"#utility.yul\":12217:12226   */\n      dup7\n        /* \"#utility.yul\":12213:12235   */\n      add\n        /* \"#utility.yul\":12192:12245   */\n      tag_263\n      jump\t// in\n    tag_468:\n        /* \"#utility.yul\":12182:12245   */\n      swap3\n      pop\n        /* \"#utility.yul\":12138:12255   */\n      pop\n        /* \"#utility.yul\":12294:12296   */\n      0x20\n        /* \"#utility.yul\":12320:12373   */\n      tag_469\n        /* \"#utility.yul\":12365:12372   */\n      dup6\n        /* \"#utility.yul\":12356:12362   */\n      dup3\n        /* \"#utility.yul\":12345:12354   */\n      dup7\n        /* \"#utility.yul\":12341:12363   */\n      add\n        /* \"#utility.yul\":12320:12373   */\n      tag_275\n      jump\t// in\n    tag_469:\n        /* \"#utility.yul\":12310:12373   */\n      swap2\n      pop\n        /* \"#utility.yul\":12265:12383   */\n      pop\n        /* \"#utility.yul\":11916:12390   */\n      swap3\n      pop\n      swap3\n      swap1\n      pop\n      jump\t// out\n        /* \"#utility.yul\":12396:12539   */\n    tag_292:\n        /* \"#utility.yul\":12453:12458   */\n      0x00\n        /* \"#utility.yul\":12484:12490   */\n      dup2\n        /* \"#utility.yul\":12478:12491   */\n      mload\n        /* \"#utility.yul\":12469:12491   */\n      swap1\n      pop\n        /* \"#utility.yul\":12500:12533   */\n      tag_471\n        /* \"#utility.yul\":12527:12532   */\n      dup2\n        /* \"#utility.yul\":12500:12533   */\n      tag_274\n      jump\t// in\n    tag_471:\n        /* \"#utility.yul\":12396:12539   */\n      swap3\n      swap2\n      pop\n      pop\n      jump\t// out\n        /* \"#utility.yul\":12545:12896   */\n    tag_73:\n        /* \"#utility.yul\":12615:12621   */\n      0x00\n        /* \"#utility.yul\":12664:12666   */\n      0x20\n        /* \"#utility.yul\":12652:12661   */\n      dup3\n        /* \"#utility.yul\":12643:12650   */\n      dup5\n        /* \"#utility.yul\":12639:12662   */\n      sub\n        /* \"#utility.yul\":12635:12667   */\n      slt\n        /* \"#utility.yul\":12632:12751   */\n      iszero\n      tag_473\n      jumpi\n        /* \"#utility.yul\":12670:12749   */\n      tag_474\n      tag_255\n      jump\t// in\n    tag_474:\n        /* \"#utility.yul\":12632:12751   */\n    tag_473:\n        /* \"#utility.yul\":12790:12791   */\n      0x00\n        /* \"#utility.yul\":12815:12879   */\n      tag_475\n        /* \"#utility.yul\":12871:12878   */\n      dup5\n        /* \"#utility.yul\":12862:12868   */\n      dup3\n        /* \"#utility.yul\":12851:12860   */\n      dup6\n        /* \"#utility.yul\":12847:12869   */\n      add\n        /* \"#utility.yul\":12815:12879   */\n      tag_292\n      jump\t// in\n    tag_475:\n        /* \"#utility.yul\":12805:12879   */\n      swap2\n      pop\n        /* \"#utility.yul\":12761:12889   */\n      pop\n        /* \"#utility.yul\":12545:12896   */\n      swap3\n      swap2\n      pop\n      pop\n      jump\t// out\n        /* \"#utility.yul\":12902:13071   */\n    tag_293:\n        /* \"#utility.yul\":12986:12997   */\n      0x00\n        /* \"#utility.yul\":13020:13026   */\n      dup3\n        /* \"#utility.yul\":13015:13018   */\n      dup3\n        /* \"#utility.yul\":13008:13027   */\n      mstore\n        /* \"#utility.yul\":13060:13064   */\n      0x20\n        /* \"#utility.yul\":13055:13058   */\n      dup3\n        /* \"#utility.yul\":13051:13065   */\n      add\n        /* \"#utility.yul\":13036:13065   */\n      swap1\n      pop\n        /* \"#utility.yul\":12902:13071   */\n      swap3\n      swap2\n      pop\n      pop\n      jump\t// out\n        /* \"#utility.yul\":13077:13250   */\n    tag_294:\n        /* \"#utility.yul\":13217:13242   */\n      0x53696e2073616c646f2070617261207265736361746172000000000000000000\n        /* \"#utility.yul\":13213:13214   */\n      0x00\n        /* \"#utility.yul\":13205:13211   */\n      dup3\n        /* \"#utility.yul\":13201:13215   */\n      add\n        /* \"#utility.yul\":13194:13243   */\n      mstore\n        /* \"#utility.yul\":13077:13250   */\n      pop\n      jump\t// out\n        /* \"#utility.yul\":13256:13622   */\n    tag_295:\n        /* \"#utility.yul\":13398:13401   */\n      0x00\n        /* \"#utility.yul\":13419:13486   */\n      tag_479\n        /* \"#utility.yul\":13483:13485   */\n      0x17\n        /* \"#utility.yul\":13478:13481   */\n      dup4\n        /* \"#utility.yul\":13419:13486   */\n      tag_293\n      jump\t// in\n    tag_479:\n        /* \"#utility.yul\":13412:13486   */\n      swap2\n      pop\n        /* \"#utility.yul\":13495:13588   */\n      tag_480\n        /* \"#utility.yul\":13584:13587   */\n      dup3\n        /* \"#utility.yul\":13495:13588   */\n      tag_294\n      jump\t// in\n    tag_480:\n        /* \"#utility.yul\":13613:13615   */\n      0x20\n        /* \"#utility.yul\":13608:13611   */\n      dup3\n        /* \"#utility.yul\":13604:13616   */\n      add\n        /* \"#utility.yul\":13597:13616   */\n      swap1\n      pop\n        /* \"#utility.yul\":13256:13622   */\n      swap2\n      swap1\n      pop\n      jump\t// out\n        /* \"#utility.yul\":13628:14047   */\n    tag_76:\n        /* \"#utility.yul\":13794:13798   */\n      0x00\n        /* \"#utility.yul\":13832:13834   */\n      0x20\n        /* \"#utility.yul\":13821:13830   */\n      dup3\n        /* \"#utility.yul\":13817:13835   */\n      add\n        /* \"#utility.yul\":13809:13835   */\n      swap1\n      pop\n        /* \"#utility.yul\":13881:13890   */\n      dup2\n        /* \"#utility.yul\":13875:13879   */\n      dup2\n        /* \"#utility.yul\":13871:13891   */\n      sub\n        /* \"#utility.yul\":13867:13868   */\n      0x00\n        /* \"#utility.yul\":13856:13865   */\n      dup4\n        /* \"#utility.yul\":13852:13869   */\n      add\n        /* \"#utility.yul\":13845:13892   */\n      mstore\n        /* \"#utility.yul\":13909:14040   */\n      tag_482\n        /* \"#utility.yul\":14035:14039   */\n      dup2\n        /* \"#utility.yul\":13909:14040   */\n      tag_295\n      jump\t// in\n    tag_482:\n        /* \"#utility.yul\":13901:14040   */\n      swap1\n      pop\n        /* \"#utility.yul\":13628:14047   */\n      swap2\n      swap1\n      pop\n      jump\t// out\n        /* \"#utility.yul\":14053:14215   */\n    tag_296:\n        /* \"#utility.yul\":14193:14207   */\n      0x4944207961206578697374650000000000000000000000000000000000000000\n        /* \"#utility.yul\":14189:14190   */\n      0x00\n        /* \"#utility.yul\":14181:14187   */\n      dup3\n        /* \"#utility.yul\":14177:14191   */\n      add\n        /* \"#utility.yul\":14170:14208   */\n      mstore\n        /* \"#utility.yul\":14053:14215   */\n      pop\n      jump\t// out\n        /* \"#utility.yul\":14221:14587   */\n    tag_297:\n        /* \"#utility.yul\":14363:14366   */\n      0x00\n        /* \"#utility.yul\":14384:14451   */\n      tag_485\n        /* \"#utility.yul\":14448:14450   */\n      0x0c\n        /* \"#utility.yul\":14443:14446   */\n      dup4\n        /* \"#utility.yul\":14384:14451   */\n      tag_293\n      jump\t// in\n    tag_485:\n        /* \"#utility.yul\":14377:14451   */\n      swap2\n      pop\n        /* \"#utility.yul\":14460:14553   */\n      tag_486\n        /* \"#utility.yul\":14549:14552   */\n      dup3\n        /* \"#utility.yul\":14460:14553   */\n      tag_296\n      jump\t// in\n    tag_486:\n        /* \"#utility.yul\":14578:14580   */\n      0x20\n        /* \"#utility.yul\":14573:14576   */\n      dup3\n        /* \"#utility.yul\":14569:14581   */\n      add\n        /* \"#utility.yul\":14562:14581   */\n      swap1\n      pop\n        /* \"#utility.yul\":14221:14587   */\n      swap2\n      swap1\n      pop\n      jump\t// out\n        /* \"#utility.yul\":14593:15012   */\n    tag_86:\n        /* \"#utility.yul\":14759:14763   */\n      0x00\n        /* \"#utility.yul\":14797:14799   */\n      0x20\n        /* \"#utility.yul\":14786:14795   */\n      dup3\n        /* \"#utility.yul\":14782:14800   */\n      add\n        /* \"#utility.yul\":14774:14800   */\n      swap1\n      pop\n        /* \"#utility.yul\":14846:14855   */\n      dup2\n        /* \"#utility.yul\":14840:14844   */\n      dup2\n        /* \"#utility.yul\":14836:14856   */\n      sub\n        /* \"#utility.yul\":14832:14833   */\n      0x00\n        /* \"#utility.yul\":14821:14830   */\n      dup4\n        /* \"#utility.yul\":14817:14834   */\n      add\n        /* \"#utility.yul\":14810:14857   */\n      mstore\n        /* \"#utility.yul\":14874:15005   */\n      tag_488\n        /* \"#utility.yul\":15000:15004   */\n      dup2\n        /* \"#utility.yul\":14874:15005   */\n      tag_297\n      jump\t// in\n    tag_488:\n        /* \"#utility.yul\":14866:15005   */\n      swap1\n      pop\n        /* \"#utility.yul\":14593:15012   */\n      swap2\n      swap1\n      pop\n      jump\t// out\n        /* \"#utility.yul\":15018:15188   */\n    tag_298:\n        /* \"#utility.yul\":15158:15180   */\n      0x507265737461746172696f20696e76616c69646f000000000000000000000000\n        /* \"#utility.yul\":15154:15155   */\n      0x00\n        /* \"#utility.yul\":15146:15152   */\n      dup3\n        /* \"#utility.yul\":15142:15156   */\n      add\n        /* \"#utility.yul\":15135:15181   */\n      mstore\n        /* \"#utility.yul\":15018:15188   */\n      pop\n      jump\t// out\n        /* \"#utility.yul\":15194:15560   */\n    tag_299:\n        /* \"#utility.yul\":15336:15339   */\n      0x00\n        /* \"#utility.yul\":15357:15424   */\n      tag_491\n        /* \"#utility.yul\":15421:15423   */\n      0x14\n        /* \"#utility.yul\":15416:15419   */\n      dup4\n        /* \"#utility.yul\":15357:15424   */\n      tag_293\n      jump\t// in\n    tag_491:\n        /* \"#utility.yul\":15350:15424   */\n      swap2\n      pop\n        /* \"#utility.yul\":15433:15526   */\n      tag_492\n        /* \"#utility.yul\":15522:15525   */\n      dup3\n        /* \"#utility.yul\":15433:15526   */\n      tag_298\n      jump\t// in\n    tag_492:\n        /* \"#utility.yul\":15551:15553   */\n      0x20\n        /* \"#utility.yul\":15546:15549   */\n      dup3\n        /* \"#utility.yul\":15542:15554   */\n      add\n        /* \"#utility.yul\":15535:15554   */\n      swap1\n      pop\n        /* \"#utility.yul\":15194:15560   */\n      swap2\n      swap1\n      pop\n      jump\t// out\n        /* \"#utility.yul\":15566:15985   */\n    tag_89:\n        /* \"#utility.yul\":15732:15736   */\n      0x00\n        /* \"#utility.yul\":15770:15772   */\n      0x20\n        /* \"#utility.yul\":15759:15768   */\n      dup3\n        /* \"#utility.yul\":15755:15773   */\n      add\n        /* \"#utility.yul\":15747:15773   */\n      swap1\n      pop\n        /* \"#utility.yul\":15819:15828   */\n      dup2\n        /* \"#utility.yul\":15813:15817   */\n      dup2\n        /* \"#utility.yul\":15809:15829   */\n      sub\n        /* \"#utility.yul\":15805:15806   */\n      0x00\n        /* \"#utility.yul\":15794:15803   */\n      dup4\n        /* \"#utility.yul\":15790:15807   */\n      add\n        /* \"#utility.yul\":15783:15830   */\n      mstore\n        /* \"#utility.yul\":15847:15978   */\n      tag_494\n        /* \"#utility.yul\":15973:15977   */\n      dup2\n        /* \"#utility.yul\":15847:15978   */\n      tag_299\n      jump\t// in\n    tag_494:\n        /* \"#utility.yul\":15839:15978   */\n      swap1\n      pop\n        /* \"#utility.yul\":15566:15985   */\n      swap2\n      swap1\n      pop\n      jump\t// out\n        /* \"#utility.yul\":15991:16163   */\n    tag_300:\n        /* \"#utility.yul\":16131:16155   */\n      0x5072696e636970616c206465626520736572203e203000000000000000000000\n        /* \"#utility.yul\":16127:16128   */\n      0x00\n        /* \"#utility.yul\":16119:16125   */\n      dup3\n        /* \"#utility.yul\":16115:16129   */\n      add\n        /* \"#utility.yul\":16108:16156   */\n      mstore\n        /* \"#utility.yul\":15991:16163   */\n      pop\n      jump\t// out\n        /* \"#utility.yul\":16169:16535   */\n    tag_301:\n        /* \"#utility.yul\":16311:16314   */\n      0x00\n        /* \"#utility.yul\":16332:16399   */\n      tag_497\n        /* \"#utility.yul\":16396:16398   */\n      0x16\n        /* \"#utility.yul\":16391:16394   */\n      dup4\n        /* \"#utility.yul\":16332:16399   */\n      tag_293\n      jump\t// in\n    tag_497:\n        /* \"#utility.yul\":16325:16399   */\n      swap2\n      pop\n        /* \"#utility.yul\":16408:16501   */\n      tag_498\n        /* \"#utility.yul\":16497:16500   */\n      dup3\n        /* \"#utility.yul\":16408:16501   */\n      tag_300\n      jump\t// in\n    tag_498:\n        /* \"#utility.yul\":16526:16528   */\n      0x20\n        /* \"#utility.yul\":16521:16524   */\n      dup3\n        /* \"#utility.yul\":16517:16529   */\n      add\n        /* \"#utility.yul\":16510:16529   */\n      swap1\n      pop\n        /* \"#utility.yul\":16169:16535   */\n      swap2\n      swap1\n      pop\n      jump\t// out\n        /* \"#utility.yul\":16541:16960   */\n    tag_92:\n        /* \"#utility.yul\":16707:16711   */\n      0x00\n        /* \"#utility.yul\":16745:16747   */\n      0x20\n        /* \"#utility.yul\":16734:16743   */\n      dup3\n        /* \"#utility.yul\":16730:16748   */\n      add\n        /* \"#utility.yul\":16722:16748   */\n      swap1\n      pop\n        /* \"#utility.yul\":16794:16803   */\n      dup2\n        /* \"#utility.yul\":16788:16792   */\n      dup2\n        /* \"#utility.yul\":16784:16804   */\n      sub\n        /* \"#utility.yul\":16780:16781   */\n      0x00\n        /* \"#utility.yul\":16769:16778   */\n      dup4\n        /* \"#utility.yul\":16765:16782   */\n      add\n        /* \"#utility.yul\":16758:16805   */\n      mstore\n        /* \"#utility.yul\":16822:16953   */\n      tag_500\n        /* \"#utility.yul\":16948:16952   */\n      dup2\n        /* \"#utility.yul\":16822:16953   */\n      tag_301\n      jump\t// in\n    tag_500:\n        /* \"#utility.yul\":16814:16953   */\n      swap1\n      pop\n        /* \"#utility.yul\":16541:16960   */\n      swap2\n      swap1\n      pop\n      jump\t// out\n        /* \"#utility.yul\":16966:17135   */\n    tag_302:\n        /* \"#utility.yul\":17106:17127   */\n      0x496e7465726573206d6178696d6f203130302500000000000000000000000000\n        /* \"#utility.yul\":17102:17103   */\n      0x00\n        /* \"#utility.yul\":17094:17100   */\n      dup3\n        /* \"#utility.yul\":17090:17104   */\n      add\n        /* \"#utility.yul\":17083:17128   */\n      mstore\n        /* \"#utility.yul\":16966:17135   */\n      pop\n      jump\t// out\n        /* \"#utility.yul\":17141:17507   */\n    tag_303:\n        /* \"#utility.yul\":17283:17286   */\n      0x00\n        /* \"#utility.yul\":17304:17371   */\n      tag_503\n        /* \"#utility.yul\":17368:17370   */\n      0x13\n        /* \"#utility.yul\":17363:17366   */\n      dup4\n        /* \"#utility.yul\":17304:17371   */\n      tag_293\n      jump\t// in\n    tag_503:\n        /* \"#utility.yul\":17297:17371   */\n      swap2\n      pop\n        /* \"#utility.yul\":17380:17473   */\n      tag_504\n        /* \"#utility.yul\":17469:17472   */\n      dup3\n        /* \"#utility.yul\":17380:17473   */\n      tag_302\n      jump\t// in\n    tag_504:\n        /* \"#utility.yul\":17498:17500   */\n      0x20\n        /* \"#utility.yul\":17493:17496   */\n      dup3\n        /* \"#utility.yul\":17489:17501   */\n      add\n        /* \"#utility.yul\":17482:17501   */\n      swap1\n      pop\n        /* \"#utility.yul\":17141:17507   */\n      swap2\n      swap1\n      pop\n      jump\t// out\n        /* \"#utility.yul\":17513:17932   */\n    tag_95:\n        /* \"#utility.yul\":17679:17683   */\n      0x00\n        /* \"#utility.yul\":17717:17719   */\n      0x20\n        /* \"#utility.yul\":17706:17715   */\n      dup3\n        /* \"#utility.yul\":17702:17720   */\n      add\n        /* \"#utility.yul\":17694:17720   */\n      swap1\n      pop\n        /* \"#utility.yul\":17766:17775   */\n      dup2\n        /* \"#utility.yul\":17760:17764   */\n      dup2\n        /* \"#utility.yul\":17756:17776   */\n      sub\n        /* \"#utility.yul\":17752:17753   */\n      0x00\n        /* \"#utility.yul\":17741:17750   */\n      dup4\n        /* \"#utility.yul\":17737:17754   */\n      add\n        /* \"#utility.yul\":17730:17777   */\n      mstore\n        /* \"#utility.yul\":17794:17925   */\n      tag_506\n        /* \"#utility.yul\":17920:17924   */\n      dup2\n        /* \"#utility.yul\":17794:17925   */\n      tag_303\n      jump\t// in\n    tag_506:\n        /* \"#utility.yul\":17786:17925   */\n      swap1\n      pop\n        /* \"#utility.yul\":17513:17932   */\n      swap2\n      swap1\n      pop\n      jump\t// out\n        /* \"#utility.yul\":17938:18104   */\n    tag_304:\n        /* \"#utility.yul\":18078:18096   */\n      0x43726f6e6f6772616d6120766163696f00000000000000000000000000000000\n        /* \"#utility.yul\":18074:18075   */\n      0x00\n        /* \"#utility.yul\":18066:18072   */\n      dup3\n        /* \"#utility.yul\":18062:18076   */\n      add\n        /* \"#utility.yul\":18055:18097   */\n      mstore\n        /* \"#utility.yul\":17938:18104   */\n      pop\n      jump\t// out\n        /* \"#utility.yul\":18110:18476   */\n    tag_305:\n        /* \"#utility.yul\":18252:18255   */\n      0x00\n        /* \"#utility.yul\":18273:18340   */\n      tag_509\n        /* \"#utility.yul\":18337:18339   */\n      0x10\n        /* \"#utility.yul\":18332:18335   */\n      dup4\n        /* \"#utility.yul\":18273:18340   */\n      tag_293\n      jump\t// in\n    tag_509:\n        /* \"#utility.yul\":18266:18340   */\n      swap2\n      pop\n        /* \"#utility.yul\":18349:18442   */\n      tag_510\n        /* \"#utility.yul\":18438:18441   */\n      dup3\n        /* \"#utility.yul\":18349:18442   */\n      tag_304\n      jump\t// in\n    tag_510:\n        /* \"#utility.yul\":18467:18469   */\n      0x20\n        /* \"#utility.yul\":18462:18465   */\n      dup3\n        /* \"#utility.yul\":18458:18470   */\n      add\n        /* \"#utility.yul\":18451:18470   */\n      swap1\n      pop\n        /* \"#utility.yul\":18110:18476   */\n      swap2\n      swap1\n      pop\n      jump\t// out\n        /* \"#utility.yul\":18482:18901   */\n    tag_98:\n        /* \"#utility.yul\":18648:18652   */\n      0x00\n        /* \"#utility.yul\":18686:18688   */\n      0x20\n        /* \"#utility.yul\":18675:18684   */\n      dup3\n        /* \"#utility.yul\":18671:18689   */\n      add\n        /* \"#utility.yul\":18663:18689   */\n      swap1\n      pop\n        /* \"#utility.yul\":18735:18744   */\n      dup2\n        /* \"#utility.yul\":18729:18733   */\n      dup2\n        /* \"#utility.yul\":18725:18745   */\n      sub\n        /* \"#utility.yul\":18721:18722   */\n      0x00\n        /* \"#utility.yul\":18710:18719   */\n      dup4\n        /* \"#utility.yul\":18706:18723   */\n      add\n        /* \"#utility.yul\":18699:18746   */\n      mstore\n        /* \"#utility.yul\":18763:18894   */\n      tag_512\n        /* \"#utility.yul\":18889:18893   */\n      dup2\n        /* \"#utility.yul\":18763:18894   */\n      tag_305\n      jump\t// in\n    tag_512:\n        /* \"#utility.yul\":18755:18894   */\n      swap1\n      pop\n        /* \"#utility.yul\":18482:18901   */\n      swap2\n      swap1\n      pop\n      jump\t// out\n        /* \"#utility.yul\":18907:19087   */\n    tag_104:\n        /* \"#utility.yul\":18955:19032   */\n      0x4e487b7100000000000000000000000000000000000000000000000000000000\n        /* \"#utility.yul\":18952:18953   */\n      0x00\n        /* \"#utility.yul\":18945:19033   */\n      mstore\n        /* \"#utility.yul\":19052:19056   */\n      0x32\n        /* \"#utility.yul\":19049:19050   */\n      0x04\n        /* \"#utility.yul\":19042:19057   */\n      mstore\n        /* \"#utility.yul\":19076:19080   */\n      0x24\n        /* \"#utility.yul\":19073:19074   */\n      0x00\n        /* \"#utility.yul\":19066:19081   */\n      revert\n        /* \"#utility.yul\":19093:19256   */\n    tag_306:\n        /* \"#utility.yul\":19233:19248   */\n      0x4665636861203c2061686f726100000000000000000000000000000000000000\n        /* \"#utility.yul\":19229:19230   */\n      0x00\n        /* \"#utility.yul\":19221:19227   */\n      dup3\n        /* \"#utility.yul\":19217:19231   */\n      add\n        /* \"#utility.yul\":19210:19249   */\n      mstore\n        /* \"#utility.yul\":19093:19256   */\n      pop\n      jump\t// out\n        /* \"#utility.yul\":19262:19628   */\n    tag_307:\n        /* \"#utility.yul\":19404:19407   */\n      0x00\n        /* \"#utility.yul\":19425:19492   */\n      tag_516\n        /* \"#utility.yul\":19489:19491   */\n      0x0d\n        /* \"#utility.yul\":19484:19487   */\n      dup4\n        /* \"#utility.yul\":19425:19492   */\n      tag_293\n      jump\t// in\n    tag_516:\n        /* \"#utility.yul\":19418:19492   */\n      swap2\n      pop\n        /* \"#utility.yul\":19501:19594   */\n      tag_517\n        /* \"#utility.yul\":19590:19593   */\n      dup3\n        /* \"#utility.yul\":19501:19594   */\n      tag_306\n      jump\t// in\n    tag_517:\n        /* \"#utility.yul\":19619:19621   */\n      0x20\n        /* \"#utility.yul\":19614:19617   */\n      dup3\n        /* \"#utility.yul\":19610:19622   */\n      add\n        /* \"#utility.yul\":19603:19622   */\n      swap1\n      pop\n        /* \"#utility.yul\":19262:19628   */\n      swap2\n      swap1\n      pop\n      jump\t// out\n        /* \"#utility.yul\":19634:20053   */\n    tag_107:\n        /* \"#utility.yul\":19800:19804   */\n      0x00\n        /* \"#utility.yul\":19838:19840   */\n      0x20\n        /* \"#utility.yul\":19827:19836   */\n      dup3\n        /* \"#utility.yul\":19823:19841   */\n      add\n        /* \"#utility.yul\":19815:19841   */\n      swap1\n      pop\n        /* \"#utility.yul\":19887:19896   */\n      dup2\n        /* \"#utility.yul\":19881:19885   */\n      dup2\n        /* \"#utility.yul\":19877:19897   */\n      sub\n        /* \"#utility.yul\":19873:19874   */\n      0x00\n        /* \"#utility.yul\":19862:19871   */\n      dup4\n        /* \"#utility.yul\":19858:19875   */\n      add\n        /* \"#utility.yul\":19851:19898   */\n      mstore\n        /* \"#utility.yul\":19915:20046   */\n      tag_519\n        /* \"#utility.yul\":20041:20045   */\n      dup2\n        /* \"#utility.yul\":19915:20046   */\n      tag_307\n      jump\t// in\n    tag_519:\n        /* \"#utility.yul\":19907:20046   */\n      swap1\n      pop\n        /* \"#utility.yul\":19634:20053   */\n      swap2\n      swap1\n      pop\n      jump\t// out\n        /* \"#utility.yul\":20059:20230   */\n    tag_308:\n        /* \"#utility.yul\":20199:20222   */\n      0x466563686173206e6f20617363656e64656e7465730000000000000000000000\n        /* \"#utility.yul\":20195:20196   */\n      0x00\n        /* \"#utility.yul\":20187:20193   */\n      dup3\n        /* \"#utility.yul\":20183:20197   */\n      add\n        /* \"#utility.yul\":20176:20223   */\n      mstore\n        /* \"#utility.yul\":20059:20230   */\n      pop\n      jump\t// out\n        /* \"#utility.yul\":20236:20602   */\n    tag_309:\n        /* \"#utility.yul\":20378:20381   */\n      0x00\n        /* \"#utility.yul\":20399:20466   */\n      tag_522\n        /* \"#utility.yul\":20463:20465   */\n      0x15\n        /* \"#utility.yul\":20458:20461   */\n      dup4\n        /* \"#utility.yul\":20399:20466   */\n      tag_293\n      jump\t// in\n    tag_522:\n        /* \"#utility.yul\":20392:20466   */\n      swap2\n      pop\n        /* \"#utility.yul\":20475:20568   */\n      tag_523\n        /* \"#utility.yul\":20564:20567   */\n      dup3\n        /* \"#utility.yul\":20475:20568   */\n      tag_308\n      jump\t// in\n    tag_523:\n        /* \"#utility.yul\":20593:20595   */\n      0x20\n        /* \"#utility.yul\":20588:20591   */\n      dup3\n        /* \"#utility.yul\":20584:20596   */\n      add\n        /* \"#utility.yul\":20577:20596   */\n      swap1\n      pop\n        /* \"#utility.yul\":20236:20602   */\n      swap2\n      swap1\n      pop\n      jump\t// out\n        /* \"#utility.yul\":20608:21027   */\n    tag_111:\n        /* \"#utility.yul\":20774:20778   */\n      0x00\n        /* \"#utility.yul\":20812:20814   */\n      0x20\n        /* \"#utility.yul\":20801:20810   */\n      dup3\n        /* \"#utility.yul\":20797:20815   */\n      add\n        /* \"#utility.yul\":20789:20815   */\n      swap1\n      pop\n        /* \"#utility.yul\":20861:20870   */\n      dup2\n        /* \"#utility.yul\":20855:20859   */\n      dup2\n        /* \"#utility.yul\":20851:20871   */\n      sub\n        /* \"#utility.yul\":20847:20848   */\n      0x00\n        /* \"#utility.yul\":20836:20845   */\n      dup4\n        /* \"#utility.yul\":20832:20849   */\n      add\n        /* \"#utility.yul\":20825:20872   */\n      mstore\n        /* \"#utility.yul\":20889:21020   */\n      tag_525\n        /* \"#utility.yul\":21015:21019   */\n      dup2\n        /* \"#utility.yul\":20889:21020   */\n      tag_309\n      jump\t// in\n    tag_525:\n        /* \"#utility.yul\":20881:21020   */\n      swap1\n      pop\n        /* \"#utility.yul\":20608:21027   */\n      swap2\n      swap1\n      pop\n      jump\t// out\n        /* \"#utility.yul\":21033:21213   */\n    tag_310:\n        /* \"#utility.yul\":21081:21158   */\n      0x4e487b7100000000000000000000000000000000000000000000000000000000\n        /* \"#utility.yul\":21078:21079   */\n      0x00\n        /* \"#utility.yul\":21071:21159   */\n      mstore\n        /* \"#utility.yul\":21178:21182   */\n      0x11\n        /* \"#utility.yul\":21175:21176   */\n      0x04\n        /* \"#utility.yul\":21168:21183   */\n      mstore\n        /* \"#utility.yul\":21202:21206   */\n      0x24\n        /* \"#utility.yul\":21199:21200   */\n      0x00\n        /* \"#utility.yul\":21192:21207   */\n      revert\n        /* \"#utility.yul\":21219:21629   */\n    tag_113:\n        /* \"#utility.yul\":21259:21266   */\n      0x00\n        /* \"#utility.yul\":21282:21302   */\n      tag_528\n        /* \"#utility.yul\":21300:21301   */\n      dup3\n        /* \"#utility.yul\":21282:21302   */\n      tag_270\n      jump\t// in\n    tag_528:\n        /* \"#utility.yul\":21277:21302   */\n      swap2\n      pop\n        /* \"#utility.yul\":21316:21336   */\n      tag_529\n        /* \"#utility.yul\":21334:21335   */\n      dup4\n        /* \"#utility.yul\":21316:21336   */\n      tag_270\n      jump\t// in\n    tag_529:\n        /* \"#utility.yul\":21311:21336   */\n      swap3\n      pop\n        /* \"#utility.yul\":21371:21372   */\n      dup3\n        /* \"#utility.yul\":21368:21369   */\n      dup3\n        /* \"#utility.yul\":21364:21373   */\n      mul\n        /* \"#utility.yul\":21393:21423   */\n      tag_530\n        /* \"#utility.yul\":21411:21422   */\n      dup2\n        /* \"#utility.yul\":21393:21423   */\n      tag_270\n      jump\t// in\n    tag_530:\n        /* \"#utility.yul\":21382:21423   */\n      swap2\n      pop\n        /* \"#utility.yul\":21572:21573   */\n      dup3\n        /* \"#utility.yul\":21563:21570   */\n      dup3\n        /* \"#utility.yul\":21559:21574   */\n      div\n        /* \"#utility.yul\":21556:21557   */\n      dup5\n        /* \"#utility.yul\":21553:21575   */\n      eq\n        /* \"#utility.yul\":21533:21534   */\n      dup4\n        /* \"#utility.yul\":21526:21535   */\n      iszero\n        /* \"#utility.yul\":21506:21589   */\n      or\n        /* \"#utility.yul\":21483:21622   */\n      tag_531\n      jumpi\n        /* \"#utility.yul\":21602:21620   */\n      tag_532\n      tag_310\n      jump\t// in\n    tag_532:\n        /* \"#utility.yul\":21483:21622   */\n    tag_531:\n        /* \"#utility.yul\":21267:21629   */\n      pop\n        /* \"#utility.yul\":21219:21629   */\n      swap3\n      swap2\n      pop\n      pop\n      jump\t// out\n        /* \"#utility.yul\":21635:21815   */\n    tag_311:\n        /* \"#utility.yul\":21683:21760   */\n      0x4e487b7100000000000000000000000000000000000000000000000000000000\n        /* \"#utility.yul\":21680:21681   */\n      0x00\n        /* \"#utility.yul\":21673:21761   */\n      mstore\n        /* \"#utility.yul\":21780:21784   */\n      0x12\n        /* \"#utility.yul\":21777:21778   */\n      0x04\n        /* \"#utility.yul\":21770:21785   */\n      mstore\n        /* \"#utility.yul\":21804:21808   */\n      0x24\n        /* \"#utility.yul\":21801:21802   */\n      0x00\n        /* \"#utility.yul\":21794:21809   */\n      revert\n        /* \"#utility.yul\":21821:22006   */\n    tag_115:\n        /* \"#utility.yul\":21861:21862   */\n      0x00\n        /* \"#utility.yul\":21878:21898   */\n      tag_535\n        /* \"#utility.yul\":21896:21897   */\n      dup3\n        /* \"#utility.yul\":21878:21898   */\n      tag_270\n      jump\t// in\n    tag_535:\n        /* \"#utility.yul\":21873:21898   */\n      swap2\n      pop\n        /* \"#utility.yul\":21912:21932   */\n      tag_536\n        /* \"#utility.yul\":21930:21931   */\n      dup4\n        /* \"#utility.yul\":21912:21932   */\n      tag_270\n      jump\t// in\n    tag_536:\n        /* \"#utility.yul\":21907:21932   */\n      swap3\n      pop\n        /* \"#utility.yul\":21951:21952   */\n      dup3\n        /* \"#utility.yul\":21941:21976   */\n      tag_537\n      jumpi\n        /* \"#utility.yul\":21956:21974   */\n      tag_538\n      tag_311\n      jump\t// in\n    tag_538:\n        /* \"#utility.yul\":21941:21976   */\n    tag_537:\n        /* \"#utility.yul\":21998:21999   */\n      dup3\n        /* \"#utility.yul\":21995:21996   */\n      dup3\n        /* \"#utility.yul\":21991:22000   */\n      div\n        /* \"#utility.yul\":21986:22000   */\n      swap1\n      pop\n        /* \"#utility.yul\":21821:22006   */\n      swap3\n      swap2\n      pop\n      pop\n      jump\t// out\n        /* \"#utility.yul\":22012:22203   */\n    tag_117:\n        /* \"#utility.yul\":22052:22055   */\n      0x00\n        /* \"#utility.yul\":22071:22091   */\n      tag_540\n        /* \"#utility.yul\":22089:22090   */\n      dup3\n        /* \"#utility.yul\":22071:22091   */\n      tag_270\n      jump\t// in\n    tag_540:\n        /* \"#utility.yul\":22066:22091   */\n      swap2\n      pop\n        /* \"#utility.yul\":22105:22125   */\n      tag_541\n        /* \"#utility.yul\":22123:22124   */\n      dup4\n        /* \"#utility.yul\":22105:22125   */\n      tag_270\n      jump\t// in\n    tag_541:\n        /* \"#utility.yul\":22100:22125   */\n      swap3\n      pop\n        /* \"#utility.yul\":22148:22149   */\n      dup3\n        /* \"#utility.yul\":22145:22146   */\n      dup3\n        /* \"#utility.yul\":22141:22150   */\n      add\n        /* \"#utility.yul\":22134:22150   */\n      swap1\n      pop\n        /* \"#utility.yul\":22169:22172   */\n      dup1\n        /* \"#utility.yul\":22166:22167   */\n      dup3\n        /* \"#utility.yul\":22163:22173   */\n      gt\n        /* \"#utility.yul\":22160:22196   */\n      iszero\n      tag_542\n      jumpi\n        /* \"#utility.yul\":22176:22194   */\n      tag_543\n      tag_310\n      jump\t// in\n    tag_543:\n        /* \"#utility.yul\":22160:22196   */\n    tag_542:\n        /* \"#utility.yul\":22012:22203   */\n      swap3\n      swap2\n      pop\n      pop\n      jump\t// out\n        /* \"#utility.yul\":22209:23024   */\n    tag_121:\n        /* \"#utility.yul\":22464:22468   */\n      0x00\n        /* \"#utility.yul\":22502:22505   */\n      0xa0\n        /* \"#utility.yul\":22491:22500   */\n      dup3\n        /* \"#utility.yul\":22487:22506   */\n      add\n        /* \"#utility.yul\":22479:22506   */\n      swap1\n      pop\n        /* \"#utility.yul\":22516:22587   */\n      tag_545\n        /* \"#utility.yul\":22584:22585   */\n      0x00\n        /* \"#utility.yul\":22573:22582   */\n      dup4\n        /* \"#utility.yul\":22569:22586   */\n      add\n        /* \"#utility.yul\":22560:22566   */\n      dup9\n        /* \"#utility.yul\":22516:22587   */\n      tag_264\n      jump\t// in\n    tag_545:\n        /* \"#utility.yul\":22597:22669   */\n      tag_546\n        /* \"#utility.yul\":22665:22667   */\n      0x20\n        /* \"#utility.yul\":22654:22663   */\n      dup4\n        /* \"#utility.yul\":22650:22668   */\n      add\n        /* \"#utility.yul\":22641:22647   */\n      dup8\n        /* \"#utility.yul\":22597:22669   */\n      tag_271\n      jump\t// in\n    tag_546:\n        /* \"#utility.yul\":22679:22751   */\n      tag_547\n        /* \"#utility.yul\":22747:22749   */\n      0x40\n        /* \"#utility.yul\":22736:22745   */\n      dup4\n        /* \"#utility.yul\":22732:22750   */\n      add\n        /* \"#utility.yul\":22723:22729   */\n      dup7\n        /* \"#utility.yul\":22679:22751   */\n      tag_271\n      jump\t// in\n    tag_547:\n        /* \"#utility.yul\":22761:22833   */\n      tag_548\n        /* \"#utility.yul\":22829:22831   */\n      0x60\n        /* \"#utility.yul\":22818:22827   */\n      dup4\n        /* \"#utility.yul\":22814:22832   */\n      add\n        /* \"#utility.yul\":22805:22811   */\n      dup6\n        /* \"#utility.yul\":22761:22833   */\n      tag_271\n      jump\t// in\n    tag_548:\n        /* \"#utility.yul\":22881:22890   */\n      dup2\n        /* \"#utility.yul\":22875:22879   */\n      dup2\n        /* \"#utility.yul\":22871:22891   */\n      sub\n        /* \"#utility.yul\":22865:22868   */\n      0x80\n        /* \"#utility.yul\":22854:22863   */\n      dup4\n        /* \"#utility.yul\":22850:22869   */\n      add\n        /* \"#utility.yul\":22843:22892   */\n      mstore\n        /* \"#utility.yul\":22909:23017   */\n      tag_549\n        /* \"#utility.yul\":23012:23016   */\n      dup2\n        /* \"#utility.yul\":23003:23009   */\n      dup5\n        /* \"#utility.yul\":22909:23017   */\n      tag_291\n      jump\t// in\n    tag_549:\n        /* \"#utility.yul\":22901:23017   */\n      swap1\n      pop\n        /* \"#utility.yul\":22209:23024   */\n      swap7\n      swap6\n      pop\n      pop\n      pop\n      pop\n      pop\n      pop\n      jump\t// out\n        /* \"#utility.yul\":23030:23198   */\n    tag_312:\n        /* \"#utility.yul\":23170:23190   */\n      0x5072657374616d6f206e6f206578697374650000000000000000000000000000\n        /* \"#utility.yul\":23166:23167   */\n      0x00\n        /* \"#utility.yul\":23158:23164   */\n      dup3\n        /* \"#utility.yul\":23154:23168   */\n      add\n        /* \"#utility.yul\":23147:23191   */\n      mstore\n        /* \"#utility.yul\":23030:23198   */\n      pop\n      jump\t// out\n        /* \"#utility.yul\":23204:23570   */\n    tag_313:\n        /* \"#utility.yul\":23346:23349   */\n      0x00\n        /* \"#utility.yul\":23367:23434   */\n      tag_552\n        /* \"#utility.yul\":23431:23433   */\n      0x12\n        /* \"#utility.yul\":23426:23429   */\n      dup4\n        /* \"#utility.yul\":23367:23434   */\n      tag_293\n      jump\t// in\n    tag_552:\n        /* \"#utility.yul\":23360:23434   */\n      swap2\n      pop\n        /* \"#utility.yul\":23443:23536   */\n      tag_553\n        /* \"#utility.yul\":23532:23535   */\n      dup3\n        /* \"#utility.yul\":23443:23536   */\n      tag_312\n      jump\t// in\n    tag_553:\n        /* \"#utility.yul\":23561:23563   */\n      0x20\n        /* \"#utility.yul\":23556:23559   */\n      dup3\n        /* \"#utility.yul\":23552:23564   */\n      add\n        /* \"#utility.yul\":23545:23564   */\n      swap1\n      pop\n        /* \"#utility.yul\":23204:23570   */\n      swap2\n      swap1\n      pop\n      jump\t// out\n        /* \"#utility.yul\":23576:23995   */\n    tag_132:\n        /* \"#utility.yul\":23742:23746   */\n      0x00\n        /* \"#utility.yul\":23780:23782   */\n      0x20\n        /* \"#utility.yul\":23769:23778   */\n      dup3\n        /* \"#utility.yul\":23765:23783   */\n      add\n        /* \"#utility.yul\":23757:23783   */\n      swap1\n      pop\n        /* \"#utility.yul\":23829:23838   */\n      dup2\n        /* \"#utility.yul\":23823:23827   */\n      dup2\n        /* \"#utility.yul\":23819:23839   */\n      sub\n        /* \"#utility.yul\":23815:23816   */\n      0x00\n        /* \"#utility.yul\":23804:23813   */\n      dup4\n        /* \"#utility.yul\":23800:23817   */\n      add\n        /* \"#utility.yul\":23793:23840   */\n      mstore\n        /* \"#utility.yul\":23857:23988   */\n      tag_555\n        /* \"#utility.yul\":23983:23987   */\n      dup2\n        /* \"#utility.yul\":23857:23988   */\n      tag_313\n      jump\t// in\n    tag_555:\n        /* \"#utility.yul\":23849:23988   */\n      swap1\n      pop\n        /* \"#utility.yul\":23576:23995   */\n      swap2\n      swap1\n      pop\n      jump\t// out\n        /* \"#utility.yul\":24001:24162   */\n    tag_314:\n        /* \"#utility.yul\":24141:24154   */\n      0x536f6c6f206c656e646572000000000000000000000000000000000000000000\n        /* \"#utility.yul\":24137:24138   */\n      0x00\n        /* \"#utility.yul\":24129:24135   */\n      dup3\n        /* \"#utility.yul\":24125:24139   */\n      add\n        /* \"#utility.yul\":24118:24155   */\n      mstore\n        /* \"#utility.yul\":24001:24162   */\n      pop\n      jump\t// out\n        /* \"#utility.yul\":24168:24534   */\n    tag_315:\n        /* \"#utility.yul\":24310:24313   */\n      0x00\n        /* \"#utility.yul\":24331:24398   */\n      tag_558\n        /* \"#utility.yul\":24395:24397   */\n      0x0b\n        /* \"#utility.yul\":24390:24393   */\n      dup4\n        /* \"#utility.yul\":24331:24398   */\n      tag_293\n      jump\t// in\n    tag_558:\n        /* \"#utility.yul\":24324:24398   */\n      swap2\n      pop\n        /* \"#utility.yul\":24407:24500   */\n      tag_559\n        /* \"#utility.yul\":24496:24499   */\n      dup3\n        /* \"#utility.yul\":24407:24500   */\n      tag_314\n      jump\t// in\n    tag_559:\n        /* \"#utility.yul\":24525:24527   */\n      0x20\n        /* \"#utility.yul\":24520:24523   */\n      dup3\n        /* \"#utility.yul\":24516:24528   */\n      add\n        /* \"#utility.yul\":24509:24528   */\n      swap1\n      pop\n        /* \"#utility.yul\":24168:24534   */\n      swap2\n      swap1\n      pop\n      jump\t// out\n        /* \"#utility.yul\":24540:24959   */\n    tag_135:\n        /* \"#utility.yul\":24706:24710   */\n      0x00\n        /* \"#utility.yul\":24744:24746   */\n      0x20\n        /* \"#utility.yul\":24733:24742   */\n      dup3\n        /* \"#utility.yul\":24729:24747   */\n      add\n        /* \"#utility.yul\":24721:24747   */\n      swap1\n      pop\n        /* \"#utility.yul\":24793:24802   */\n      dup2\n        /* \"#utility.yul\":24787:24791   */\n      dup2\n        /* \"#utility.yul\":24783:24803   */\n      sub\n        /* \"#utility.yul\":24779:24780   */\n      0x00\n        /* \"#utility.yul\":24768:24777   */\n      dup4\n        /* \"#utility.yul\":24764:24781   */\n      add\n        /* \"#utility.yul\":24757:24804   */\n      mstore\n        /* \"#utility.yul\":24821:24952   */\n      tag_561\n        /* \"#utility.yul\":24947:24951   */\n      dup2\n        /* \"#utility.yul\":24821:24952   */\n      tag_315\n      jump\t// in\n    tag_561:\n        /* \"#utility.yul\":24813:24952   */\n      swap1\n      pop\n        /* \"#utility.yul\":24540:24959   */\n      swap2\n      swap1\n      pop\n      jump\t// out\n        /* \"#utility.yul\":24965:25132   */\n    tag_316:\n        /* \"#utility.yul\":25105:25124   */\n      0x5961206675652066696e616e636961646f000000000000000000000000000000\n        /* \"#utility.yul\":25101:25102   */\n      0x00\n        /* \"#utility.yul\":25093:25099   */\n      dup3\n        /* \"#utility.yul\":25089:25103   */\n      add\n        /* \"#utility.yul\":25082:25125   */\n      mstore\n        /* \"#utility.yul\":24965:25132   */\n      pop\n      jump\t// out\n        /* \"#utility.yul\":25138:25504   */\n    tag_317:\n        /* \"#utility.yul\":25280:25283   */\n      0x00\n        /* \"#utility.yul\":25301:25368   */\n      tag_564\n        /* \"#utility.yul\":25365:25367   */\n      0x11\n        /* \"#utility.yul\":25360:25363   */\n      dup4\n        /* \"#utility.yul\":25301:25368   */\n      tag_293\n      jump\t// in\n    tag_564:\n        /* \"#utility.yul\":25294:25368   */\n      swap2\n      pop\n        /* \"#utility.yul\":25377:25470   */\n      tag_565\n        /* \"#utility.yul\":25466:25469   */\n      dup3\n        /* \"#utility.yul\":25377:25470   */\n      tag_316\n      jump\t// in\n    tag_565:\n        /* \"#utility.yul\":25495:25497   */\n      0x20\n        /* \"#utility.yul\":25490:25493   */\n      dup3\n        /* \"#utility.yul\":25486:25498   */\n      add\n        /* \"#utility.yul\":25479:25498   */\n      swap1\n      pop\n        /* \"#utility.yul\":25138:25504   */\n      swap2\n      swap1\n      pop\n      jump\t// out\n        /* \"#utility.yul\":25510:25929   */\n    tag_138:\n        /* \"#utility.yul\":25676:25680   */\n      0x00\n        /* \"#utility.yul\":25714:25716   */\n      0x20\n        /* \"#utility.yul\":25703:25712   */\n      dup3\n        /* \"#utility.yul\":25699:25717   */\n      add\n        /* \"#utility.yul\":25691:25717   */\n      swap1\n      pop\n        /* \"#utility.yul\":25763:25772   */\n      dup2\n        /* \"#utility.yul\":25757:25761   */\n      dup2\n        /* \"#utility.yul\":25753:25773   */\n      sub\n        /* \"#utility.yul\":25749:25750   */\n      0x00\n        /* \"#utility.yul\":25738:25747   */\n      dup4\n        /* \"#utility.yul\":25734:25751   */\n      add\n        /* \"#utility.yul\":25727:25774   */\n      mstore\n        /* \"#utility.yul\":25791:25922   */\n      tag_567\n        /* \"#utility.yul\":25917:25921   */\n      dup2\n        /* \"#utility.yul\":25791:25922   */\n      tag_317\n      jump\t// in\n    tag_567:\n        /* \"#utility.yul\":25783:25922   */\n      swap1\n      pop\n        /* \"#utility.yul\":25510:25929   */\n      swap2\n      swap1\n      pop\n      jump\t// out\n        /* \"#utility.yul\":25935:26129   */\n    tag_152:\n        /* \"#utility.yul\":25975:25979   */\n      0x00\n        /* \"#utility.yul\":25995:26015   */\n      tag_569\n        /* \"#utility.yul\":26013:26014   */\n      dup3\n        /* \"#utility.yul\":25995:26015   */\n      tag_270\n      jump\t// in\n    tag_569:\n        /* \"#utility.yul\":25990:26015   */\n      swap2\n      pop\n        /* \"#utility.yul\":26029:26049   */\n      tag_570\n        /* \"#utility.yul\":26047:26048   */\n      dup4\n        /* \"#utility.yul\":26029:26049   */\n      tag_270\n      jump\t// in\n    tag_570:\n        /* \"#utility.yul\":26024:26049   */\n      swap3\n      pop\n        /* \"#utility.yul\":26073:26074   */\n      dup3\n        /* \"#utility.yul\":26070:26071   */\n      dup3\n        /* \"#utility.yul\":26066:26075   */\n      sub\n        /* \"#utility.yul\":26058:26075   */\n      swap1\n      pop\n        /* \"#utility.yul\":26097:26098   */\n      dup2\n        /* \"#utility.yul\":26091:26095   */\n      dup2\n        /* \"#utility.yul\":26088:26099   */\n      gt\n        /* \"#utility.yul\":26085:26122   */\n      iszero\n      tag_571\n      jumpi\n        /* \"#utility.yul\":26102:26120   */\n      tag_572\n      tag_310\n      jump\t// in\n    tag_572:\n        /* \"#utility.yul\":26085:26122   */\n    tag_571:\n        /* \"#utility.yul\":25935:26129   */\n      swap3\n      swap2\n      pop\n      pop\n      jump\t// out\n        /* \"#utility.yul\":26135:26368   */\n    tag_168:\n        /* \"#utility.yul\":26174:26177   */\n      0x00\n        /* \"#utility.yul\":26197:26221   */\n      tag_574\n        /* \"#utility.yul\":26215:26220   */\n      dup3\n        /* \"#utility.yul\":26197:26221   */\n      tag_270\n      jump\t// in\n    tag_574:\n        /* \"#utility.yul\":26188:26221   */\n      swap2\n      pop\n        /* \"#utility.yul\":26243:26309   */\n      0xffffffffffffffffffffffffffffffffffffffffffffffffffffffffffffffff\n        /* \"#utility.yul\":26236:26241   */\n      dup3\n        /* \"#utility.yul\":26233:26310   */\n      sub\n        /* \"#utility.yul\":26230:26333   */\n      tag_575\n      jumpi\n        /* \"#utility.yul\":26313:26331   */\n      tag_576\n      tag_310\n      jump\t// in\n    tag_576:\n        /* \"#utility.yul\":26230:26333   */\n    tag_575:\n        /* \"#utility.yul\":26360:26361   */\n      0x01\n        /* \"#utility.yul\":26353:26358   */\n      dup3\n        /* \"#utility.yul\":26349:26362   */\n      add\n        /* \"#utility.yul\":26342:26362   */\n      swap1\n      pop\n        /* \"#utility.yul\":26135:26368   */\n      swap2\n      swap1\n      pop\n      jump\t// out\n        /* \"#utility.yul\":26374:26541   */\n    tag_318:\n        /* \"#utility.yul\":26514:26533   */\n      0x4e6f2066696e616e636961646f2061756e000000000000000000000000000000\n        /* \"#utility.yul\":26510:26511   */\n      0x00\n        /* \"#utility.yul\":26502:26508   */\n      dup3\n        /* \"#utility.yul\":26498:26512   */\n      add\n        /* \"#utility.yul\":26491:26534   */\n      mstore\n        /* \"#utility.yul\":26374:26541   */\n      pop\n      jump\t// out\n        /* \"#utility.yul\":26547:26913   */\n    tag_319:\n        /* \"#utility.yul\":26689:26692   */\n      0x00\n        /* \"#utility.yul\":26710:26777   */\n      tag_579\n        /* \"#utility.yul\":26774:26776   */\n      0x11\n        /* \"#utility.yul\":26769:26772   */\n      dup4\n        /* \"#utility.yul\":26710:26777   */\n      tag_293\n      jump\t// in\n    tag_579:\n        /* \"#utility.yul\":26703:26777   */\n      swap2\n      pop\n        /* \"#utility.yul\":26786:26879   */\n      tag_580\n        /* \"#utility.yul\":26875:26878   */\n      dup3\n        /* \"#utility.yul\":26786:26879   */\n      tag_318\n      jump\t// in\n    tag_580:\n        /* \"#utility.yul\":26904:26906   */\n      0x20\n        /* \"#utility.yul\":26899:26902   */\n      dup3\n        /* \"#utility.yul\":26895:26907   */\n      add\n        /* \"#utility.yul\":26888:26907   */\n      swap1\n      pop\n        /* \"#utility.yul\":26547:26913   */\n      swap2\n      swap1\n      pop\n      jump\t// out\n        /* \"#utility.yul\":26919:27338   */\n    tag_176:\n        /* \"#utility.yul\":27085:27089   */\n      0x00\n        /* \"#utility.yul\":27123:27125   */\n      0x20\n        /* \"#utility.yul\":27112:27121   */\n      dup3\n        /* \"#utility.yul\":27108:27126   */\n      add\n        /* \"#utility.yul\":27100:27126   */\n      swap1\n      pop\n        /* \"#utility.yul\":27172:27181   */\n      dup2\n        /* \"#utility.yul\":27166:27170   */\n      dup2\n        /* \"#utility.yul\":27162:27182   */\n      sub\n        /* \"#utility.yul\":27158:27159   */\n      0x00\n        /* \"#utility.yul\":27147:27156   */\n      dup4\n        /* \"#utility.yul\":27143:27160   */\n      add\n        /* \"#utility.yul\":27136:27183   */\n      mstore\n        /* \"#utility.yul\":27200:27331   */\n      tag_582\n        /* \"#utility.yul\":27326:27330   */\n      dup2\n        /* \"#utility.yul\":27200:27331   */\n      tag_319\n      jump\t// in\n    tag_582:\n        /* \"#utility.yul\":27192:27331   */\n      swap1\n      pop\n        /* \"#utility.yul\":26919:27338   */\n      swap2\n      swap1\n      pop\n      jump\t// out\n        /* \"#utility.yul\":27344:27506   */\n    tag_320:\n        /* \"#utility.yul\":27484:27498   */\n      0x5961206c697175696461646f0000000000000000000000000000000000000000\n        /* \"#utility.yul\":27480:27481   */\n      0x00\n        /* \"#utility.yul\":27472:27478   */\n      dup3\n        /* \"#utility.yul\":27468:27482   */\n      add\n        /* \"#utility.yul\":27461:27499   */\n      mstore\n        /* \"#utility.yul\":27344:27506   */\n      pop\n      jump\t// out\n        /* \"#utility.yul\":27512:27878   */\n    tag_321:\n        /* \"#utility.yul\":27654:27657   */\n      0x00\n        /* \"#utility.yul\":27675:27742   */\n      tag_585\n        /* \"#utility.yul\":27739:27741   */\n      0x0c\n        /* \"#utility.yul\":27734:27737   */\n      dup4\n        /* \"#utility.yul\":27675:27742   */\n      tag_293\n      jump\t// in\n    tag_585:\n        /* \"#utility.yul\":27668:27742   */\n      swap2\n      pop\n        /* \"#utility.yul\":27751:27844   */\n      tag_586\n        /* \"#utility.yul\":27840:27843   */\n      dup3\n        /* \"#utility.yul\":27751:27844   */\n      tag_320\n      jump\t// in\n    tag_586:\n        /* \"#utility.yul\":27869:27871   */\n      0x20\n        /* \"#utility.yul\":27864:27867   */\n      dup3\n        /* \"#utility.yul\":27860:27872   */\n      add\n        /* \"#utility.yul\":27853:27872   */\n      swap1\n      pop\n        /* \"#utility.yul\":27512:27878   */\n      swap2\n      swap1\n      pop\n      jump\t// out\n        /* \"#utility.yul\":27884:28303   */\n    tag_179:\n        /* \"#utility.yul\":28050:28054   */\n      0x00\n        /* \"#utility.yul\":28088:28090   */\n      0x20\n        /* \"#utility.yul\":28077:28086   */\n      dup3\n        /* \"#utility.yul\":28073:28091   */\n      add\n        /* \"#utility.yul\":28065:28091   */\n      swap1\n      pop\n        /* \"#utility.yul\":28137:28146   */\n      dup2\n        /* \"#utility.yul\":28131:28135   */\n      dup2\n        /* \"#utility.yul\":28127:28147   */\n      sub\n        /* \"#utility.yul\":28123:28124   */\n      0x00\n        /* \"#utility.yul\":28112:28121   */\n      dup4\n        /* \"#utility.yul\":28108:28125   */\n      add\n        /* \"#utility.yul\":28101:28148   */\n      mstore\n        /* \"#utility.yul\":28165:28296   */\n      tag_588\n        /* \"#utility.yul\":28291:28295   */\n      dup2\n        /* \"#utility.yul\":28165:28296   */\n      tag_321\n      jump\t// in\n    tag_588:\n        /* \"#utility.yul\":28157:28296   */\n      swap1\n      pop\n        /* \"#utility.yul\":27884:28303   */\n      swap2\n      swap1\n      pop\n      jump\t// out\n        /* \"#utility.yul\":28309:28472   */\n    tag_322:\n        /* \"#utility.yul\":28449:28464   */\n      0x536f6c6f20626f72726f77657200000000000000000000000000000000000000\n        /* \"#utility.yul\":28445:28446   */\n      0x00\n        /* \"#utility.yul\":28437:28443   */\n      dup3\n        /* \"#utility.yul\":28433:28447   */\n      add\n        /* \"#utility.yul\":28426:28465   */\n      mstore\n        /* \"#utility.yul\":28309:28472   */\n      pop\n      jump\t// out\n        /* \"#utility.yul\":28478:28844   */\n    tag_323:\n        /* \"#utility.yul\":28620:28623   */\n      0x00\n        /* \"#utility.yul\":28641:28708   */\n      tag_591\n        /* \"#utility.yul\":28705:28707   */\n      0x0d\n        /* \"#utility.yul\":28700:28703   */\n      dup4\n        /* \"#utility.yul\":28641:28708   */\n      tag_293\n      jump\t// in\n    tag_591:\n        /* \"#utility.yul\":28634:28708   */\n      swap2\n      pop\n        /* \"#utility.yul\":28717:28810   */\n      tag_592\n        /* \"#utility.yul\":28806:28809   */\n      dup3\n        /* \"#utility.yul\":28717:28810   */\n      tag_322\n      jump\t// in\n    tag_592:\n        /* \"#utility.yul\":28835:28837   */\n      0x20\n        /* \"#utility.yul\":28830:28833   */\n      dup3\n        /* \"#utility.yul\":28826:28838   */\n      add\n        /* \"#utility.yul\":28819:28838   */\n      swap1\n      pop\n        /* \"#utility.yul\":28478:28844   */\n      swap2\n      swap1\n      pop\n      jump\t// out\n        /* \"#utility.yul\":28850:29269   */\n    tag_182:\n        /* \"#utility.yul\":29016:29020   */\n      0x00\n        /* \"#utility.yul\":29054:29056   */\n      0x20\n        /* \"#utility.yul\":29043:29052   */\n      dup3\n        /* \"#utility.yul\":29039:29057   */\n      add\n        /* \"#utility.yul\":29031:29057   */\n      swap1\n      pop\n        /* \"#utility.yul\":29103:29112   */\n      dup2\n        /* \"#utility.yul\":29097:29101   */\n      dup2\n        /* \"#utility.yul\":29093:29113   */\n      sub\n        /* \"#utility.yul\":29089:29090   */\n      0x00\n        /* \"#utility.yul\":29078:29087   */\n      dup4\n        /* \"#utility.yul\":29074:29091   */\n      add\n        /* \"#utility.yul\":29067:29114   */\n      mstore\n        /* \"#utility.yul\":29131:29262   */\n      tag_594\n        /* \"#utility.yul\":29257:29261   */\n      dup2\n        /* \"#utility.yul\":29131:29262   */\n      tag_323\n      jump\t// in\n    tag_594:\n        /* \"#utility.yul\":29123:29262   */\n      swap1\n      pop\n        /* \"#utility.yul\":28850:29269   */\n      swap2\n      swap1\n      pop\n      jump\t// out\n        /* \"#utility.yul\":29275:29444   */\n    tag_324:\n        /* \"#utility.yul\":29415:29436   */\n      0x546f646173206665636861732075736164617300000000000000000000000000\n        /* \"#utility.yul\":29411:29412   */\n      0x00\n        /* \"#utility.yul\":29403:29409   */\n      dup3\n        /* \"#utility.yul\":29399:29413   */\n      add\n        /* \"#utility.yul\":29392:29437   */\n      mstore\n        /* \"#utility.yul\":29275:29444   */\n      pop\n      jump\t// out\n        /* \"#utility.yul\":29450:29816   */\n    tag_325:\n        /* \"#utility.yul\":29592:29595   */\n      0x00\n        /* \"#utility.yul\":29613:29680   */\n      tag_597\n        /* \"#utility.yul\":29677:29679   */\n      0x13\n        /* \"#utility.yul\":29672:29675   */\n      dup4\n        /* \"#utility.yul\":29613:29680   */\n      tag_293\n      jump\t// in\n    tag_597:\n        /* \"#utility.yul\":29606:29680   */\n      swap2\n      pop\n        /* \"#utility.yul\":29689:29782   */\n      tag_598\n        /* \"#utility.yul\":29778:29781   */\n      dup3\n        /* \"#utility.yul\":29689:29782   */\n      tag_324\n      jump\t// in\n    tag_598:\n        /* \"#utility.yul\":29807:29809   */\n      0x20\n        /* \"#utility.yul\":29802:29805   */\n      dup3\n        /* \"#utility.yul\":29798:29810   */\n      add\n        /* \"#utility.yul\":29791:29810   */\n      swap1\n      pop\n        /* \"#utility.yul\":29450:29816   */\n      swap2\n      swap1\n      pop\n      jump\t// out\n        /* \"#utility.yul\":29822:30241   */\n    tag_185:\n        /* \"#utility.yul\":29988:29992   */\n      0x00\n        /* \"#utility.yul\":30026:30028   */\n      0x20\n        /* \"#utility.yul\":30015:30024   */\n      dup3\n        /* \"#utility.yul\":30011:30029   */\n      add\n        /* \"#utility.yul\":30003:30029   */\n      swap1\n      pop\n        /* \"#utility.yul\":30075:30084   */\n      dup2\n        /* \"#utility.yul\":30069:30073   */\n      dup2\n        /* \"#utility.yul\":30065:30085   */\n      sub\n        /* \"#utility.yul\":30061:30062   */\n      0x00\n        /* \"#utility.yul\":30050:30059   */\n      dup4\n        /* \"#utility.yul\":30046:30063   */\n      add\n        /* \"#utility.yul\":30039:30086   */\n      mstore\n        /* \"#utility.yul\":30103:30234   */\n      tag_600\n        /* \"#utility.yul\":30229:30233   */\n      dup2\n        /* \"#utility.yul\":30103:30234   */\n      tag_325\n      jump\t// in\n    tag_600:\n        /* \"#utility.yul\":30095:30234   */\n      swap1\n      pop\n        /* \"#utility.yul\":29822:30241   */\n      swap2\n      swap1\n      pop\n      jump\t// out\n        /* \"#utility.yul\":30247:30421   */\n    tag_326:\n        /* \"#utility.yul\":30387:30413   */\n      0x4665636861206465207061676f206e6f2076656e636964610000000000000000\n        /* \"#utility.yul\":30383:30384   */\n      0x00\n        /* \"#utility.yul\":30375:30381   */\n      dup3\n        /* \"#utility.yul\":30371:30385   */\n      add\n        /* \"#utility.yul\":30364:30414   */\n      mstore\n        /* \"#utility.yul\":30247:30421   */\n      pop\n      jump\t// out\n        /* \"#utility.yul\":30427:30793   */\n    tag_327:\n        /* \"#utility.yul\":30569:30572   */\n      0x00\n        /* \"#utility.yul\":30590:30657   */\n      tag_603\n        /* \"#utility.yul\":30654:30656   */\n      0x18\n        /* \"#utility.yul\":30649:30652   */\n      dup4\n        /* \"#utility.yul\":30590:30657   */\n      tag_293\n      jump\t// in\n    tag_603:\n        /* \"#utility.yul\":30583:30657   */\n      swap2\n      pop\n        /* \"#utility.yul\":30666:30759   */\n      tag_604\n        /* \"#utility.yul\":30755:30758   */\n      dup3\n        /* \"#utility.yul\":30666:30759   */\n      tag_326\n      jump\t// in\n    tag_604:\n        /* \"#utility.yul\":30784:30786   */\n      0x20\n        /* \"#utility.yul\":30779:30782   */\n      dup3\n        /* \"#utility.yul\":30775:30787   */\n      add\n        /* \"#utility.yul\":30768:30787   */\n      swap1\n      pop\n        /* \"#utility.yul\":30427:30793   */\n      swap2\n      swap1\n      pop\n      jump\t// out\n        /* \"#utility.yul\":30799:31218   */\n    tag_191:\n        /* \"#utility.yul\":30965:30969   */\n      0x00\n        /* \"#utility.yul\":31003:31005   */\n      0x20\n        /* \"#utility.yul\":30992:31001   */\n      dup3\n        /* \"#utility.yul\":30988:31006   */\n      add\n        /* \"#utility.yul\":30980:31006   */\n      swap1\n      pop\n        /* \"#utility.yul\":31052:31061   */\n      dup2\n        /* \"#utility.yul\":31046:31050   */\n      dup2\n        /* \"#utility.yul\":31042:31062   */\n      sub\n        /* \"#utility.yul\":31038:31039   */\n      0x00\n        /* \"#utility.yul\":31027:31036   */\n      dup4\n        /* \"#utility.yul\":31023:31040   */\n      add\n        /* \"#utility.yul\":31016:31063   */\n      mstore\n        /* \"#utility.yul\":31080:31211   */\n      tag_606\n        /* \"#utility.yul\":31206:31210   */\n      dup2\n        /* \"#utility.yul\":31080:31211   */\n      tag_327\n      jump\t// in\n    tag_606:\n        /* \"#utility.yul\":31072:31211   */\n      swap1\n      pop\n        /* \"#utility.yul\":30799:31218   */\n      swap2\n      swap1\n      pop\n      jump\t// out\n        /* \"#utility.yul\":31224:31388   */\n    tag_328:\n        /* \"#utility.yul\":31364:31380   */\n      0x43756f746120696e76616c696461000000000000000000000000000000000000\n        /* \"#utility.yul\":31360:31361   */\n      0x00\n        /* \"#utility.yul\":31352:31358   */\n      dup3\n        /* \"#utility.yul\":31348:31362   */\n      add\n        /* \"#utility.yul\":31341:31381   */\n      mstore\n        /* \"#utility.yul\":31224:31388   */\n      pop\n      jump\t// out\n        /* \"#utility.yul\":31394:31760   */\n    tag_329:\n        /* \"#utility.yul\":31536:31539   */\n      0x00\n        /* \"#utility.yul\":31557:31624   */\n      tag_609\n        /* \"#utility.yul\":31621:31623   */\n      0x0e\n        /* \"#utility.yul\":31616:31619   */\n      dup4\n        /* \"#utility.yul\":31557:31624   */\n      tag_293\n      jump\t// in\n    tag_609:\n        /* \"#utility.yul\":31550:31624   */\n      swap2\n      pop\n        /* \"#utility.yul\":31633:31726   */\n      tag_610\n        /* \"#utility.yul\":31722:31725   */\n      dup3\n        /* \"#utility.yul\":31633:31726   */\n      tag_328\n      jump\t// in\n    tag_610:\n        /* \"#utility.yul\":31751:31753   */\n      0x20\n        /* \"#utility.yul\":31746:31749   */\n      dup3\n        /* \"#utility.yul\":31742:31754   */\n      add\n        /* \"#utility.yul\":31735:31754   */\n      swap1\n      pop\n        /* \"#utility.yul\":31394:31760   */\n      swap2\n      swap1\n      pop\n      jump\t// out\n        /* \"#utility.yul\":31766:32185   */\n    tag_197:\n        /* \"#utility.yul\":31932:31936   */\n      0x00\n        /* \"#utility.yul\":31970:31972   */\n      0x20\n        /* \"#utility.yul\":31959:31968   */\n      dup3\n        /* \"#utility.yul\":31955:31973   */\n      add\n        /* \"#utility.yul\":31947:31973   */\n      swap1\n      pop\n        /* \"#utility.yul\":32019:32028   */\n      dup2\n        /* \"#utility.yul\":32013:32017   */\n      dup2\n        /* \"#utility.yul\":32009:32029   */\n      sub\n        /* \"#utility.yul\":32005:32006   */\n      0x00\n        /* \"#utility.yul\":31994:32003   */\n      dup4\n        /* \"#utility.yul\":31990:32007   */\n      add\n        /* \"#utility.yul\":31983:32030   */\n      mstore\n        /* \"#utility.yul\":32047:32178   */\n      tag_612\n        /* \"#utility.yul\":32173:32177   */\n      dup2\n        /* \"#utility.yul\":32047:32178   */\n      tag_329\n      jump\t// in\n    tag_612:\n        /* \"#utility.yul\":32039:32178   */\n      swap1\n      pop\n        /* \"#utility.yul\":31766:32185   */\n      swap2\n      swap1\n      pop\n      jump\t// out\n        /* \"#utility.yul\":32191:32358   */\n    tag_330:\n        /* \"#utility.yul\":32331:32350   */\n      0x506167612063756f746120657861637461000000000000000000000000000000\n        /* \"#utility.yul\":32327:32328   */\n      0x00\n        /* \"#utility.yul\":32319:32325   */\n      dup3\n        /* \"#utility.yul\":32315:32329   */\n      add\n        /* \"#utility.yul\":32308:32351   */\n      mstore\n        /* \"#utility.yul\":32191:32358   */\n      pop\n      jump\t// out\n        /* \"#utility.yul\":32364:32730   */\n    tag_331:\n        /* \"#utility.yul\":32506:32509   */\n      0x00\n        /* \"#utility.yul\":32527:32594   */\n      tag_615\n        /* \"#utility.yul\":32591:32593   */\n      0x11\n        /* \"#utility.yul\":32586:32589   */\n      dup4\n        /* \"#utility.yul\":32527:32594   */\n      tag_293\n      jump\t// in\n    tag_615:\n        /* \"#utility.yul\":32520:32594   */\n      swap2\n      pop\n        /* \"#utility.yul\":32603:32696   */\n      tag_616\n        /* \"#utility.yul\":32692:32695   */\n      dup3\n        /* \"#utility.yul\":32603:32696   */\n      tag_330\n      jump\t// in\n    tag_616:\n        /* \"#utility.yul\":32721:32723   */\n      0x20\n        /* \"#utility.yul\":32716:32719   */\n      dup3\n        /* \"#utility.yul\":32712:32724   */\n      add\n        /* \"#utility.yul\":32705:32724   */\n      swap1\n      pop\n        /* \"#utility.yul\":32364:32730   */\n      swap2\n      swap1\n      pop\n      jump\t// out\n        /* \"#utility.yul\":32736:33155   */\n    tag_200:\n        /* \"#utility.yul\":32902:32906   */\n      0x00\n        /* \"#utility.yul\":32940:32942   */\n      0x20\n        /* \"#utility.yul\":32929:32938   */\n      dup3\n        /* \"#utility.yul\":32925:32943   */\n      add\n        /* \"#utility.yul\":32917:32943   */\n      swap1\n      pop\n        /* \"#utility.yul\":32989:32998   */\n      dup2\n        /* \"#utility.yul\":32983:32987   */\n      dup2\n        /* \"#utility.yul\":32979:32999   */\n      sub\n        /* \"#utility.yul\":32975:32976   */\n      0x00\n        /* \"#utility.yul\":32964:32973   */\n      dup4\n        /* \"#utility.yul\":32960:32977   */\n      add\n        /* \"#utility.yul\":32953:33000   */\n      mstore\n        /* \"#utility.yul\":33017:33148   */\n      tag_618\n        /* \"#utility.yul\":33143:33147   */\n      dup2\n        /* \"#utility.yul\":33017:33148   */\n      tag_331\n      jump\t// in\n    tag_618:\n        /* \"#utility.yul\":33009:33148   */\n      swap1\n      pop\n        /* \"#utility.yul\":32736:33155   */\n      swap2\n      swap1\n      pop\n      jump\t// out\n        /* \"#utility.yul\":33161:33603   */\n    tag_211:\n        /* \"#utility.yul\":33310:33314   */\n      0x00\n        /* \"#utility.yul\":33348:33350   */\n      0x60\n        /* \"#utility.yul\":33337:33346   */\n      dup3\n        /* \"#utility.yul\":33333:33351   */\n      add\n        /* \"#utility.yul\":33325:33351   */\n      swap1\n      pop\n        /* \"#utility.yul\":33361:33432   */\n      tag_620\n        /* \"#utility.yul\":33429:33430   */\n      0x00\n        /* \"#utility.yul\":33418:33427   */\n      dup4\n        /* \"#utility.yul\":33414:33431   */\n      add\n        /* \"#utility.yul\":33405:33411   */\n      dup7\n        /* \"#utility.yul\":33361:33432   */\n      tag_271\n      jump\t// in\n    tag_620:\n        /* \"#utility.yul\":33442:33514   */\n      tag_621\n        /* \"#utility.yul\":33510:33512   */\n      0x20\n        /* \"#utility.yul\":33499:33508   */\n      dup4\n        /* \"#utility.yul\":33495:33513   */\n      add\n        /* \"#utility.yul\":33486:33492   */\n      dup6\n        /* \"#utility.yul\":33442:33514   */\n      tag_271\n      jump\t// in\n    tag_621:\n        /* \"#utility.yul\":33524:33596   */\n      tag_622\n        /* \"#utility.yul\":33592:33594   */\n      0x40\n        /* \"#utility.yul\":33581:33590   */\n      dup4\n        /* \"#utility.yul\":33577:33595   */\n      add\n        /* \"#utility.yul\":33568:33574   */\n      dup5\n        /* \"#utility.yul\":33524:33596   */\n      tag_271\n      jump\t// in\n    tag_622:\n        /* \"#utility.yul\":33161:33603   */\n      swap5\n      swap4\n      pop\n      pop\n      pop\n      pop\n      jump\t// out\n        /* \"#utility.yul\":33609:33941   */\n    tag_230:\n        /* \"#utility.yul\":33730:33734   */\n      0x00\n        /* \"#utility.yul\":33768:33770   */\n      0x40\n        /* \"#utility.yul\":33757:33766   */\n      dup3\n        /* \"#utility.yul\":33753:33771   */\n      add\n        /* \"#utility.yul\":33745:33771   */\n      swap1\n      pop\n        /* \"#utility.yul\":33781:33852   */\n      tag_624\n        /* \"#utility.yul\":33849:33850   */\n      0x00\n        /* \"#utility.yul\":33838:33847   */\n      dup4\n        /* \"#utility.yul\":33834:33851   */\n      add\n        /* \"#utility.yul\":33825:33831   */\n      dup6\n        /* \"#utility.yul\":33781:33852   */\n      tag_264\n      jump\t// in\n    tag_624:\n        /* \"#utility.yul\":33862:33934   */\n      tag_625\n        /* \"#utility.yul\":33930:33932   */\n      0x20\n        /* \"#utility.yul\":33919:33928   */\n      dup4\n        /* \"#utility.yul\":33915:33933   */\n      add\n        /* \"#utility.yul\":33906:33912   */\n      dup5\n        /* \"#utility.yul\":33862:33934   */\n      tag_271\n      jump\t// in\n    tag_625:\n        /* \"#utility.yul\":33609:33941   */\n      swap4\n      swap3\n      pop\n      pop\n      pop\n      jump\t// out\n        /* \"#utility.yul\":33947:34389   */\n    tag_238:\n        /* \"#utility.yul\":34096:34100   */\n      0x00\n        /* \"#utility.yul\":34134:34136   */\n      0x60\n        /* \"#utility.yul\":34123:34132   */\n      dup3\n        /* \"#utility.yul\":34119:34137   */\n      add\n        /* \"#utility.yul\":34111:34137   */\n      swap1\n      pop\n        /* \"#utility.yul\":34147:34218   */\n      tag_627\n        /* \"#utility.yul\":34215:34216   */\n      0x00\n        /* \"#utility.yul\":34204:34213   */\n      dup4\n        /* \"#utility.yul\":34200:34217   */\n      add\n        /* \"#utility.yul\":34191:34197   */\n      dup7\n        /* \"#utility.yul\":34147:34218   */\n      tag_264\n      jump\t// in\n    tag_627:\n        /* \"#utility.yul\":34228:34300   */\n      tag_628\n        /* \"#utility.yul\":34296:34298   */\n      0x20\n        /* \"#utility.yul\":34285:34294   */\n      dup4\n        /* \"#utility.yul\":34281:34299   */\n      add\n        /* \"#utility.yul\":34272:34278   */\n      dup6\n        /* \"#utility.yul\":34228:34300   */\n      tag_264\n      jump\t// in\n    tag_628:\n        /* \"#utility.yul\":34310:34382   */\n      tag_629\n        /* \"#utility.yul\":34378:34380   */\n      0x40\n        /* \"#utility.yul\":34367:34376   */\n      dup4\n        /* \"#utility.yul\":34363:34381   */\n      add\n        /* \"#utility.yul\":34354:34360   */\n      dup5\n        /* \"#utility.yul\":34310:34382   */\n      tag_271\n      jump\t// in\n    tag_629:\n        /* \"#utility.yul\":33947:34389   */\n      swap5\n      swap4\n      pop\n      pop\n      pop\n      pop\n      jump\t// out\n\n    auxdata: 0xa2646970667358221220d1120ce72994a9845b320974593461798e0f33df5718968266381f7ec06c49d864736f6c634300081e0033\n}\n",
				"bytecode": {
					"linkReferences": {},
					"object": "608060405234801561000f575f5ffd5b50335f73ffffffffffffffffffffffffffffffffffffffff168173ffffffffffffffffffffffffffffffffffffffff1603610081575f6040517f1e4fbdf7000000000000000000000000000000000000000000000000000000008152600401610078919061019d565b60405180910390fd5b6100908161009d60201b60201c565b50600180819055506101b6565b5f5f5f9054906101000a900473ffffffffffffffffffffffffffffffffffffffff169050815f5f6101000a81548173ffffffffffffffffffffffffffffffffffffffff021916908373ffffffffffffffffffffffffffffffffffffffff1602179055508173ffffffffffffffffffffffffffffffffffffffff168173ffffffffffffffffffffffffffffffffffffffff167f8be0079c531659141344cd1fd0a4f28419497f9722a3daafe3b4186f6b6457e060405160405180910390a35050565b5f73ffffffffffffffffffffffffffffffffffffffff82169050919050565b5f6101878261015e565b9050919050565b6101978161017d565b82525050565b5f6020820190506101b05f83018461018e565b92915050565b6127cb806101c35f395ff3fe608060405234801561000f575f5ffd5b50600436106100b1575f3560e01c80638da5cb5b1161006f5780638da5cb5b1461017c5780639aa1afa51461019a578063b6157090146101ca578063b67f182814610203578063ce614fa314610233578063f2fde38b1461024f576100b1565b8062ae3bf8146100b557806303af79cd146100d157806330d84cc11461010a5780636316483b146101265780636676bf4f14610156578063715018a614610172575b5f5ffd5b6100cf60048036038101906100ca91906117a9565b61026b565b005b6100eb60048036038101906100e69190611807565b61036b565b6040516101019a999897969594939291906118ce565b60405180910390f35b610124600480360381019061011f9190611ae2565b610431565b005b610140600480360381019061013b9190611807565b6108e4565b60405161014d9190611c3e565b60405180910390f35b610170600480360381019061016b9190611807565b61094e565b005b61017a610bc9565b005b610184610bdc565b6040516101919190611c5e565b60405180910390f35b6101b460048036038101906101af9190611807565b610c03565b6040516101c19190611c77565b60405180910390f35b6101e460048036038101906101df9190611807565b610c4a565b6040516101fa9a99989796959493929190611c90565b60405180910390f35b61021d60048036038101906102189190611807565b610d68565b60405161022a9190611c77565b60405180910390f35b61024d60048036038101906102489190611d2a565b610de6565b005b610269600480360381019061026491906117a9565b61131a565b005b61027361139e565b5f8190505f8173ffffffffffffffffffffffffffffffffffffffff166370a08231306040518263ffffffff1660e01b81526004016102b19190611c5e565b602060405180830381865afa1580156102cc573d5f5f3e3d5ffd5b505050506040513d601f19601f820116820180604052508101906102f09190611d7c565b90505f8111610334576040517f08c379a000000000000000000000000000000000000000000000000000000000815260040161032b90611e01565b60405180910390fd5b61036661033f610bdc565b828473ffffffffffffffffffffffffffffffffffffffff166114259092919063ffffffff16565b505050565b6002602052805f5260405f205f91509050805f015f9054906101000a900473ffffffffffffffffffffffffffffffffffffffff1690806001015f9054906101000a900473ffffffffffffffffffffffffffffffffffffffff1690806002015f9054906101000a900473ffffffffffffffffffffffffffffffffffffffff1690806003015490806004015490806005015490806006015490806007015f9054906101000a900460ff16908060070160019054906101000a900460ff1690806009015490508a565b6104396114a4565b5f73ffffffffffffffffffffffffffffffffffffffff1660025f8881526020019081526020015f205f015f9054906101000a900473ffffffffffffffffffffffffffffffffffffffff1673ffffffffffffffffffffffffffffffffffffffff16146104d9576040517f08c379a00000000000000000000000000000000000000000000000000000000081526004016104d090611e69565b60405180910390fd5b5f73ffffffffffffffffffffffffffffffffffffffff168573ffffffffffffffffffffffffffffffffffffffff1603610547576040517f08c379a000000000000000000000000000000000000000000000000000000000815260040161053e90611ed1565b60405180910390fd5b5f8311610589576040517f08c379a000000000000000000000000000000000000000000000000000000000815260040161058090611f39565b60405180910390fd5b6127108211156105ce576040517f08c379a00000000000000000000000000000000000000000000000000000000081526004016105c590611fa1565b60405180910390fd5b5f815111610611576040517f08c379a000000000000000000000000000000000000000000000000000000000815260040161060890612009565b60405180910390fd5b5f815190505f5f90505f5f90505b828110156106e4575f84828151811061063b5761063a612027565b5b6020026020010151905042811015610688576040517f08c379a000000000000000000000000000000000000000000000000000000000815260040161067f9061209e565b60405180910390fd5b5f8211156106d3578281116106d2576040517f08c379a00000000000000000000000000000000000000000000000000000000081526004016106c990612106565b60405180910390fd5b5b80925050808060010191505061061f565b505f61271085876106f59190612151565b6106ff91906121bf565b8661070a91906121ef565b90505f60025f8b81526020019081526020015f20905033815f015f6101000a81548173ffffffffffffffffffffffffffffffffffffffff021916908373ffffffffffffffffffffffffffffffffffffffff16021790555088816001015f6101000a81548173ffffffffffffffffffffffffffffffffffffffff021916908373ffffffffffffffffffffffffffffffffffffffff16021790555087816002015f6101000a81548173ffffffffffffffffffffffffffffffffffffffff021916908373ffffffffffffffffffffffffffffffffffffffff1602179055508681600301819055508581600401819055508181600501819055505f81600601819055505f816007015f6101000a81548160ff0219169083151502179055505f8160070160016101000a81548160ff021916908315150217905550848160080190805190602001906108589291906116d8565b505f81600901819055508873ffffffffffffffffffffffffffffffffffffffff163373ffffffffffffffffffffffffffffffffffffffff168b7f679a35f396a7f020f0066bb8801931ebe39b7e55a1a1418d54cbd3aa724af7a88b8b8b888c6040516108c8959493929190612222565b60405180910390a4505050506108dc6114ea565b505050505050565b606060025f8381526020019081526020015f2060080180548060200260200160405190810160405280929190818152602001828054801561094257602002820191905f5260205f20905b81548152602001906001019080831161092e575b50505050509050919050565b6109566114a4565b5f60025f8381526020019081526020015f2090505f73ffffffffffffffffffffffffffffffffffffffff16815f015f9054906101000a900473ffffffffffffffffffffffffffffffffffffffff1673ffffffffffffffffffffffffffffffffffffffff16036109fa576040517f08c379a00000000000000000000000000000000000000000000000000000000081526004016109f1906122c4565b60405180910390fd5b805f015f9054906101000a900473ffffffffffffffffffffffffffffffffffffffff1673ffffffffffffffffffffffffffffffffffffffff163373ffffffffffffffffffffffffffffffffffffffff1614610a8a576040517f08c379a0000000000000000000000000000000000000000000000000000000008152600401610a819061232c565b60405180910390fd5b806007015f9054906101000a900460ff1615610adb576040517f08c379a0000000000000000000000000000000000000000000000000000000008152600401610ad290612394565b60405180910390fd5b610b74815f015f9054906101000a900473ffffffffffffffffffffffffffffffffffffffff16826001015f9054906101000a900473ffffffffffffffffffffffffffffffffffffffff168360030154846002015f9054906101000a900473ffffffffffffffffffffffffffffffffffffffff1673ffffffffffffffffffffffffffffffffffffffff166114f3909392919063ffffffff16565b6001816007015f6101000a81548160ff021916908315150217905550817fbec62f1874a5747638ac99ea0bf3c512a2a5ebd945412bd231ca5e71ce1363c060405160405180910390a250610bc66114ea565b50565b610bd161139e565b610bda5f611575565b565b5f5f5f9054906101000a900473ffffffffffffffffffffffffffffffffffffffff16905090565b5f5f60025f8481526020019081526020015f2090508060060154816005015411610c2d575f610c42565b80600601548160050154610c4191906123b2565b5b915050919050565b5f5f5f5f5f5f5f5f5f5f5f60025f8d81526020019081526020015f209050805f015f9054906101000a900473ffffffffffffffffffffffffffffffffffffffff169a50806001015f9054906101000a900473ffffffffffffffffffffffffffffffffffffffff169950806002015f9054906101000a900473ffffffffffffffffffffffffffffffffffffffff16985080600301549750806004015496508060050154955080600601549450806007015f9054906101000a900460ff1693508060070160019054906101000a900460ff1692508060080180549050816009015410610d34575f610d58565b80600801816009015481548110610d4e57610d4d612027565b5b905f5260205f2001545b9150509193959799509193959799565b5f5f60025f8481526020019081526020015f2090505f5f90505f826008018054905090505f5f90505b81811015610dda57836008018181548110610daf57610dae612027565b5b905f5260205f2001544210610dcd578280610dc9906123e5565b9350505b8080600101915050610d91565b50819350505050919050565b610dee6114a4565b5f60025f8481526020019081526020015f2090505f73ffffffffffffffffffffffffffffffffffffffff16815f015f9054906101000a900473ffffffffffffffffffffffffffffffffffffffff1673ffffffffffffffffffffffffffffffffffffffff1603610e92576040517f08c379a0000000000000000000000000000000000000000000000000000000008152600401610e89906122c4565b60405180910390fd5b806007015f9054906101000a900460ff16610ee2576040517f08c379a0000000000000000000000000000000000000000000000000000000008152600401610ed990612476565b60405180910390fd5b8060070160019054906101000a900460ff1615610f34576040517f08c379a0000000000000000000000000000000000000000000000000000000008152600401610f2b906124de565b60405180910390fd5b806001015f9054906101000a900473ffffffffffffffffffffffffffffffffffffffff1673ffffffffffffffffffffffffffffffffffffffff163373ffffffffffffffffffffffffffffffffffffffff1614610fc5576040517f08c379a0000000000000000000000000000000000000000000000000000000008152600401610fbc90612546565b60405180910390fd5b5f8160090154905081600801805490508110611016576040517f08c379a000000000000000000000000000000000000000000000000000000000815260040161100d906125ae565b60405180910390fd5b81600801818154811061102c5761102b612027565b5b905f5260205f200154421015611077576040517f08c379a000000000000000000000000000000000000000000000000000000000815260040161106e90612616565b60405180910390fd5b5f8260060154836005015461108c91906123b2565b90505f8284600801805490506110a291906123b2565b90505f81836110b191906121bf565b90505f81116110f5576040517f08c379a00000000000000000000000000000000000000000000000000000000081526004016110ec9061267e565b60405180910390fd5b808614611137576040517f08c379a000000000000000000000000000000000000000000000000000000000815260040161112e906126e6565b60405180910390fd5b6111cc856001015f9054906101000a900473ffffffffffffffffffffffffffffffffffffffff16865f015f9054906101000a900473ffffffffffffffffffffffffffffffffffffffff1683886002015f9054906101000a900473ffffffffffffffffffffffffffffffffffffffff1673ffffffffffffffffffffffffffffffffffffffff166114f3909392919063ffffffff16565b80856006015f8282546111df91906121ef565b925050819055506001856009015f8282546111fa91906121ef565b925050819055505f8560060154866005015461121691906123b2565b90505f8660080180549050876009015410611231575f611255565b8660080187600901548154811061124b5761124a612027565b5b905f5260205f2001545b90503373ffffffffffffffffffffffffffffffffffffffff16897f3e966ded2f69775351b0d34f9c16cba615d55454b8dcc96874ff8378ed0cea8b8585856040516112a293929190612704565b60405180910390a386600801805490508760090154036113075760018760070160016101000a81548160ff021916908315150217905550887f39dedc2a3f7a596f05388293c3394fd45b0c856ef856ca3e7d629707e753301960405160405180910390a25b505050505050506113166114ea565b5050565b61132261139e565b5f73ffffffffffffffffffffffffffffffffffffffff168173ffffffffffffffffffffffffffffffffffffffff1603611392575f6040517f1e4fbdf70000000000000000000000000000000000000000000000000000000081526004016113899190611c5e565b60405180910390fd5b61139b81611575565b50565b6113a6611636565b73ffffffffffffffffffffffffffffffffffffffff166113c4610bdc565b73ffffffffffffffffffffffffffffffffffffffff1614611423576113e7611636565b6040517f118cdaa700000000000000000000000000000000000000000000000000000000815260040161141a9190611c5e565b60405180910390fd5b565b61149f838473ffffffffffffffffffffffffffffffffffffffff1663a9059cbb8585604051602401611458929190612739565b604051602081830303815290604052915060e01b6020820180517bffffffffffffffffffffffffffffffffffffffffffffffffffffffff838183161783525050505061163d565b505050565b6002600154036114e0576040517f3ee5aeb500000000000000000000000000000000000000000000000000000000815260040160405180910390fd5b6002600181905550565b60018081905550565b61156f848573ffffffffffffffffffffffffffffffffffffffff166323b872dd86868660405160240161152893929190612760565b604051602081830303815290604052915060e01b6020820180517bffffffffffffffffffffffffffffffffffffffffffffffffffffffff838183161783525050505061163d565b50505050565b5f5f5f9054906101000a900473ffffffffffffffffffffffffffffffffffffffff169050815f5f6101000a81548173ffffffffffffffffffffffffffffffffffffffff021916908373ffffffffffffffffffffffffffffffffffffffff1602179055508173ffffffffffffffffffffffffffffffffffffffff168173ffffffffffffffffffffffffffffffffffffffff167f8be0079c531659141344cd1fd0a4f28419497f9722a3daafe3b4186f6b6457e060405160405180910390a35050565b5f33905090565b5f5f60205f8451602086015f885af18061165c576040513d5f823e3d81fd5b3d92505f519150505f8214611675576001811415611690565b5f8473ffffffffffffffffffffffffffffffffffffffff163b145b156116d257836040517f5274afe70000000000000000000000000000000000000000000000000000000081526004016116c99190611c5e565b60405180910390fd5b50505050565b828054828255905f5260205f20908101928215611712579160200282015b828111156117115782518255916020019190600101906116f6565b5b50905061171f9190611723565b5090565b5b8082111561173a575f815f905550600101611724565b5090565b5f604051905090565b5f5ffd5b5f5ffd5b5f73ffffffffffffffffffffffffffffffffffffffff82169050919050565b5f6117788261174f565b9050919050565b6117888161176e565b8114611792575f5ffd5b50565b5f813590506117a38161177f565b92915050565b5f602082840312156117be576117bd611747565b5b5f6117cb84828501611795565b91505092915050565b5f819050919050565b6117e6816117d4565b81146117f0575f5ffd5b50565b5f81359050611801816117dd565b92915050565b5f6020828403121561181c5761181b611747565b5b5f611829848285016117f3565b91505092915050565b61183b8161176e565b82525050565b5f819050919050565b5f61186461185f61185a8461174f565b611841565b61174f565b9050919050565b5f6118758261184a565b9050919050565b5f6118868261186b565b9050919050565b6118968161187c565b82525050565b5f819050919050565b6118ae8161189c565b82525050565b5f8115159050919050565b6118c8816118b4565b82525050565b5f610140820190506118e25f83018d611832565b6118ef602083018c611832565b6118fc604083018b61188d565b611909606083018a6118a5565b61191660808301896118a5565b61192360a08301886118a5565b61193060c08301876118a5565b61193d60e08301866118bf565b61194b6101008301856118bf565b6119596101208301846118a5565b9b9a5050505050505050505050565b6119718161189c565b811461197b575f5ffd5b50565b5f8135905061198c81611968565b92915050565b5f5ffd5b5f601f19601f8301169050919050565b7f4e487b71000000000000000000000000000000000000000000000000000000005f52604160045260245ffd5b6119dc82611996565b810181811067ffffffffffffffff821117156119fb576119fa6119a6565b5b80604052505050565b5f611a0d61173e565b9050611a1982826119d3565b919050565b5f67ffffffffffffffff821115611a3857611a376119a6565b5b602082029050602081019050919050565b5f5ffd5b5f611a5f611a5a84611a1e565b611a04565b90508083825260208201905060208402830185811115611a8257611a81611a49565b5b835b81811015611aab5780611a97888261197e565b845260208401935050602081019050611a84565b5050509392505050565b5f82601f830112611ac957611ac8611992565b5b8135611ad9848260208601611a4d565b91505092915050565b5f5f5f5f5f5f60c08789031215611afc57611afb611747565b5b5f611b0989828a016117f3565b9650506020611b1a89828a01611795565b9550506040611b2b89828a01611795565b9450506060611b3c89828a0161197e565b9350506080611b4d89828a0161197e565b92505060a087013567ffffffffffffffff811115611b6e57611b6d61174b565b5b611b7a89828a01611ab5565b9150509295509295509295565b5f81519050919050565b5f82825260208201905092915050565b5f819050602082019050919050565b611bb98161189c565b82525050565b5f611bca8383611bb0565b60208301905092915050565b5f602082019050919050565b5f611bec82611b87565b611bf68185611b91565b9350611c0183611ba1565b805f5b83811015611c31578151611c188882611bbf565b9750611c2383611bd6565b925050600181019050611c04565b5085935050505092915050565b5f6020820190508181035f830152611c568184611be2565b905092915050565b5f602082019050611c715f830184611832565b92915050565b5f602082019050611c8a5f8301846118a5565b92915050565b5f61014082019050611ca45f83018d611832565b611cb1602083018c611832565b611cbe604083018b611832565b611ccb606083018a6118a5565b611cd860808301896118a5565b611ce560a08301886118a5565b611cf260c08301876118a5565b611cff60e08301866118bf565b611d0d6101008301856118bf565b611d1b6101208301846118a5565b9b9a5050505050505050505050565b5f5f60408385031215611d4057611d3f611747565b5b5f611d4d858286016117f3565b9250506020611d5e8582860161197e565b9150509250929050565b5f81519050611d7681611968565b92915050565b5f60208284031215611d9157611d90611747565b5b5f611d9e84828501611d68565b91505092915050565b5f82825260208201905092915050565b7f53696e2073616c646f20706172612072657363617461720000000000000000005f82015250565b5f611deb601783611da7565b9150611df682611db7565b602082019050919050565b5f6020820190508181035f830152611e1881611ddf565b9050919050565b7f49442079612065786973746500000000000000000000000000000000000000005f82015250565b5f611e53600c83611da7565b9150611e5e82611e1f565b602082019050919050565b5f6020820190508181035f830152611e8081611e47565b9050919050565b7f507265737461746172696f20696e76616c69646f0000000000000000000000005f82015250565b5f611ebb601483611da7565b9150611ec682611e87565b602082019050919050565b5f6020820190508181035f830152611ee881611eaf565b9050919050565b7f5072696e636970616c206465626520736572203e2030000000000000000000005f82015250565b5f611f23601683611da7565b9150611f2e82611eef565b602082019050919050565b5f6020820190508181035f830152611f5081611f17565b9050919050565b7f496e7465726573206d6178696d6f2031303025000000000000000000000000005f82015250565b5f611f8b601383611da7565b9150611f9682611f57565b602082019050919050565b5f6020820190508181035f830152611fb881611f7f565b9050919050565b7f43726f6e6f6772616d6120766163696f000000000000000000000000000000005f82015250565b5f611ff3601083611da7565b9150611ffe82611fbf565b602082019050919050565b5f6020820190508181035f83015261202081611fe7565b9050919050565b7f4e487b71000000000000000000000000000000000000000000000000000000005f52603260045260245ffd5b7f4665636861203c2061686f7261000000000000000000000000000000000000005f82015250565b5f612088600d83611da7565b915061209382612054565b602082019050919050565b5f6020820190508181035f8301526120b58161207c565b9050919050565b7f466563686173206e6f20617363656e64656e74657300000000000000000000005f82015250565b5f6120f0601583611da7565b91506120fb826120bc565b602082019050919050565b5f6020820190508181035f83015261211d816120e4565b9050919050565b7f4e487b71000000000000000000000000000000000000000000000000000000005f52601160045260245ffd5b5f61215b8261189c565b91506121668361189c565b92508282026121748161189c565b9150828204841483151761218b5761218a612124565b5b5092915050565b7f4e487b71000000000000000000000000000000000000000000000000000000005f52601260045260245ffd5b5f6121c98261189c565b91506121d48361189c565b9250826121e4576121e3612192565b5b828204905092915050565b5f6121f98261189c565b91506122048361189c565b925082820190508082111561221c5761221b612124565b5b92915050565b5f60a0820190506122355f830188611832565b61224260208301876118a5565b61224f60408301866118a5565b61225c60608301856118a5565b818103608083015261226e8184611be2565b90509695505050505050565b7f5072657374616d6f206e6f2065786973746500000000000000000000000000005f82015250565b5f6122ae601283611da7565b91506122b98261227a565b602082019050919050565b5f6020820190508181035f8301526122db816122a2565b9050919050565b7f536f6c6f206c656e6465720000000000000000000000000000000000000000005f82015250565b5f612316600b83611da7565b9150612321826122e2565b602082019050919050565b5f6020820190508181035f8301526123438161230a565b9050919050565b7f5961206675652066696e616e636961646f0000000000000000000000000000005f82015250565b5f61237e601183611da7565b91506123898261234a565b602082019050919050565b5f6020820190508181035f8301526123ab81612372565b9050919050565b5f6123bc8261189c565b91506123c78361189c565b92508282039050818111156123df576123de612124565b5b92915050565b5f6123ef8261189c565b91507fffffffffffffffffffffffffffffffffffffffffffffffffffffffffffffffff820361242157612420612124565b5b600182019050919050565b7f4e6f2066696e616e636961646f2061756e0000000000000000000000000000005f82015250565b5f612460601183611da7565b915061246b8261242c565b602082019050919050565b5f6020820190508181035f83015261248d81612454565b9050919050565b7f5961206c697175696461646f00000000000000000000000000000000000000005f82015250565b5f6124c8600c83611da7565b91506124d382612494565b602082019050919050565b5f6020820190508181035f8301526124f5816124bc565b9050919050565b7f536f6c6f20626f72726f776572000000000000000000000000000000000000005f82015250565b5f612530600d83611da7565b915061253b826124fc565b602082019050919050565b5f6020820190508181035f83015261255d81612524565b9050919050565b7f546f6461732066656368617320757361646173000000000000000000000000005f82015250565b5f612598601383611da7565b91506125a382612564565b602082019050919050565b5f6020820190508181035f8301526125c58161258c565b9050919050565b7f4665636861206465207061676f206e6f2076656e6369646100000000000000005f82015250565b5f612600601883611da7565b915061260b826125cc565b602082019050919050565b5f6020820190508181035f83015261262d816125f4565b9050919050565b7f43756f746120696e76616c6964610000000000000000000000000000000000005f82015250565b5f612668600e83611da7565b915061267382612634565b602082019050919050565b5f6020820190508181035f8301526126958161265c565b9050919050565b7f506167612063756f7461206578616374610000000000000000000000000000005f82015250565b5f6126d0601183611da7565b91506126db8261269c565b602082019050919050565b5f6020820190508181035f8301526126fd816126c4565b9050919050565b5f6060820190506127175f8301866118a5565b61272460208301856118a5565b61273160408301846118a5565b949350505050565b5f60408201905061274c5f830185611832565b61275960208301846118a5565b9392505050565b5f6060820190506127735f830186611832565b6127806020830185611832565b61278d60408301846118a5565b94935050505056fea2646970667358221220d1120ce72994a9845b320974593461798e0f33df5718968266381f7ec06c49d864736f6c634300081e0033",
					"opcodes": "PUSH1 0x80 PUSH1 0x40 MSTORE CALLVALUE DUP1 ISZERO PUSH2 0xF JUMPI PUSH0 PUSH0 REVERT JUMPDEST POP CALLER PUSH0 PUSH20 0xFFFFFFFFFFFFFFFFFFFFFFFFFFFFFFFFFFFFFFFF AND DUP2 PUSH20 0xFFFFFFFFFFFFFFFFFFFFFFFFFFFFFFFFFFFFFFFF AND SUB PUSH2 0x81 JUMPI PUSH0 PUSH1 0x40 MLOAD PUSH32 0x1E4FBDF700000000000000000000000000000000000000000000000000000000 DUP2 MSTORE PUSH1 0x4 ADD PUSH2 0x78 SWAP2 SWAP1 PUSH2 0x19D JUMP JUMPDEST PUSH1 0x40 MLOAD DUP1 SWAP2 SUB SWAP1 REVERT JUMPDEST PUSH2 0x90 DUP2 PUSH2 0x9D PUSH1 0x20 SHL PUSH1 0x20 SHR JUMP JUMPDEST POP PUSH1 0x1 DUP1 DUP2 SWAP1 SSTORE POP PUSH2 0x1B6 JUMP JUMPDEST PUSH0 PUSH0 PUSH0 SWAP1 SLOAD SWAP1 PUSH2 0x100 EXP SWAP1 DIV PUSH20 0xFFFFFFFFFFFFFFFFFFFFFFFFFFFFFFFFFFFFFFFF AND SWAP1 POP DUP2 PUSH0 PUSH0 PUSH2 0x100 EXP DUP2 SLOAD DUP2 PUSH20 0xFFFFFFFFFFFFFFFFFFFFFFFFFFFFFFFFFFFFFFFF MUL NOT AND SWAP1 DUP4 PUSH20 0xFFFFFFFFFFFFFFFFFFFFFFFFFFFFFFFFFFFFFFFF AND MUL OR SWAP1 SSTORE POP DUP2 PUSH20 0xFFFFFFFFFFFFFFFFFFFFFFFFFFFFFFFFFFFFFFFF AND DUP2 PUSH20 0xFFFFFFFFFFFFFFFFFFFFFFFFFFFFFFFFFFFFFFFF AND PUSH32 0x8BE0079C531659141344CD1FD0A4F28419497F9722A3DAAFE3B4186F6B6457E0 PUSH1 0x40 MLOAD PUSH1 0x40 MLOAD DUP1 SWAP2 SUB SWAP1 LOG3 POP POP JUMP JUMPDEST PUSH0 PUSH20 0xFFFFFFFFFFFFFFFFFFFFFFFFFFFFFFFFFFFFFFFF DUP3 AND SWAP1 POP SWAP2 SWAP1 POP JUMP JUMPDEST PUSH0 PUSH2 0x187 DUP3 PUSH2 0x15E JUMP JUMPDEST SWAP1 POP SWAP2 SWAP1 POP JUMP JUMPDEST PUSH2 0x197 DUP2 PUSH2 0x17D JUMP JUMPDEST DUP3 MSTORE POP POP JUMP JUMPDEST PUSH0 PUSH1 0x20 DUP3 ADD SWAP1 POP PUSH2 0x1B0 PUSH0 DUP4 ADD DUP5 PUSH2 0x18E JUMP JUMPDEST SWAP3 SWAP2 POP POP JUMP JUMPDEST PUSH2 0x27CB DUP1 PUSH2 0x1C3 PUSH0 CODECOPY PUSH0 RETURN INVALID PUSH1 0x80 PUSH1 0x40 MSTORE CALLVALUE DUP1 ISZERO PUSH2 0xF JUMPI PUSH0 PUSH0 REVERT JUMPDEST POP PUSH1 0x4 CALLDATASIZE LT PUSH2 0xB1 JUMPI PUSH0 CALLDATALOAD PUSH1 0xE0 SHR DUP1 PUSH4 0x8DA5CB5B GT PUSH2 0x6F JUMPI DUP1 PUSH4 0x8DA5CB5B EQ PUSH2 0x17C JUMPI DUP1 PUSH4 0x9AA1AFA5 EQ PUSH2 0x19A JUMPI DUP1 PUSH4 0xB6157090 EQ PUSH2 0x1CA JUMPI DUP1 PUSH4 0xB67F1828 EQ PUSH2 0x203 JUMPI DUP1 PUSH4 0xCE614FA3 EQ PUSH2 0x233 JUMPI DUP1 PUSH4 0xF2FDE38B EQ PUSH2 0x24F JUMPI PUSH2 0xB1 JUMP JUMPDEST DUP1 PUSH3 0xAE3BF8 EQ PUSH2 0xB5 JUMPI DUP1 PUSH4 0x3AF79CD EQ PUSH2 0xD1 JUMPI DUP1 PUSH4 0x30D84CC1 EQ PUSH2 0x10A JUMPI DUP1 PUSH4 0x6316483B EQ PUSH2 0x126 JUMPI DUP1 PUSH4 0x6676BF4F EQ PUSH2 0x156 JUMPI DUP1 PUSH4 0x715018A6 EQ PUSH2 0x172 JUMPI JUMPDEST PUSH0 PUSH0 REVERT JUMPDEST PUSH2 0xCF PUSH1 0x4 DUP1 CALLDATASIZE SUB DUP2 ADD SWAP1 PUSH2 0xCA SWAP2 SWAP1 PUSH2 0x17A9 JUMP JUMPDEST PUSH2 0x26B JUMP JUMPDEST STOP JUMPDEST PUSH2 0xEB PUSH1 0x4 DUP1 CALLDATASIZE SUB DUP2 ADD SWAP1 PUSH2 0xE6 SWAP2 SWAP1 PUSH2 0x1807 JUMP JUMPDEST PUSH2 0x36B JUMP JUMPDEST PUSH1 0x40 MLOAD PUSH2 0x101 SWAP11 SWAP10 SWAP9 SWAP8 SWAP7 SWAP6 SWAP5 SWAP4 SWAP3 SWAP2 SWAP1 PUSH2 0x18CE JUMP JUMPDEST PUSH1 0x40 MLOAD DUP1 SWAP2 SUB SWAP1 RETURN JUMPDEST PUSH2 0x124 PUSH1 0x4 DUP1 CALLDATASIZE SUB DUP2 ADD SWAP1 PUSH2 0x11F SWAP2 SWAP1 PUSH2 0x1AE2 JUMP JUMPDEST PUSH2 0x431 JUMP JUMPDEST STOP JUMPDEST PUSH2 0x140 PUSH1 0x4 DUP1 CALLDATASIZE SUB DUP2 ADD SWAP1 PUSH2 0x13B SWAP2 SWAP1 PUSH2 0x1807 JUMP JUMPDEST PUSH2 0x8E4 JUMP JUMPDEST PUSH1 0x40 MLOAD PUSH2 0x14D SWAP2 SWAP1 PUSH2 0x1C3E JUMP JUMPDEST PUSH1 0x40 MLOAD DUP1 SWAP2 SUB SWAP1 RETURN JUMPDEST PUSH2 0x170 PUSH1 0x4 DUP1 CALLDATASIZE SUB DUP2 ADD SWAP1 PUSH2 0x16B SWAP2 SWAP1 PUSH2 0x1807 JUMP JUMPDEST PUSH2 0x94E JUMP JUMPDEST STOP JUMPDEST PUSH2 0x17A PUSH2 0xBC9 JUMP JUMPDEST STOP JUMPDEST PUSH2 0x184 PUSH2 0xBDC JUMP JUMPDEST PUSH1 0x40 MLOAD PUSH2 0x191 SWAP2 SWAP1 PUSH2 0x1C5E JUMP JUMPDEST PUSH1 0x40 MLOAD DUP1 SWAP2 SUB SWAP1 RETURN JUMPDEST PUSH2 0x1B4 PUSH1 0x4 DUP1 CALLDATASIZE SUB DUP2 ADD SWAP1 PUSH2 0x1AF SWAP2 SWAP1 PUSH2 0x1807 JUMP JUMPDEST PUSH2 0xC03 JUMP JUMPDEST PUSH1 0x40 MLOAD PUSH2 0x1C1 SWAP2 SWAP1 PUSH2 0x1C77 JUMP JUMPDEST PUSH1 0x40 MLOAD DUP1 SWAP2 SUB SWAP1 RETURN JUMPDEST PUSH2 0x1E4 PUSH1 0x4 DUP1 CALLDATASIZE SUB DUP2 ADD SWAP1 PUSH2 0x1DF SWAP2 SWAP1 PUSH2 0x1807 JUMP JUMPDEST PUSH2 0xC4A JUMP JUMPDEST PUSH1 0x40 MLOAD PUSH2 0x1FA SWAP11 SWAP10 SWAP9 SWAP8 SWAP7 SWAP6 SWAP5 SWAP4 SWAP3 SWAP2 SWAP1 PUSH2 0x1C90 JUMP JUMPDEST PUSH1 0x40 MLOAD DUP1 SWAP2 SUB SWAP1 RETURN JUMPDEST PUSH2 0x21D PUSH1 0x4 DUP1 CALLDATASIZE SUB DUP2 ADD SWAP1 PUSH2 0x218 SWAP2 SWAP1 PUSH2 0x1807 JUMP JUMPDEST PUSH2 0xD68 JUMP JUMPDEST PUSH1 0x40 MLOAD PUSH2 0x22A SWAP2 SWAP1 PUSH2 0x1C77 JUMP JUMPDEST PUSH1 0x40 MLOAD DUP1 SWAP2 SUB SWAP1 RETURN JUMPDEST PUSH2 0x24D PUSH1 0x4 DUP1 CALLDATASIZE SUB DUP2 ADD SWAP1 PUSH2 0x248 SWAP2 SWAP1 PUSH2 0x1D2A JUMP JUMPDEST PUSH2 0xDE6 JUMP JUMPDEST STOP JUMPDEST PUSH2 0x269 PUSH1 0x4 DUP1 CALLDATASIZE SUB DUP2 ADD SWAP1 PUSH2 0x264 SWAP2 SWAP1 PUSH2 0x17A9 JUMP JUMPDEST PUSH2 0x131A JUMP JUMPDEST STOP JUMPDEST PUSH2 0x273 PUSH2 0x139E JUMP JUMPDEST PUSH0 DUP2 SWAP1 POP PUSH0 DUP2 PUSH20 0xFFFFFFFFFFFFFFFFFFFFFFFFFFFFFFFFFFFFFFFF AND PUSH4 0x70A08231 ADDRESS PUSH1 0x40 MLOAD DUP3 PUSH4 0xFFFFFFFF AND PUSH1 0xE0 SHL DUP2 MSTORE PUSH1 0x4 ADD PUSH2 0x2B1 SWAP2 SWAP1 PUSH2 0x1C5E JUMP JUMPDEST PUSH1 0x20 PUSH1 0x40 MLOAD DUP1 DUP4 SUB DUP2 DUP7 GAS STATICCALL ISZERO DUP1 ISZERO PUSH2 0x2CC JUMPI RETURNDATASIZE PUSH0 PUSH0 RETURNDATACOPY RETURNDATASIZE PUSH0 REVERT JUMPDEST POP POP POP POP PUSH1 0x40 MLOAD RETURNDATASIZE PUSH1 0x1F NOT PUSH1 0x1F DUP3 ADD AND DUP3 ADD DUP1 PUSH1 0x40 MSTORE POP DUP2 ADD SWAP1 PUSH2 0x2F0 SWAP2 SWAP1 PUSH2 0x1D7C JUMP JUMPDEST SWAP1 POP PUSH0 DUP2 GT PUSH2 0x334 JUMPI PUSH1 0x40 MLOAD PUSH32 0x8C379A000000000000000000000000000000000000000000000000000000000 DUP2 MSTORE PUSH1 0x4 ADD PUSH2 0x32B SWAP1 PUSH2 0x1E01 JUMP JUMPDEST PUSH1 0x40 MLOAD DUP1 SWAP2 SUB SWAP1 REVERT JUMPDEST PUSH2 0x366 PUSH2 0x33F PUSH2 0xBDC JUMP JUMPDEST DUP3 DUP5 PUSH20 0xFFFFFFFFFFFFFFFFFFFFFFFFFFFFFFFFFFFFFFFF AND PUSH2 0x1425 SWAP1 SWAP3 SWAP2 SWAP1 PUSH4 0xFFFFFFFF AND JUMP JUMPDEST POP POP POP JUMP JUMPDEST PUSH1 0x2 PUSH1 0x20 MSTORE DUP1 PUSH0 MSTORE PUSH1 0x40 PUSH0 KECCAK256 PUSH0 SWAP2 POP SWAP1 POP DUP1 PUSH0 ADD PUSH0 SWAP1 SLOAD SWAP1 PUSH2 0x100 EXP SWAP1 DIV PUSH20 0xFFFFFFFFFFFFFFFFFFFFFFFFFFFFFFFFFFFFFFFF AND SWAP1 DUP1 PUSH1 0x1 ADD PUSH0 SWAP1 SLOAD SWAP1 PUSH2 0x100 EXP SWAP1 DIV PUSH20 0xFFFFFFFFFFFFFFFFFFFFFFFFFFFFFFFFFFFFFFFF AND SWAP1 DUP1 PUSH1 0x2 ADD PUSH0 SWAP1 SLOAD SWAP1 PUSH2 0x100 EXP SWAP1 DIV PUSH20 0xFFFFFFFFFFFFFFFFFFFFFFFFFFFFFFFFFFFFFFFF AND SWAP1 DUP1 PUSH1 0x3 ADD SLOAD SWAP1 DUP1 PUSH1 0x4 ADD SLOAD SWAP1 DUP1 PUSH1 0x5 ADD SLOAD SWAP1 DUP1 PUSH1 0x6 ADD SLOAD SWAP1 DUP1 PUSH1 0x7 ADD PUSH0 SWAP1 SLOAD SWAP1 PUSH2 0x100 EXP SWAP1 DIV PUSH1 0xFF AND SWAP1 DUP1 PUSH1 0x7 ADD PUSH1 0x1 SWAP1 SLOAD SWAP1 PUSH2 0x100 EXP SWAP1 DIV PUSH1 0xFF AND SWAP1 DUP1 PUSH1 0x9 ADD SLOAD SWAP1 POP DUP11 JUMP JUMPDEST PUSH2 0x439 PUSH2 0x14A4 JUMP JUMPDEST PUSH0 PUSH20 0xFFFFFFFFFFFFFFFFFFFFFFFFFFFFFFFFFFFFFFFF AND PUSH1 0x2 PUSH0 DUP9 DUP2 MSTORE PUSH1 0x20 ADD SWAP1 DUP2 MSTORE PUSH1 0x20 ADD PUSH0 KECCAK256 PUSH0 ADD PUSH0 SWAP1 SLOAD SWAP1 PUSH2 0x100 EXP SWAP1 DIV PUSH20 0xFFFFFFFFFFFFFFFFFFFFFFFFFFFFFFFFFFFFFFFF AND PUSH20 0xFFFFFFFFFFFFFFFFFFFFFFFFFFFFFFFFFFFFFFFF AND EQ PUSH2 0x4D9 JUMPI PUSH1 0x40 MLOAD PUSH32 0x8C379A000000000000000000000000000000000000000000000000000000000 DUP2 MSTORE PUSH1 0x4 ADD PUSH2 0x4D0 SWAP1 PUSH2 0x1E69 JUMP JUMPDEST PUSH1 0x40 MLOAD DUP1 SWAP2 SUB SWAP1 REVERT JUMPDEST PUSH0 PUSH20 0xFFFFFFFFFFFFFFFFFFFFFFFFFFFFFFFFFFFFFFFF AND DUP6 PUSH20 0xFFFFFFFFFFFFFFFFFFFFFFFFFFFFFFFFFFFFFFFF AND SUB PUSH2 0x547 JUMPI PUSH1 0x40 MLOAD PUSH32 0x8C379A000000000000000000000000000000000000000000000000000000000 DUP2 MSTORE PUSH1 0x4 ADD PUSH2 0x53E SWAP1 PUSH2 0x1ED1 JUMP JUMPDEST PUSH1 0x40 MLOAD DUP1 SWAP2 SUB SWAP1 REVERT JUMPDEST PUSH0 DUP4 GT PUSH2 0x589 JUMPI PUSH1 0x40 MLOAD PUSH32 0x8C379A000000000000000000000000000000000000000000000000000000000 DUP2 MSTORE PUSH1 0x4 ADD PUSH2 0x580 SWAP1 PUSH2 0x1F39 JUMP JUMPDEST PUSH1 0x40 MLOAD DUP1 SWAP2 SUB SWAP1 REVERT JUMPDEST PUSH2 0x2710 DUP3 GT ISZERO PUSH2 0x5CE JUMPI PUSH1 0x40 MLOAD PUSH32 0x8C379A000000000000000000000000000000000000000000000000000000000 DUP2 MSTORE PUSH1 0x4 ADD PUSH2 0x5C5 SWAP1 PUSH2 0x1FA1 JUMP JUMPDEST PUSH1 0x40 MLOAD DUP1 SWAP2 SUB SWAP1 REVERT JUMPDEST PUSH0 DUP2 MLOAD GT PUSH2 0x611 JUMPI PUSH1 0x40 MLOAD PUSH32 0x8C379A000000000000000000000000000000000000000000000000000000000 DUP2 MSTORE PUSH1 0x4 ADD PUSH2 0x608 SWAP1 PUSH2 0x2009 JUMP JUMPDEST PUSH1 0x40 MLOAD DUP1 SWAP2 SUB SWAP1 REVERT JUMPDEST PUSH0 DUP2 MLOAD SWAP1 POP PUSH0 PUSH0 SWAP1 POP PUSH0 PUSH0 SWAP1 POP JUMPDEST DUP3 DUP2 LT ISZERO PUSH2 0x6E4 JUMPI PUSH0 DUP5 DUP3 DUP2 MLOAD DUP2 LT PUSH2 0x63B JUMPI PUSH2 0x63A PUSH2 0x2027 JUMP JUMPDEST JUMPDEST PUSH1 0x20 MUL PUSH1 0x20 ADD ADD MLOAD SWAP1 POP TIMESTAMP DUP2 LT ISZERO PUSH2 0x688 JUMPI PUSH1 0x40 MLOAD PUSH32 0x8C379A000000000000000000000000000000000000000000000000000000000 DUP2 MSTORE PUSH1 0x4 ADD PUSH2 0x67F SWAP1 PUSH2 0x209E JUMP JUMPDEST PUSH1 0x40 MLOAD DUP1 SWAP2 SUB SWAP1 REVERT JUMPDEST PUSH0 DUP3 GT ISZERO PUSH2 0x6D3 JUMPI DUP3 DUP2 GT PUSH2 0x6D2 JUMPI PUSH1 0x40 MLOAD PUSH32 0x8C379A000000000000000000000000000000000000000000000000000000000 DUP2 MSTORE PUSH1 0x4 ADD PUSH2 0x6C9 SWAP1 PUSH2 0x2106 JUMP JUMPDEST PUSH1 0x40 MLOAD DUP1 SWAP2 SUB SWAP1 REVERT JUMPDEST JUMPDEST DUP1 SWAP3 POP POP DUP1 DUP1 PUSH1 0x1 ADD SWAP2 POP POP PUSH2 0x61F JUMP JUMPDEST POP PUSH0 PUSH2 0x2710 DUP6 DUP8 PUSH2 0x6F5 SWAP2 SWAP1 PUSH2 0x2151 JUMP JUMPDEST PUSH2 0x6FF SWAP2 SWAP1 PUSH2 0x21BF JUMP JUMPDEST DUP7 PUSH2 0x70A SWAP2 SWAP1 PUSH2 0x21EF JUMP JUMPDEST SWAP1 POP PUSH0 PUSH1 0x2 PUSH0 DUP12 DUP2 MSTORE PUSH1 0x20 ADD SWAP1 DUP2 MSTORE PUSH1 0x20 ADD PUSH0 KECCAK256 SWAP1 POP CALLER DUP2 PUSH0 ADD PUSH0 PUSH2 0x100 EXP DUP2 SLOAD DUP2 PUSH20 0xFFFFFFFFFFFFFFFFFFFFFFFFFFFFFFFFFFFFFFFF MUL NOT AND SWAP1 DUP4 PUSH20 0xFFFFFFFFFFFFFFFFFFFFFFFFFFFFFFFFFFFFFFFF AND MUL OR SWAP1 SSTORE POP DUP9 DUP2 PUSH1 0x1 ADD PUSH0 PUSH2 0x100 EXP DUP2 SLOAD DUP2 PUSH20 0xFFFFFFFFFFFFFFFFFFFFFFFFFFFFFFFFFFFFFFFF MUL NOT AND SWAP1 DUP4 PUSH20 0xFFFFFFFFFFFFFFFFFFFFFFFFFFFFFFFFFFFFFFFF AND MUL OR SWAP1 SSTORE POP DUP8 DUP2 PUSH1 0x2 ADD PUSH0 PUSH2 0x100 EXP DUP2 SLOAD DUP2 PUSH20 0xFFFFFFFFFFFFFFFFFFFFFFFFFFFFFFFFFFFFFFFF MUL NOT AND SWAP1 DUP4 PUSH20 0xFFFFFFFFFFFFFFFFFFFFFFFFFFFFFFFFFFFFFFFF AND MUL OR SWAP1 SSTORE POP DUP7 DUP2 PUSH1 0x3 ADD DUP2 SWAP1 SSTORE POP DUP6 DUP2 PUSH1 0x4 ADD DUP2 SWAP1 SSTORE POP DUP2 DUP2 PUSH1 0x5 ADD DUP2 SWAP1 SSTORE POP PUSH0 DUP2 PUSH1 0x6 ADD DUP2 SWAP1 SSTORE POP PUSH0 DUP2 PUSH1 0x7 ADD PUSH0 PUSH2 0x100 EXP DUP2 SLOAD DUP2 PUSH1 0xFF MUL NOT AND SWAP1 DUP4 ISZERO ISZERO MUL OR SWAP1 SSTORE POP PUSH0 DUP2 PUSH1 0x7 ADD PUSH1 0x1 PUSH2 0x100 EXP DUP2 SLOAD DUP2 PUSH1 0xFF MUL NOT AND SWAP1 DUP4 ISZERO ISZERO MUL OR SWAP1 SSTORE POP DUP5 DUP2 PUSH1 0x8 ADD SWAP1 DUP1 MLOAD SWAP1 PUSH1 0x20 ADD SWAP1 PUSH2 0x858 SWAP3 SWAP2 SWAP1 PUSH2 0x16D8 JUMP JUMPDEST POP PUSH0 DUP2 PUSH1 0x9 ADD DUP2 SWAP1 SSTORE POP DUP9 PUSH20 0xFFFFFFFFFFFFFFFFFFFFFFFFFFFFFFFFFFFFFFFF AND CALLER PUSH20 0xFFFFFFFFFFFFFFFFFFFFFFFFFFFFFFFFFFFFFFFF AND DUP12 PUSH32 0x679A35F396A7F020F0066BB8801931EBE39B7E55A1A1418D54CBD3AA724AF7A8 DUP12 DUP12 DUP12 DUP9 DUP13 PUSH1 0x40 MLOAD PUSH2 0x8C8 SWAP6 SWAP5 SWAP4 SWAP3 SWAP2 SWAP1 PUSH2 0x2222 JUMP JUMPDEST PUSH1 0x40 MLOAD DUP1 SWAP2 SUB SWAP1 LOG4 POP POP POP POP PUSH2 0x8DC PUSH2 0x14EA JUMP JUMPDEST POP POP POP POP POP POP JUMP JUMPDEST PUSH1 0x60 PUSH1 0x2 PUSH0 DUP4 DUP2 MSTORE PUSH1 0x20 ADD SWAP1 DUP2 MSTORE PUSH1 0x20 ADD PUSH0 KECCAK256 PUSH1 0x8 ADD DUP1 SLOAD DUP1 PUSH1 0x20 MUL PUSH1 0x20 ADD PUSH1 0x40 MLOAD SWAP1 DUP2 ADD PUSH1 0x40 MSTORE DUP1 SWAP3 SWAP2 SWAP1 DUP2 DUP2 MSTORE PUSH1 0x20 ADD DUP3 DUP1 SLOAD DUP1 ISZERO PUSH2 0x942 JUMPI PUSH1 0x20 MUL DUP3 ADD SWAP2 SWAP1 PUSH0 MSTORE PUSH1 0x20 PUSH0 KECCAK256 SWAP1 JUMPDEST DUP2 SLOAD DUP2 MSTORE PUSH1 0x20 ADD SWAP1 PUSH1 0x1 ADD SWAP1 DUP1 DUP4 GT PUSH2 0x92E JUMPI JUMPDEST POP POP POP POP POP SWAP1 POP SWAP2 SWAP1 POP JUMP JUMPDEST PUSH2 0x956 PUSH2 0x14A4 JUMP JUMPDEST PUSH0 PUSH1 0x2 PUSH0 DUP4 DUP2 MSTORE PUSH1 0x20 ADD SWAP1 DUP2 MSTORE PUSH1 0x20 ADD PUSH0 KECCAK256 SWAP1 POP PUSH0 PUSH20 0xFFFFFFFFFFFFFFFFFFFFFFFFFFFFFFFFFFFFFFFF AND DUP2 PUSH0 ADD PUSH0 SWAP1 SLOAD SWAP1 PUSH2 0x100 EXP SWAP1 DIV PUSH20 0xFFFFFFFFFFFFFFFFFFFFFFFFFFFFFFFFFFFFFFFF AND PUSH20 0xFFFFFFFFFFFFFFFFFFFFFFFFFFFFFFFFFFFFFFFF AND SUB PUSH2 0x9FA JUMPI PUSH1 0x40 MLOAD PUSH32 0x8C379A000000000000000000000000000000000000000000000000000000000 DUP2 MSTORE PUSH1 0x4 ADD PUSH2 0x9F1 SWAP1 PUSH2 0x22C4 JUMP JUMPDEST PUSH1 0x40 MLOAD DUP1 SWAP2 SUB SWAP1 REVERT JUMPDEST DUP1 PUSH0 ADD PUSH0 SWAP1 SLOAD SWAP1 PUSH2 0x100 EXP SWAP1 DIV PUSH20 0xFFFFFFFFFFFFFFFFFFFFFFFFFFFFFFFFFFFFFFFF AND PUSH20 0xFFFFFFFFFFFFFFFFFFFFFFFFFFFFFFFFFFFFFFFF AND CALLER PUSH20 0xFFFFFFFFFFFFFFFFFFFFFFFFFFFFFFFFFFFFFFFF AND EQ PUSH2 0xA8A JUMPI PUSH1 0x40 MLOAD PUSH32 0x8C379A000000000000000000000000000000000000000000000000000000000 DUP2 MSTORE PUSH1 0x4 ADD PUSH2 0xA81 SWAP1 PUSH2 0x232C JUMP JUMPDEST PUSH1 0x40 MLOAD DUP1 SWAP2 SUB SWAP1 REVERT JUMPDEST DUP1 PUSH1 0x7 ADD PUSH0 SWAP1 SLOAD SWAP1 PUSH2 0x100 EXP SWAP1 DIV PUSH1 0xFF AND ISZERO PUSH2 0xADB JUMPI PUSH1 0x40 MLOAD PUSH32 0x8C379A000000000000000000000000000000000000000000000000000000000 DUP2 MSTORE PUSH1 0x4 ADD PUSH2 0xAD2 SWAP1 PUSH2 0x2394 JUMP JUMPDEST PUSH1 0x40 MLOAD DUP1 SWAP2 SUB SWAP1 REVERT JUMPDEST PUSH2 0xB74 DUP2 PUSH0 ADD PUSH0 SWAP1 SLOAD SWAP1 PUSH2 0x100 EXP SWAP1 DIV PUSH20 0xFFFFFFFFFFFFFFFFFFFFFFFFFFFFFFFFFFFFFFFF AND DUP3 PUSH1 0x1 ADD PUSH0 SWAP1 SLOAD SWAP1 PUSH2 0x100 EXP SWAP1 DIV PUSH20 0xFFFFFFFFFFFFFFFFFFFFFFFFFFFFFFFFFFFFFFFF AND DUP4 PUSH1 0x3 ADD SLOAD DUP5 PUSH1 0x2 ADD PUSH0 SWAP1 SLOAD SWAP1 PUSH2 0x100 EXP SWAP1 DIV PUSH20 0xFFFFFFFFFFFFFFFFFFFFFFFFFFFFFFFFFFFFFFFF AND PUSH20 0xFFFFFFFFFFFFFFFFFFFFFFFFFFFFFFFFFFFFFFFF AND PUSH2 0x14F3 SWAP1 SWAP4 SWAP3 SWAP2 SWAP1 PUSH4 0xFFFFFFFF AND JUMP JUMPDEST PUSH1 0x1 DUP2 PUSH1 0x7 ADD PUSH0 PUSH2 0x100 EXP DUP2 SLOAD DUP2 PUSH1 0xFF MUL NOT AND SWAP1 DUP4 ISZERO ISZERO MUL OR SWAP1 SSTORE POP DUP2 PUSH32 0xBEC62F1874A5747638AC99EA0BF3C512A2A5EBD945412BD231CA5E71CE1363C0 PUSH1 0x40 MLOAD PUSH1 0x40 MLOAD DUP1 SWAP2 SUB SWAP1 LOG2 POP PUSH2 0xBC6 PUSH2 0x14EA JUMP JUMPDEST POP JUMP JUMPDEST PUSH2 0xBD1 PUSH2 0x139E JUMP JUMPDEST PUSH2 0xBDA PUSH0 PUSH2 0x1575 JUMP JUMPDEST JUMP JUMPDEST PUSH0 PUSH0 PUSH0 SWAP1 SLOAD SWAP1 PUSH2 0x100 EXP SWAP1 DIV PUSH20 0xFFFFFFFFFFFFFFFFFFFFFFFFFFFFFFFFFFFFFFFF AND SWAP1 POP SWAP1 JUMP JUMPDEST PUSH0 PUSH0 PUSH1 0x2 PUSH0 DUP5 DUP2 MSTORE PUSH1 0x20 ADD SWAP1 DUP2 MSTORE PUSH1 0x20 ADD PUSH0 KECCAK256 SWAP1 POP DUP1 PUSH1 0x6 ADD SLOAD DUP2 PUSH1 0x5 ADD SLOAD GT PUSH2 0xC2D JUMPI PUSH0 PUSH2 0xC42 JUMP JUMPDEST DUP1 PUSH1 0x6 ADD SLOAD DUP2 PUSH1 0x5 ADD SLOAD PUSH2 0xC41 SWAP2 SWAP1 PUSH2 0x23B2 JUMP JUMPDEST JUMPDEST SWAP2 POP POP SWAP2 SWAP1 POP JUMP JUMPDEST PUSH0 PUSH0 PUSH0 PUSH0 PUSH0 PUSH0 PUSH0 PUSH0 PUSH0 PUSH0 PUSH0 PUSH1 0x2 PUSH0 DUP14 DUP2 MSTORE PUSH1 0x20 ADD SWAP1 DUP2 MSTORE PUSH1 0x20 ADD PUSH0 KECCAK256 SWAP1 POP DUP1 PUSH0 ADD PUSH0 SWAP1 SLOAD SWAP1 PUSH2 0x100 EXP SWAP1 DIV PUSH20 0xFFFFFFFFFFFFFFFFFFFFFFFFFFFFFFFFFFFFFFFF AND SWAP11 POP DUP1 PUSH1 0x1 ADD PUSH0 SWAP1 SLOAD SWAP1 PUSH2 0x100 EXP SWAP1 DIV PUSH20 0xFFFFFFFFFFFFFFFFFFFFFFFFFFFFFFFFFFFFFFFF AND SWAP10 POP DUP1 PUSH1 0x2 ADD PUSH0 SWAP1 SLOAD SWAP1 PUSH2 0x100 EXP SWAP1 DIV PUSH20 0xFFFFFFFFFFFFFFFFFFFFFFFFFFFFFFFFFFFFFFFF AND SWAP9 POP DUP1 PUSH1 0x3 ADD SLOAD SWAP8 POP DUP1 PUSH1 0x4 ADD SLOAD SWAP7 POP DUP1 PUSH1 0x5 ADD SLOAD SWAP6 POP DUP1 PUSH1 0x6 ADD SLOAD SWAP5 POP DUP1 PUSH1 0x7 ADD PUSH0 SWAP1 SLOAD SWAP1 PUSH2 0x100 EXP SWAP1 DIV PUSH1 0xFF AND SWAP4 POP DUP1 PUSH1 0x7 ADD PUSH1 0x1 SWAP1 SLOAD SWAP1 PUSH2 0x100 EXP SWAP1 DIV PUSH1 0xFF AND SWAP3 POP DUP1 PUSH1 0x8 ADD DUP1 SLOAD SWAP1 POP DUP2 PUSH1 0x9 ADD SLOAD LT PUSH2 0xD34 JUMPI PUSH0 PUSH2 0xD58 JUMP JUMPDEST DUP1 PUSH1 0x8 ADD DUP2 PUSH1 0x9 ADD SLOAD DUP2 SLOAD DUP2 LT PUSH2 0xD4E JUMPI PUSH2 0xD4D PUSH2 0x2027 JUMP JUMPDEST JUMPDEST SWAP1 PUSH0 MSTORE PUSH1 0x20 PUSH0 KECCAK256 ADD SLOAD JUMPDEST SWAP2 POP POP SWAP2 SWAP4 SWAP6 SWAP8 SWAP10 POP SWAP2 SWAP4 SWAP6 SWAP8 SWAP10 JUMP JUMPDEST PUSH0 PUSH0 PUSH1 0x2 PUSH0 DUP5 DUP2 MSTORE PUSH1 0x20 ADD SWAP1 DUP2 MSTORE PUSH1 0x20 ADD PUSH0 KECCAK256 SWAP1 POP PUSH0 PUSH0 SWAP1 POP PUSH0 DUP3 PUSH1 0x8 ADD DUP1 SLOAD SWAP1 POP SWAP1 POP PUSH0 PUSH0 SWAP1 POP JUMPDEST DUP2 DUP2 LT ISZERO PUSH2 0xDDA JUMPI DUP4 PUSH1 0x8 ADD DUP2 DUP2 SLOAD DUP2 LT PUSH2 0xDAF JUMPI PUSH2 0xDAE PUSH2 0x2027 JUMP JUMPDEST JUMPDEST SWAP1 PUSH0 MSTORE PUSH1 0x20 PUSH0 KECCAK256 ADD SLOAD TIMESTAMP LT PUSH2 0xDCD JUMPI DUP3 DUP1 PUSH2 0xDC9 SWAP1 PUSH2 0x23E5 JUMP JUMPDEST SWAP4 POP POP JUMPDEST DUP1 DUP1 PUSH1 0x1 ADD SWAP2 POP POP PUSH2 0xD91 JUMP JUMPDEST POP DUP2 SWAP4 POP POP POP POP SWAP2 SWAP1 POP JUMP JUMPDEST PUSH2 0xDEE PUSH2 0x14A4 JUMP JUMPDEST PUSH0 PUSH1 0x2 PUSH0 DUP5 DUP2 MSTORE PUSH1 0x20 ADD SWAP1 DUP2 MSTORE PUSH1 0x20 ADD PUSH0 KECCAK256 SWAP1 POP PUSH0 PUSH20 0xFFFFFFFFFFFFFFFFFFFFFFFFFFFFFFFFFFFFFFFF AND DUP2 PUSH0 ADD PUSH0 SWAP1 SLOAD SWAP1 PUSH2 0x100 EXP SWAP1 DIV PUSH20 0xFFFFFFFFFFFFFFFFFFFFFFFFFFFFFFFFFFFFFFFF AND PUSH20 0xFFFFFFFFFFFFFFFFFFFFFFFFFFFFFFFFFFFFFFFF AND SUB PUSH2 0xE92 JUMPI PUSH1 0x40 MLOAD PUSH32 0x8C379A000000000000000000000000000000000000000000000000000000000 DUP2 MSTORE PUSH1 0x4 ADD PUSH2 0xE89 SWAP1 PUSH2 0x22C4 JUMP JUMPDEST PUSH1 0x40 MLOAD DUP1 SWAP2 SUB SWAP1 REVERT JUMPDEST DUP1 PUSH1 0x7 ADD PUSH0 SWAP1 SLOAD SWAP1 PUSH2 0x100 EXP SWAP1 DIV PUSH1 0xFF AND PUSH2 0xEE2 JUMPI PUSH1 0x40 MLOAD PUSH32 0x8C379A000000000000000000000000000000000000000000000000000000000 DUP2 MSTORE PUSH1 0x4 ADD PUSH2 0xED9 SWAP1 PUSH2 0x2476 JUMP JUMPDEST PUSH1 0x40 MLOAD DUP1 SWAP2 SUB SWAP1 REVERT JUMPDEST DUP1 PUSH1 0x7 ADD PUSH1 0x1 SWAP1 SLOAD SWAP1 PUSH2 0x100 EXP SWAP1 DIV PUSH1 0xFF AND ISZERO PUSH2 0xF34 JUMPI PUSH1 0x40 MLOAD PUSH32 0x8C379A000000000000000000000000000000000000000000000000000000000 DUP2 MSTORE PUSH1 0x4 ADD PUSH2 0xF2B SWAP1 PUSH2 0x24DE JUMP JUMPDEST PUSH1 0x40 MLOAD DUP1 SWAP2 SUB SWAP1 REVERT JUMPDEST DUP1 PUSH1 0x1 ADD PUSH0 SWAP1 SLOAD SWAP1 PUSH2 0x100 EXP SWAP1 DIV PUSH20 0xFFFFFFFFFFFFFFFFFFFFFFFFFFFFFFFFFFFFFFFF AND PUSH20 0xFFFFFFFFFFFFFFFFFFFFFFFFFFFFFFFFFFFFFFFF AND CALLER PUSH20 0xFFFFFFFFFFFFFFFFFFFFFFFFFFFFFFFFFFFFFFFF AND EQ PUSH2 0xFC5 JUMPI PUSH1 0x40 MLOAD PUSH32 0x8C379A000000000000000000000000000000000000000000000000000000000 DUP2 MSTORE PUSH1 0x4 ADD PUSH2 0xFBC SWAP1 PUSH2 0x2546 JUMP JUMPDEST PUSH1 0x40 MLOAD DUP1 SWAP2 SUB SWAP1 REVERT JUMPDEST PUSH0 DUP2 PUSH1 0x9 ADD SLOAD SWAP1 POP DUP2 PUSH1 0x8 ADD DUP1 SLOAD SWAP1 POP DUP2 LT PUSH2 0x1016 JUMPI PUSH1 0x40 MLOAD PUSH32 0x8C379A000000000000000000000000000000000000000000000000000000000 DUP2 MSTORE PUSH1 0x4 ADD PUSH2 0x100D SWAP1 PUSH2 0x25AE JUMP JUMPDEST PUSH1 0x40 MLOAD DUP1 SWAP2 SUB SWAP1 REVERT JUMPDEST DUP2 PUSH1 0x8 ADD DUP2 DUP2 SLOAD DUP2 LT PUSH2 0x102C JUMPI PUSH2 0x102B PUSH2 0x2027 JUMP JUMPDEST JUMPDEST SWAP1 PUSH0 MSTORE PUSH1 0x20 PUSH0 KECCAK256 ADD SLOAD TIMESTAMP LT ISZERO PUSH2 0x1077 JUMPI PUSH1 0x40 MLOAD PUSH32 0x8C379A000000000000000000000000000000000000000000000000000000000 DUP2 MSTORE PUSH1 0x4 ADD PUSH2 0x106E SWAP1 PUSH2 0x2616 JUMP JUMPDEST PUSH1 0x40 MLOAD DUP1 SWAP2 SUB SWAP1 REVERT JUMPDEST PUSH0 DUP3 PUSH1 0x6 ADD SLOAD DUP4 PUSH1 0x5 ADD SLOAD PUSH2 0x108C SWAP2 SWAP1 PUSH2 0x23B2 JUMP JUMPDEST SWAP1 POP PUSH0 DUP3 DUP5 PUSH1 0x8 ADD DUP1 SLOAD SWAP1 POP PUSH2 0x10A2 SWAP2 SWAP1 PUSH2 0x23B2 JUMP JUMPDEST SWAP1 POP PUSH0 DUP2 DUP4 PUSH2 0x10B1 SWAP2 SWAP1 PUSH2 0x21BF JUMP JUMPDEST SWAP1 POP PUSH0 DUP2 GT PUSH2 0x10F5 JUMPI PUSH1 0x40 MLOAD PUSH32 0x8C379A000000000000000000000000000000000000000000000000000000000 DUP2 MSTORE PUSH1 0x4 ADD PUSH2 0x10EC SWAP1 PUSH2 0x267E JUMP JUMPDEST PUSH1 0x40 MLOAD DUP1 SWAP2 SUB SWAP1 REVERT JUMPDEST DUP1 DUP7 EQ PUSH2 0x1137 JUMPI PUSH1 0x40 MLOAD PUSH32 0x8C379A000000000000000000000000000000000000000000000000000000000 DUP2 MSTORE PUSH1 0x4 ADD PUSH2 0x112E SWAP1 PUSH2 0x26E6 JUMP JUMPDEST PUSH1 0x40 MLOAD DUP1 SWAP2 SUB SWAP1 REVERT JUMPDEST PUSH2 0x11CC DUP6 PUSH1 0x1 ADD PUSH0 SWAP1 SLOAD SWAP1 PUSH2 0x100 EXP SWAP1 DIV PUSH20 0xFFFFFFFFFFFFFFFFFFFFFFFFFFFFFFFFFFFFFFFF AND DUP7 PUSH0 ADD PUSH0 SWAP1 SLOAD SWAP1 PUSH2 0x100 EXP SWAP1 DIV PUSH20 0xFFFFFFFFFFFFFFFFFFFFFFFFFFFFFFFFFFFFFFFF AND DUP4 DUP9 PUSH1 0x2 ADD PUSH0 SWAP1 SLOAD SWAP1 PUSH2 0x100 EXP SWAP1 DIV PUSH20 0xFFFFFFFFFFFFFFFFFFFFFFFFFFFFFFFFFFFFFFFF AND PUSH20 0xFFFFFFFFFFFFFFFFFFFFFFFFFFFFFFFFFFFFFFFF AND PUSH2 0x14F3 SWAP1 SWAP4 SWAP3 SWAP2 SWAP1 PUSH4 0xFFFFFFFF AND JUMP JUMPDEST DUP1 DUP6 PUSH1 0x6 ADD PUSH0 DUP3 DUP3 SLOAD PUSH2 0x11DF SWAP2 SWAP1 PUSH2 0x21EF JUMP JUMPDEST SWAP3 POP POP DUP2 SWAP1 SSTORE POP PUSH1 0x1 DUP6 PUSH1 0x9 ADD PUSH0 DUP3 DUP3 SLOAD PUSH2 0x11FA SWAP2 SWAP1 PUSH2 0x21EF JUMP JUMPDEST SWAP3 POP POP DUP2 SWAP1 SSTORE POP PUSH0 DUP6 PUSH1 0x6 ADD SLOAD DUP7 PUSH1 0x5 ADD SLOAD PUSH2 0x1216 SWAP2 SWAP1 PUSH2 0x23B2 JUMP JUMPDEST SWAP1 POP PUSH0 DUP7 PUSH1 0x8 ADD DUP1 SLOAD SWAP1 POP DUP8 PUSH1 0x9 ADD SLOAD LT PUSH2 0x1231 JUMPI PUSH0 PUSH2 0x1255 JUMP JUMPDEST DUP7 PUSH1 0x8 ADD DUP8 PUSH1 0x9 ADD SLOAD DUP2 SLOAD DUP2 LT PUSH2 0x124B JUMPI PUSH2 0x124A PUSH2 0x2027 JUMP JUMPDEST JUMPDEST SWAP1 PUSH0 MSTORE PUSH1 0x20 PUSH0 KECCAK256 ADD SLOAD JUMPDEST SWAP1 POP CALLER PUSH20 0xFFFFFFFFFFFFFFFFFFFFFFFFFFFFFFFFFFFFFFFF AND DUP10 PUSH32 0x3E966DED2F69775351B0D34F9C16CBA615D55454B8DCC96874FF8378ED0CEA8B DUP6 DUP6 DUP6 PUSH1 0x40 MLOAD PUSH2 0x12A2 SWAP4 SWAP3 SWAP2 SWAP1 PUSH2 0x2704 JUMP JUMPDEST PUSH1 0x40 MLOAD DUP1 SWAP2 SUB SWAP1 LOG3 DUP7 PUSH1 0x8 ADD DUP1 SLOAD SWAP1 POP DUP8 PUSH1 0x9 ADD SLOAD SUB PUSH2 0x1307 JUMPI PUSH1 0x1 DUP8 PUSH1 0x7 ADD PUSH1 0x1 PUSH2 0x100 EXP DUP2 SLOAD DUP2 PUSH1 0xFF MUL NOT AND SWAP1 DUP4 ISZERO ISZERO MUL OR SWAP1 SSTORE POP DUP9 PUSH32 0x39DEDC2A3F7A596F05388293C3394FD45B0C856EF856CA3E7D629707E7533019 PUSH1 0x40 MLOAD PUSH1 0x40 MLOAD DUP1 SWAP2 SUB SWAP1 LOG2 JUMPDEST POP POP POP POP POP POP POP PUSH2 0x1316 PUSH2 0x14EA JUMP JUMPDEST POP POP JUMP JUMPDEST PUSH2 0x1322 PUSH2 0x139E JUMP JUMPDEST PUSH0 PUSH20 0xFFFFFFFFFFFFFFFFFFFFFFFFFFFFFFFFFFFFFFFF AND DUP2 PUSH20 0xFFFFFFFFFFFFFFFFFFFFFFFFFFFFFFFFFFFFFFFF AND SUB PUSH2 0x1392 JUMPI PUSH0 PUSH1 0x40 MLOAD PUSH32 0x1E4FBDF700000000000000000000000000000000000000000000000000000000 DUP2 MSTORE PUSH1 0x4 ADD PUSH2 0x1389 SWAP2 SWAP1 PUSH2 0x1C5E JUMP JUMPDEST PUSH1 0x40 MLOAD DUP1 SWAP2 SUB SWAP1 REVERT JUMPDEST PUSH2 0x139B DUP2 PUSH2 0x1575 JUMP JUMPDEST POP JUMP JUMPDEST PUSH2 0x13A6 PUSH2 0x1636 JUMP JUMPDEST PUSH20 0xFFFFFFFFFFFFFFFFFFFFFFFFFFFFFFFFFFFFFFFF AND PUSH2 0x13C4 PUSH2 0xBDC JUMP JUMPDEST PUSH20 0xFFFFFFFFFFFFFFFFFFFFFFFFFFFFFFFFFFFFFFFF AND EQ PUSH2 0x1423 JUMPI PUSH2 0x13E7 PUSH2 0x1636 JUMP JUMPDEST PUSH1 0x40 MLOAD PUSH32 0x118CDAA700000000000000000000000000000000000000000000000000000000 DUP2 MSTORE PUSH1 0x4 ADD PUSH2 0x141A SWAP2 SWAP1 PUSH2 0x1C5E JUMP JUMPDEST PUSH1 0x40 MLOAD DUP1 SWAP2 SUB SWAP1 REVERT JUMPDEST JUMP JUMPDEST PUSH2 0x149F DUP4 DUP5 PUSH20 0xFFFFFFFFFFFFFFFFFFFFFFFFFFFFFFFFFFFFFFFF AND PUSH4 0xA9059CBB DUP6 DUP6 PUSH1 0x40 MLOAD PUSH1 0x24 ADD PUSH2 0x1458 SWAP3 SWAP2 SWAP1 PUSH2 0x2739 JUMP JUMPDEST PUSH1 0x40 MLOAD PUSH1 0x20 DUP2 DUP4 SUB SUB DUP2 MSTORE SWAP1 PUSH1 0x40 MSTORE SWAP2 POP PUSH1 0xE0 SHL PUSH1 0x20 DUP3 ADD DUP1 MLOAD PUSH28 0xFFFFFFFFFFFFFFFFFFFFFFFFFFFFFFFFFFFFFFFFFFFFFFFFFFFFFFFF DUP4 DUP2 DUP4 AND OR DUP4 MSTORE POP POP POP POP PUSH2 0x163D JUMP JUMPDEST POP POP POP JUMP JUMPDEST PUSH1 0x2 PUSH1 0x1 SLOAD SUB PUSH2 0x14E0 JUMPI PUSH1 0x40 MLOAD PUSH32 0x3EE5AEB500000000000000000000000000000000000000000000000000000000 DUP2 MSTORE PUSH1 0x4 ADD PUSH1 0x40 MLOAD DUP1 SWAP2 SUB SWAP1 REVERT JUMPDEST PUSH1 0x2 PUSH1 0x1 DUP2 SWAP1 SSTORE POP JUMP JUMPDEST PUSH1 0x1 DUP1 DUP2 SWAP1 SSTORE POP JUMP JUMPDEST PUSH2 0x156F DUP5 DUP6 PUSH20 0xFFFFFFFFFFFFFFFFFFFFFFFFFFFFFFFFFFFFFFFF AND PUSH4 0x23B872DD DUP7 DUP7 DUP7 PUSH1 0x40 MLOAD PUSH1 0x24 ADD PUSH2 0x1528 SWAP4 SWAP3 SWAP2 SWAP1 PUSH2 0x2760 JUMP JUMPDEST PUSH1 0x40 MLOAD PUSH1 0x20 DUP2 DUP4 SUB SUB DUP2 MSTORE SWAP1 PUSH1 0x40 MSTORE SWAP2 POP PUSH1 0xE0 SHL PUSH1 0x20 DUP3 ADD DUP1 MLOAD PUSH28 0xFFFFFFFFFFFFFFFFFFFFFFFFFFFFFFFFFFFFFFFFFFFFFFFFFFFFFFFF DUP4 DUP2 DUP4 AND OR DUP4 MSTORE POP POP POP POP PUSH2 0x163D JUMP JUMPDEST POP POP POP POP JUMP JUMPDEST PUSH0 PUSH0 PUSH0 SWAP1 SLOAD SWAP1 PUSH2 0x100 EXP SWAP1 DIV PUSH20 0xFFFFFFFFFFFFFFFFFFFFFFFFFFFFFFFFFFFFFFFF AND SWAP1 POP DUP2 PUSH0 PUSH0 PUSH2 0x100 EXP DUP2 SLOAD DUP2 PUSH20 0xFFFFFFFFFFFFFFFFFFFFFFFFFFFFFFFFFFFFFFFF MUL NOT AND SWAP1 DUP4 PUSH20 0xFFFFFFFFFFFFFFFFFFFFFFFFFFFFFFFFFFFFFFFF AND MUL OR SWAP1 SSTORE POP DUP2 PUSH20 0xFFFFFFFFFFFFFFFFFFFFFFFFFFFFFFFFFFFFFFFF AND DUP2 PUSH20 0xFFFFFFFFFFFFFFFFFFFFFFFFFFFFFFFFFFFFFFFF AND PUSH32 0x8BE0079C531659141344CD1FD0A4F28419497F9722A3DAAFE3B4186F6B6457E0 PUSH1 0x40 MLOAD PUSH1 0x40 MLOAD DUP1 SWAP2 SUB SWAP1 LOG3 POP POP JUMP JUMPDEST PUSH0 CALLER SWAP1 POP SWAP1 JUMP JUMPDEST PUSH0 PUSH0 PUSH1 0x20 PUSH0 DUP5 MLOAD PUSH1 0x20 DUP7 ADD PUSH0 DUP9 GAS CALL DUP1 PUSH2 0x165C JUMPI PUSH1 0x40 MLOAD RETURNDATASIZE PUSH0 DUP3 RETURNDATACOPY RETURNDATASIZE DUP2 REVERT JUMPDEST RETURNDATASIZE SWAP3 POP PUSH0 MLOAD SWAP2 POP POP PUSH0 DUP3 EQ PUSH2 0x1675 JUMPI PUSH1 0x1 DUP2 EQ ISZERO PUSH2 0x1690 JUMP JUMPDEST PUSH0 DUP5 PUSH20 0xFFFFFFFFFFFFFFFFFFFFFFFFFFFFFFFFFFFFFFFF AND EXTCODESIZE EQ JUMPDEST ISZERO PUSH2 0x16D2 JUMPI DUP4 PUSH1 0x40 MLOAD PUSH32 0x5274AFE700000000000000000000000000000000000000000000000000000000 DUP2 MSTORE PUSH1 0x4 ADD PUSH2 0x16C9 SWAP2 SWAP1 PUSH2 0x1C5E JUMP JUMPDEST PUSH1 0x40 MLOAD DUP1 SWAP2 SUB SWAP1 REVERT JUMPDEST POP POP POP POP JUMP JUMPDEST DUP3 DUP1 SLOAD DUP3 DUP3 SSTORE SWAP1 PUSH0 MSTORE PUSH1 0x20 PUSH0 KECCAK256 SWAP1 DUP2 ADD SWAP3 DUP3 ISZERO PUSH2 0x1712 JUMPI SWAP2 PUSH1 0x20 MUL DUP3 ADD JUMPDEST DUP3 DUP2 GT ISZERO PUSH2 0x1711 JUMPI DUP3 MLOAD DUP3 SSTORE SWAP2 PUSH1 0x20 ADD SWAP2 SWAP1 PUSH1 0x1 ADD SWAP1 PUSH2 0x16F6 JUMP JUMPDEST JUMPDEST POP SWAP1 POP PUSH2 0x171F SWAP2 SWAP1 PUSH2 0x1723 JUMP JUMPDEST POP SWAP1 JUMP JUMPDEST JUMPDEST DUP1 DUP3 GT ISZERO PUSH2 0x173A JUMPI PUSH0 DUP2 PUSH0 SWAP1 SSTORE POP PUSH1 0x1 ADD PUSH2 0x1724 JUMP JUMPDEST POP SWAP1 JUMP JUMPDEST PUSH0 PUSH1 0x40 MLOAD SWAP1 POP SWAP1 JUMP JUMPDEST PUSH0 PUSH0 REVERT JUMPDEST PUSH0 PUSH0 REVERT JUMPDEST PUSH0 PUSH20 0xFFFFFFFFFFFFFFFFFFFFFFFFFFFFFFFFFFFFFFFF DUP3 AND SWAP1 POP SWAP2 SWAP1 POP JUMP JUMPDEST PUSH0 PUSH2 0x1778 DUP3 PUSH2 0x174F JUMP JUMPDEST SWAP1 POP SWAP2 SWAP1 POP JUMP JUMPDEST PUSH2 0x1788 DUP2 PUSH2 0x176E JUMP JUMPDEST DUP2 EQ PUSH2 0x1792 JUMPI PUSH0 PUSH0 REVERT JUMPDEST POP JUMP JUMPDEST PUSH0 DUP2 CALLDATALOAD SWAP1 POP PUSH2 0x17A3 DUP2 PUSH2 0x177F JUMP JUMPDEST SWAP3 SWAP2 POP POP JUMP JUMPDEST PUSH0 PUSH1 0x20 DUP3 DUP5 SUB SLT ISZERO PUSH2 0x17BE JUMPI PUSH2 0x17BD PUSH2 0x1747 JUMP JUMPDEST JUMPDEST PUSH0 PUSH2 0x17CB DUP5 DUP3 DUP6 ADD PUSH2 0x1795 JUMP JUMPDEST SWAP2 POP POP SWAP3 SWAP2 POP POP JUMP JUMPDEST PUSH0 DUP2 SWAP1 POP SWAP2 SWAP1 POP JUMP JUMPDEST PUSH2 0x17E6 DUP2 PUSH2 0x17D4 JUMP JUMPDEST DUP2 EQ PUSH2 0x17F0 JUMPI PUSH0 PUSH0 REVERT JUMPDEST POP JUMP JUMPDEST PUSH0 DUP2 CALLDATALOAD SWAP1 POP PUSH2 0x1801 DUP2 PUSH2 0x17DD JUMP JUMPDEST SWAP3 SWAP2 POP POP JUMP JUMPDEST PUSH0 PUSH1 0x20 DUP3 DUP5 SUB SLT ISZERO PUSH2 0x181C JUMPI PUSH2 0x181B PUSH2 0x1747 JUMP JUMPDEST JUMPDEST PUSH0 PUSH2 0x1829 DUP5 DUP3 DUP6 ADD PUSH2 0x17F3 JUMP JUMPDEST SWAP2 POP POP SWAP3 SWAP2 POP POP JUMP JUMPDEST PUSH2 0x183B DUP2 PUSH2 0x176E JUMP JUMPDEST DUP3 MSTORE POP POP JUMP JUMPDEST PUSH0 DUP2 SWAP1 POP SWAP2 SWAP1 POP JUMP JUMPDEST PUSH0 PUSH2 0x1864 PUSH2 0x185F PUSH2 0x185A DUP5 PUSH2 0x174F JUMP JUMPDEST PUSH2 0x1841 JUMP JUMPDEST PUSH2 0x174F JUMP JUMPDEST SWAP1 POP SWAP2 SWAP1 POP JUMP JUMPDEST PUSH0 PUSH2 0x1875 DUP3 PUSH2 0x184A JUMP JUMPDEST SWAP1 POP SWAP2 SWAP1 POP JUMP JUMPDEST PUSH0 PUSH2 0x1886 DUP3 PUSH2 0x186B JUMP JUMPDEST SWAP1 POP SWAP2 SWAP1 POP JUMP JUMPDEST PUSH2 0x1896 DUP2 PUSH2 0x187C JUMP JUMPDEST DUP3 MSTORE POP POP JUMP JUMPDEST PUSH0 DUP2 SWAP1 POP SWAP2 SWAP1 POP JUMP JUMPDEST PUSH2 0x18AE DUP2 PUSH2 0x189C JUMP JUMPDEST DUP3 MSTORE POP POP JUMP JUMPDEST PUSH0 DUP2 ISZERO ISZERO SWAP1 POP SWAP2 SWAP1 POP JUMP JUMPDEST PUSH2 0x18C8 DUP2 PUSH2 0x18B4 JUMP JUMPDEST DUP3 MSTORE POP POP JUMP JUMPDEST PUSH0 PUSH2 0x140 DUP3 ADD SWAP1 POP PUSH2 0x18E2 PUSH0 DUP4 ADD DUP14 PUSH2 0x1832 JUMP JUMPDEST PUSH2 0x18EF PUSH1 0x20 DUP4 ADD DUP13 PUSH2 0x1832 JUMP JUMPDEST PUSH2 0x18FC PUSH1 0x40 DUP4 ADD DUP12 PUSH2 0x188D JUMP JUMPDEST PUSH2 0x1909 PUSH1 0x60 DUP4 ADD DUP11 PUSH2 0x18A5 JUMP JUMPDEST PUSH2 0x1916 PUSH1 0x80 DUP4 ADD DUP10 PUSH2 0x18A5 JUMP JUMPDEST PUSH2 0x1923 PUSH1 0xA0 DUP4 ADD DUP9 PUSH2 0x18A5 JUMP JUMPDEST PUSH2 0x1930 PUSH1 0xC0 DUP4 ADD DUP8 PUSH2 0x18A5 JUMP JUMPDEST PUSH2 0x193D PUSH1 0xE0 DUP4 ADD DUP7 PUSH2 0x18BF JUMP JUMPDEST PUSH2 0x194B PUSH2 0x100 DUP4 ADD DUP6 PUSH2 0x18BF JUMP JUMPDEST PUSH2 0x1959 PUSH2 0x120 DUP4 ADD DUP5 PUSH2 0x18A5 JUMP JUMPDEST SWAP12 SWAP11 POP POP POP POP POP POP POP POP POP POP POP JUMP JUMPDEST PUSH2 0x1971 DUP2 PUSH2 0x189C JUMP JUMPDEST DUP2 EQ PUSH2 0x197B JUMPI PUSH0 PUSH0 REVERT JUMPDEST POP JUMP JUMPDEST PUSH0 DUP2 CALLDATALOAD SWAP1 POP PUSH2 0x198C DUP2 PUSH2 0x1968 JUMP JUMPDEST SWAP3 SWAP2 POP POP JUMP JUMPDEST PUSH0 PUSH0 REVERT JUMPDEST PUSH0 PUSH1 0x1F NOT PUSH1 0x1F DUP4 ADD AND SWAP1 POP SWAP2 SWAP1 POP JUMP JUMPDEST PUSH32 0x4E487B7100000000000000000000000000000000000000000000000000000000 PUSH0 MSTORE PUSH1 0x41 PUSH1 0x4 MSTORE PUSH1 0x24 PUSH0 REVERT JUMPDEST PUSH2 0x19DC DUP3 PUSH2 0x1996 JUMP JUMPDEST DUP2 ADD DUP2 DUP2 LT PUSH8 0xFFFFFFFFFFFFFFFF DUP3 GT OR ISZERO PUSH2 0x19FB JUMPI PUSH2 0x19FA PUSH2 0x19A6 JUMP JUMPDEST JUMPDEST DUP1 PUSH1 0x40 MSTORE POP POP POP JUMP JUMPDEST PUSH0 PUSH2 0x1A0D PUSH2 0x173E JUMP JUMPDEST SWAP1 POP PUSH2 0x1A19 DUP3 DUP3 PUSH2 0x19D3 JUMP JUMPDEST SWAP2 SWAP1 POP JUMP JUMPDEST PUSH0 PUSH8 0xFFFFFFFFFFFFFFFF DUP3 GT ISZERO PUSH2 0x1A38 JUMPI PUSH2 0x1A37 PUSH2 0x19A6 JUMP JUMPDEST JUMPDEST PUSH1 0x20 DUP3 MUL SWAP1 POP PUSH1 0x20 DUP2 ADD SWAP1 POP SWAP2 SWAP1 POP JUMP JUMPDEST PUSH0 PUSH0 REVERT JUMPDEST PUSH0 PUSH2 0x1A5F PUSH2 0x1A5A DUP5 PUSH2 0x1A1E JUMP JUMPDEST PUSH2 0x1A04 JUMP JUMPDEST SWAP1 POP DUP1 DUP4 DUP3 MSTORE PUSH1 0x20 DUP3 ADD SWAP1 POP PUSH1 0x20 DUP5 MUL DUP4 ADD DUP6 DUP2 GT ISZERO PUSH2 0x1A82 JUMPI PUSH2 0x1A81 PUSH2 0x1A49 JUMP JUMPDEST JUMPDEST DUP4 JUMPDEST DUP2 DUP2 LT ISZERO PUSH2 0x1AAB JUMPI DUP1 PUSH2 0x1A97 DUP9 DUP3 PUSH2 0x197E JUMP JUMPDEST DUP5 MSTORE PUSH1 0x20 DUP5 ADD SWAP4 POP POP PUSH1 0x20 DUP2 ADD SWAP1 POP PUSH2 0x1A84 JUMP JUMPDEST POP POP POP SWAP4 SWAP3 POP POP POP JUMP JUMPDEST PUSH0 DUP3 PUSH1 0x1F DUP4 ADD SLT PUSH2 0x1AC9 JUMPI PUSH2 0x1AC8 PUSH2 0x1992 JUMP JUMPDEST JUMPDEST DUP2 CALLDATALOAD PUSH2 0x1AD9 DUP5 DUP3 PUSH1 0x20 DUP7 ADD PUSH2 0x1A4D JUMP JUMPDEST SWAP2 POP POP SWAP3 SWAP2 POP POP JUMP JUMPDEST PUSH0 PUSH0 PUSH0 PUSH0 PUSH0 PUSH0 PUSH1 0xC0 DUP8 DUP10 SUB SLT ISZERO PUSH2 0x1AFC JUMPI PUSH2 0x1AFB PUSH2 0x1747 JUMP JUMPDEST JUMPDEST PUSH0 PUSH2 0x1B09 DUP10 DUP3 DUP11 ADD PUSH2 0x17F3 JUMP JUMPDEST SWAP7 POP POP PUSH1 0x20 PUSH2 0x1B1A DUP10 DUP3 DUP11 ADD PUSH2 0x1795 JUMP JUMPDEST SWAP6 POP POP PUSH1 0x40 PUSH2 0x1B2B DUP10 DUP3 DUP11 ADD PUSH2 0x1795 JUMP JUMPDEST SWAP5 POP POP PUSH1 0x60 PUSH2 0x1B3C DUP10 DUP3 DUP11 ADD PUSH2 0x197E JUMP JUMPDEST SWAP4 POP POP PUSH1 0x80 PUSH2 0x1B4D DUP10 DUP3 DUP11 ADD PUSH2 0x197E JUMP JUMPDEST SWAP3 POP POP PUSH1 0xA0 DUP8 ADD CALLDATALOAD PUSH8 0xFFFFFFFFFFFFFFFF DUP2 GT ISZERO PUSH2 0x1B6E JUMPI PUSH2 0x1B6D PUSH2 0x174B JUMP JUMPDEST JUMPDEST PUSH2 0x1B7A DUP10 DUP3 DUP11 ADD PUSH2 0x1AB5 JUMP JUMPDEST SWAP2 POP POP SWAP3 SWAP6 POP SWAP3 SWAP6 POP SWAP3 SWAP6 JUMP JUMPDEST PUSH0 DUP2 MLOAD SWAP1 POP SWAP2 SWAP1 POP JUMP JUMPDEST PUSH0 DUP3 DUP3 MSTORE PUSH1 0x20 DUP3 ADD SWAP1 POP SWAP3 SWAP2 POP POP JUMP JUMPDEST PUSH0 DUP2 SWAP1 POP PUSH1 0x20 DUP3 ADD SWAP1 POP SWAP2 SWAP1 POP JUMP JUMPDEST PUSH2 0x1BB9 DUP2 PUSH2 0x189C JUMP JUMPDEST DUP3 MSTORE POP POP JUMP JUMPDEST PUSH0 PUSH2 0x1BCA DUP4 DUP4 PUSH2 0x1BB0 JUMP JUMPDEST PUSH1 0x20 DUP4 ADD SWAP1 POP SWAP3 SWAP2 POP POP JUMP JUMPDEST PUSH0 PUSH1 0x20 DUP3 ADD SWAP1 POP SWAP2 SWAP1 POP JUMP JUMPDEST PUSH0 PUSH2 0x1BEC DUP3 PUSH2 0x1B87 JUMP JUMPDEST PUSH2 0x1BF6 DUP2 DUP6 PUSH2 0x1B91 JUMP JUMPDEST SWAP4 POP PUSH2 0x1C01 DUP4 PUSH2 0x1BA1 JUMP JUMPDEST DUP1 PUSH0 JUMPDEST DUP4 DUP2 LT ISZERO PUSH2 0x1C31 JUMPI DUP2 MLOAD PUSH2 0x1C18 DUP9 DUP3 PUSH2 0x1BBF JUMP JUMPDEST SWAP8 POP PUSH2 0x1C23 DUP4 PUSH2 0x1BD6 JUMP JUMPDEST SWAP3 POP POP PUSH1 0x1 DUP2 ADD SWAP1 POP PUSH2 0x1C04 JUMP JUMPDEST POP DUP6 SWAP4 POP POP POP POP SWAP3 SWAP2 POP POP JUMP JUMPDEST PUSH0 PUSH1 0x20 DUP3 ADD SWAP1 POP DUP2 DUP2 SUB PUSH0 DUP4 ADD MSTORE PUSH2 0x1C56 DUP2 DUP5 PUSH2 0x1BE2 JUMP JUMPDEST SWAP1 POP SWAP3 SWAP2 POP POP JUMP JUMPDEST PUSH0 PUSH1 0x20 DUP3 ADD SWAP1 POP PUSH2 0x1C71 PUSH0 DUP4 ADD DUP5 PUSH2 0x1832 JUMP JUMPDEST SWAP3 SWAP2 POP POP JUMP JUMPDEST PUSH0 PUSH1 0x20 DUP3 ADD SWAP1 POP PUSH2 0x1C8A PUSH0 DUP4 ADD DUP5 PUSH2 0x18A5 JUMP JUMPDEST SWAP3 SWAP2 POP POP JUMP JUMPDEST PUSH0 PUSH2 0x140 DUP3 ADD SWAP1 POP PUSH2 0x1CA4 PUSH0 DUP4 ADD DUP14 PUSH2 0x1832 JUMP JUMPDEST PUSH2 0x1CB1 PUSH1 0x20 DUP4 ADD DUP13 PUSH2 0x1832 JUMP JUMPDEST PUSH2 0x1CBE PUSH1 0x40 DUP4 ADD DUP12 PUSH2 0x1832 JUMP JUMPDEST PUSH2 0x1CCB PUSH1 0x60 DUP4 ADD DUP11 PUSH2 0x18A5 JUMP JUMPDEST PUSH2 0x1CD8 PUSH1 0x80 DUP4 ADD DUP10 PUSH2 0x18A5 JUMP JUMPDEST PUSH2 0x1CE5 PUSH1 0xA0 DUP4 ADD DUP9 PUSH2 0x18A5 JUMP JUMPDEST PUSH2 0x1CF2 PUSH1 0xC0 DUP4 ADD DUP8 PUSH2 0x18A5 JUMP JUMPDEST PUSH2 0x1CFF PUSH1 0xE0 DUP4 ADD DUP7 PUSH2 0x18BF JUMP JUMPDEST PUSH2 0x1D0D PUSH2 0x100 DUP4 ADD DUP6 PUSH2 0x18BF JUMP JUMPDEST PUSH2 0x1D1B PUSH2 0x120 DUP4 ADD DUP5 PUSH2 0x18A5 JUMP JUMPDEST SWAP12 SWAP11 POP POP POP POP POP POP POP POP POP POP POP JUMP JUMPDEST PUSH0 PUSH0 PUSH1 0x40 DUP4 DUP6 SUB SLT ISZERO PUSH2 0x1D40 JUMPI PUSH2 0x1D3F PUSH2 0x1747 JUMP JUMPDEST JUMPDEST PUSH0 PUSH2 0x1D4D DUP6 DUP3 DUP7 ADD PUSH2 0x17F3 JUMP JUMPDEST SWAP3 POP POP PUSH1 0x20 PUSH2 0x1D5E DUP6 DUP3 DUP7 ADD PUSH2 0x197E JUMP JUMPDEST SWAP2 POP POP SWAP3 POP SWAP3 SWAP1 POP JUMP JUMPDEST PUSH0 DUP2 MLOAD SWAP1 POP PUSH2 0x1D76 DUP2 PUSH2 0x1968 JUMP JUMPDEST SWAP3 SWAP2 POP POP JUMP JUMPDEST PUSH0 PUSH1 0x20 DUP3 DUP5 SUB SLT ISZERO PUSH2 0x1D91 JUMPI PUSH2 0x1D90 PUSH2 0x1747 JUMP JUMPDEST JUMPDEST PUSH0 PUSH2 0x1D9E DUP5 DUP3 DUP6 ADD PUSH2 0x1D68 JUMP JUMPDEST SWAP2 POP POP SWAP3 SWAP2 POP POP JUMP JUMPDEST PUSH0 DUP3 DUP3 MSTORE PUSH1 0x20 DUP3 ADD SWAP1 POP SWAP3 SWAP2 POP POP JUMP JUMPDEST PUSH32 0x53696E2073616C646F2070617261207265736361746172000000000000000000 PUSH0 DUP3 ADD MSTORE POP JUMP JUMPDEST PUSH0 PUSH2 0x1DEB PUSH1 0x17 DUP4 PUSH2 0x1DA7 JUMP JUMPDEST SWAP2 POP PUSH2 0x1DF6 DUP3 PUSH2 0x1DB7 JUMP JUMPDEST PUSH1 0x20 DUP3 ADD SWAP1 POP SWAP2 SWAP1 POP JUMP JUMPDEST PUSH0 PUSH1 0x20 DUP3 ADD SWAP1 POP DUP2 DUP2 SUB PUSH0 DUP4 ADD MSTORE PUSH2 0x1E18 DUP2 PUSH2 0x1DDF JUMP JUMPDEST SWAP1 POP SWAP2 SWAP1 POP JUMP JUMPDEST PUSH32 0x4944207961206578697374650000000000000000000000000000000000000000 PUSH0 DUP3 ADD MSTORE POP JUMP JUMPDEST PUSH0 PUSH2 0x1E53 PUSH1 0xC DUP4 PUSH2 0x1DA7 JUMP JUMPDEST SWAP2 POP PUSH2 0x1E5E DUP3 PUSH2 0x1E1F JUMP JUMPDEST PUSH1 0x20 DUP3 ADD SWAP1 POP SWAP2 SWAP1 POP JUMP JUMPDEST PUSH0 PUSH1 0x20 DUP3 ADD SWAP1 POP DUP2 DUP2 SUB PUSH0 DUP4 ADD MSTORE PUSH2 0x1E80 DUP2 PUSH2 0x1E47 JUMP JUMPDEST SWAP1 POP SWAP2 SWAP1 POP JUMP JUMPDEST PUSH32 0x507265737461746172696F20696E76616C69646F000000000000000000000000 PUSH0 DUP3 ADD MSTORE POP JUMP JUMPDEST PUSH0 PUSH2 0x1EBB PUSH1 0x14 DUP4 PUSH2 0x1DA7 JUMP JUMPDEST SWAP2 POP PUSH2 0x1EC6 DUP3 PUSH2 0x1E87 JUMP JUMPDEST PUSH1 0x20 DUP3 ADD SWAP1 POP SWAP2 SWAP1 POP JUMP JUMPDEST PUSH0 PUSH1 0x20 DUP3 ADD SWAP1 POP DUP2 DUP2 SUB PUSH0 DUP4 ADD MSTORE PUSH2 0x1EE8 DUP2 PUSH2 0x1EAF JUMP JUMPDEST SWAP1 POP SWAP2 SWAP1 POP JUMP JUMPDEST PUSH32 0x5072696E636970616C206465626520736572203E203000000000000000000000 PUSH0 DUP3 ADD MSTORE POP JUMP JUMPDEST PUSH0 PUSH2 0x1F23 PUSH1 0x16 DUP4 PUSH2 0x1DA7 JUMP JUMPDEST SWAP2 POP PUSH2 0x1F2E DUP3 PUSH2 0x1EEF JUMP JUMPDEST PUSH1 0x20 DUP3 ADD SWAP1 POP SWAP2 SWAP1 POP JUMP JUMPDEST PUSH0 PUSH1 0x20 DUP3 ADD SWAP1 POP DUP2 DUP2 SUB PUSH0 DUP4 ADD MSTORE PUSH2 0x1F50 DUP2 PUSH2 0x1F17 JUMP JUMPDEST SWAP1 POP SWAP2 SWAP1 POP JUMP JUMPDEST PUSH32 0x496E7465726573206D6178696D6F203130302500000000000000000000000000 PUSH0 DUP3 ADD MSTORE POP JUMP JUMPDEST PUSH0 PUSH2 0x1F8B PUSH1 0x13 DUP4 PUSH2 0x1DA7 JUMP JUMPDEST SWAP2 POP PUSH2 0x1F96 DUP3 PUSH2 0x1F57 JUMP JUMPDEST PUSH1 0x20 DUP3 ADD SWAP1 POP SWAP2 SWAP1 POP JUMP JUMPDEST PUSH0 PUSH1 0x20 DUP3 ADD SWAP1 POP DUP2 DUP2 SUB PUSH0 DUP4 ADD MSTORE PUSH2 0x1FB8 DUP2 PUSH2 0x1F7F JUMP JUMPDEST SWAP1 POP SWAP2 SWAP1 POP JUMP JUMPDEST PUSH32 0x43726F6E6F6772616D6120766163696F00000000000000000000000000000000 PUSH0 DUP3 ADD MSTORE POP JUMP JUMPDEST PUSH0 PUSH2 0x1FF3 PUSH1 0x10 DUP4 PUSH2 0x1DA7 JUMP JUMPDEST SWAP2 POP PUSH2 0x1FFE DUP3 PUSH2 0x1FBF JUMP JUMPDEST PUSH1 0x20 DUP3 ADD SWAP1 POP SWAP2 SWAP1 POP JUMP JUMPDEST PUSH0 PUSH1 0x20 DUP3 ADD SWAP1 POP DUP2 DUP2 SUB PUSH0 DUP4 ADD MSTORE PUSH2 0x2020 DUP2 PUSH2 0x1FE7 JUMP JUMPDEST SWAP1 POP SWAP2 SWAP1 POP JUMP JUMPDEST PUSH32 0x4E487B7100000000000000000000000000000000000000000000000000000000 PUSH0 MSTORE PUSH1 0x32 PUSH1 0x4 MSTORE PUSH1 0x24 PUSH0 REVERT JUMPDEST PUSH32 0x4665636861203C2061686F726100000000000000000000000000000000000000 PUSH0 DUP3 ADD MSTORE POP JUMP JUMPDEST PUSH0 PUSH2 0x2088 PUSH1 0xD DUP4 PUSH2 0x1DA7 JUMP JUMPDEST SWAP2 POP PUSH2 0x2093 DUP3 PUSH2 0x2054 JUMP JUMPDEST PUSH1 0x20 DUP3 ADD SWAP1 POP SWAP2 SWAP1 POP JUMP JUMPDEST PUSH0 PUSH1 0x20 DUP3 ADD SWAP1 POP DUP2 DUP2 SUB PUSH0 DUP4 ADD MSTORE PUSH2 0x20B5 DUP2 PUSH2 0x207C JUMP JUMPDEST SWAP1 POP SWAP2 SWAP1 POP JUMP JUMPDEST PUSH32 0x466563686173206E6F20617363656E64656E7465730000000000000000000000 PUSH0 DUP3 ADD MSTORE POP JUMP JUMPDEST PUSH0 PUSH2 0x20F0 PUSH1 0x15 DUP4 PUSH2 0x1DA7 JUMP JUMPDEST SWAP2 POP PUSH2 0x20FB DUP3 PUSH2 0x20BC JUMP JUMPDEST PUSH1 0x20 DUP3 ADD SWAP1 POP SWAP2 SWAP1 POP JUMP JUMPDEST PUSH0 PUSH1 0x20 DUP3 ADD SWAP1 POP DUP2 DUP2 SUB PUSH0 DUP4 ADD MSTORE PUSH2 0x211D DUP2 PUSH2 0x20E4 JUMP JUMPDEST SWAP1 POP SWAP2 SWAP1 POP JUMP JUMPDEST PUSH32 0x4E487B7100000000000000000000000000000000000000000000000000000000 PUSH0 MSTORE PUSH1 0x11 PUSH1 0x4 MSTORE PUSH1 0x24 PUSH0 REVERT JUMPDEST PUSH0 PUSH2 0x215B DUP3 PUSH2 0x189C JUMP JUMPDEST SWAP2 POP PUSH2 0x2166 DUP4 PUSH2 0x189C JUMP JUMPDEST SWAP3 POP DUP3 DUP3 MUL PUSH2 0x2174 DUP2 PUSH2 0x189C JUMP JUMPDEST SWAP2 POP DUP3 DUP3 DIV DUP5 EQ DUP4 ISZERO OR PUSH2 0x218B JUMPI PUSH2 0x218A PUSH2 0x2124 JUMP JUMPDEST JUMPDEST POP SWAP3 SWAP2 POP POP JUMP JUMPDEST PUSH32 0x4E487B7100000000000000000000000000000000000000000000000000000000 PUSH0 MSTORE PUSH1 0x12 PUSH1 0x4 MSTORE PUSH1 0x24 PUSH0 REVERT JUMPDEST PUSH0 PUSH2 0x21C9 DUP3 PUSH2 0x189C JUMP JUMPDEST SWAP2 POP PUSH2 0x21D4 DUP4 PUSH2 0x189C JUMP JUMPDEST SWAP3 POP DUP3 PUSH2 0x21E4 JUMPI PUSH2 0x21E3 PUSH2 0x2192 JUMP JUMPDEST JUMPDEST DUP3 DUP3 DIV SWAP1 POP SWAP3 SWAP2 POP POP JUMP JUMPDEST PUSH0 PUSH2 0x21F9 DUP3 PUSH2 0x189C JUMP JUMPDEST SWAP2 POP PUSH2 0x2204 DUP4 PUSH2 0x189C JUMP JUMPDEST SWAP3 POP DUP3 DUP3 ADD SWAP1 POP DUP1 DUP3 GT ISZERO PUSH2 0x221C JUMPI PUSH2 0x221B PUSH2 0x2124 JUMP JUMPDEST JUMPDEST SWAP3 SWAP2 POP POP JUMP JUMPDEST PUSH0 PUSH1 0xA0 DUP3 ADD SWAP1 POP PUSH2 0x2235 PUSH0 DUP4 ADD DUP9 PUSH2 0x1832 JUMP JUMPDEST PUSH2 0x2242 PUSH1 0x20 DUP4 ADD DUP8 PUSH2 0x18A5 JUMP JUMPDEST PUSH2 0x224F PUSH1 0x40 DUP4 ADD DUP7 PUSH2 0x18A5 JUMP JUMPDEST PUSH2 0x225C PUSH1 0x60 DUP4 ADD DUP6 PUSH2 0x18A5 JUMP JUMPDEST DUP2 DUP2 SUB PUSH1 0x80 DUP4 ADD MSTORE PUSH2 0x226E DUP2 DUP5 PUSH2 0x1BE2 JUMP JUMPDEST SWAP1 POP SWAP7 SWAP6 POP POP POP POP POP POP JUMP JUMPDEST PUSH32 0x5072657374616D6F206E6F206578697374650000000000000000000000000000 PUSH0 DUP3 ADD MSTORE POP JUMP JUMPDEST PUSH0 PUSH2 0x22AE PUSH1 0x12 DUP4 PUSH2 0x1DA7 JUMP JUMPDEST SWAP2 POP PUSH2 0x22B9 DUP3 PUSH2 0x227A JUMP JUMPDEST PUSH1 0x20 DUP3 ADD SWAP1 POP SWAP2 SWAP1 POP JUMP JUMPDEST PUSH0 PUSH1 0x20 DUP3 ADD SWAP1 POP DUP2 DUP2 SUB PUSH0 DUP4 ADD MSTORE PUSH2 0x22DB DUP2 PUSH2 0x22A2 JUMP JUMPDEST SWAP1 POP SWAP2 SWAP1 POP JUMP JUMPDEST PUSH32 0x536F6C6F206C656E646572000000000000000000000000000000000000000000 PUSH0 DUP3 ADD MSTORE POP JUMP JUMPDEST PUSH0 PUSH2 0x2316 PUSH1 0xB DUP4 PUSH2 0x1DA7 JUMP JUMPDEST SWAP2 POP PUSH2 0x2321 DUP3 PUSH2 0x22E2 JUMP JUMPDEST PUSH1 0x20 DUP3 ADD SWAP1 POP SWAP2 SWAP1 POP JUMP JUMPDEST PUSH0 PUSH1 0x20 DUP3 ADD SWAP1 POP DUP2 DUP2 SUB PUSH0 DUP4 ADD MSTORE PUSH2 0x2343 DUP2 PUSH2 0x230A JUMP JUMPDEST SWAP1 POP SWAP2 SWAP1 POP JUMP JUMPDEST PUSH32 0x5961206675652066696E616E636961646F000000000000000000000000000000 PUSH0 DUP3 ADD MSTORE POP JUMP JUMPDEST PUSH0 PUSH2 0x237E PUSH1 0x11 DUP4 PUSH2 0x1DA7 JUMP JUMPDEST SWAP2 POP PUSH2 0x2389 DUP3 PUSH2 0x234A JUMP JUMPDEST PUSH1 0x20 DUP3 ADD SWAP1 POP SWAP2 SWAP1 POP JUMP JUMPDEST PUSH0 PUSH1 0x20 DUP3 ADD SWAP1 POP DUP2 DUP2 SUB PUSH0 DUP4 ADD MSTORE PUSH2 0x23AB DUP2 PUSH2 0x2372 JUMP JUMPDEST SWAP1 POP SWAP2 SWAP1 POP JUMP JUMPDEST PUSH0 PUSH2 0x23BC DUP3 PUSH2 0x189C JUMP JUMPDEST SWAP2 POP PUSH2 0x23C7 DUP4 PUSH2 0x189C JUMP JUMPDEST SWAP3 POP DUP3 DUP3 SUB SWAP1 POP DUP2 DUP2 GT ISZERO PUSH2 0x23DF JUMPI PUSH2 0x23DE PUSH2 0x2124 JUMP JUMPDEST JUMPDEST SWAP3 SWAP2 POP POP JUMP JUMPDEST PUSH0 PUSH2 0x23EF DUP3 PUSH2 0x189C JUMP JUMPDEST SWAP2 POP PUSH32 0xFFFFFFFFFFFFFFFFFFFFFFFFFFFFFFFFFFFFFFFFFFFFFFFFFFFFFFFFFFFFFFFF DUP3 SUB PUSH2 0x2421 JUMPI PUSH2 0x2420 PUSH2 0x2124 JUMP JUMPDEST JUMPDEST PUSH1 0x1 DUP3 ADD SWAP1 POP SWAP2 SWAP1 POP JUMP JUMPDEST PUSH32 0x4E6F2066696E616E636961646F2061756E000000000000000000000000000000 PUSH0 DUP3 ADD MSTORE POP JUMP JUMPDEST PUSH0 PUSH2 0x2460 PUSH1 0x11 DUP4 PUSH2 0x1DA7 JUMP JUMPDEST SWAP2 POP PUSH2 0x246B DUP3 PUSH2 0x242C JUMP JUMPDEST PUSH1 0x20 DUP3 ADD SWAP1 POP SWAP2 SWAP1 POP JUMP JUMPDEST PUSH0 PUSH1 0x20 DUP3 ADD SWAP1 POP DUP2 DUP2 SUB PUSH0 DUP4 ADD MSTORE PUSH2 0x248D DUP2 PUSH2 0x2454 JUMP JUMPDEST SWAP1 POP SWAP2 SWAP1 POP JUMP JUMPDEST PUSH32 0x5961206C697175696461646F0000000000000000000000000000000000000000 PUSH0 DUP3 ADD MSTORE POP JUMP JUMPDEST PUSH0 PUSH2 0x24C8 PUSH1 0xC DUP4 PUSH2 0x1DA7 JUMP JUMPDEST SWAP2 POP PUSH2 0x24D3 DUP3 PUSH2 0x2494 JUMP JUMPDEST PUSH1 0x20 DUP3 ADD SWAP1 POP SWAP2 SWAP1 POP JUMP JUMPDEST PUSH0 PUSH1 0x20 DUP3 ADD SWAP1 POP DUP2 DUP2 SUB PUSH0 DUP4 ADD MSTORE PUSH2 0x24F5 DUP2 PUSH2 0x24BC JUMP JUMPDEST SWAP1 POP SWAP2 SWAP1 POP JUMP JUMPDEST PUSH32 0x536F6C6F20626F72726F77657200000000000000000000000000000000000000 PUSH0 DUP3 ADD MSTORE POP JUMP JUMPDEST PUSH0 PUSH2 0x2530 PUSH1 0xD DUP4 PUSH2 0x1DA7 JUMP JUMPDEST SWAP2 POP PUSH2 0x253B DUP3 PUSH2 0x24FC JUMP JUMPDEST PUSH1 0x20 DUP3 ADD SWAP1 POP SWAP2 SWAP1 POP JUMP JUMPDEST PUSH0 PUSH1 0x20 DUP3 ADD SWAP1 POP DUP2 DUP2 SUB PUSH0 DUP4 ADD MSTORE PUSH2 0x255D DUP2 PUSH2 0x2524 JUMP JUMPDEST SWAP1 POP SWAP2 SWAP1 POP JUMP JUMPDEST PUSH32 0x546F646173206665636861732075736164617300000000000000000000000000 PUSH0 DUP3 ADD MSTORE POP JUMP JUMPDEST PUSH0 PUSH2 0x2598 PUSH1 0x13 DUP4 PUSH2 0x1DA7 JUMP JUMPDEST SWAP2 POP PUSH2 0x25A3 DUP3 PUSH2 0x2564 JUMP JUMPDEST PUSH1 0x20 DUP3 ADD SWAP1 POP SWAP2 SWAP1 POP JUMP JUMPDEST PUSH0 PUSH1 0x20 DUP3 ADD SWAP1 POP DUP2 DUP2 SUB PUSH0 DUP4 ADD MSTORE PUSH2 0x25C5 DUP2 PUSH2 0x258C JUMP JUMPDEST SWAP1 POP SWAP2 SWAP1 POP JUMP JUMPDEST PUSH32 0x4665636861206465207061676F206E6F2076656E636964610000000000000000 PUSH0 DUP3 ADD MSTORE POP JUMP JUMPDEST PUSH0 PUSH2 0x2600 PUSH1 0x18 DUP4 PUSH2 0x1DA7 JUMP JUMPDEST SWAP2 POP PUSH2 0x260B DUP3 PUSH2 0x25CC JUMP JUMPDEST PUSH1 0x20 DUP3 ADD SWAP1 POP SWAP2 SWAP1 POP JUMP JUMPDEST PUSH0 PUSH1 0x20 DUP3 ADD SWAP1 POP DUP2 DUP2 SUB PUSH0 DUP4 ADD MSTORE PUSH2 0x262D DUP2 PUSH2 0x25F4 JUMP JUMPDEST SWAP1 POP SWAP2 SWAP1 POP JUMP JUMPDEST PUSH32 0x43756F746120696E76616C696461000000000000000000000000000000000000 PUSH0 DUP3 ADD MSTORE POP JUMP JUMPDEST PUSH0 PUSH2 0x2668 PUSH1 0xE DUP4 PUSH2 0x1DA7 JUMP JUMPDEST SWAP2 POP PUSH2 0x2673 DUP3 PUSH2 0x2634 JUMP JUMPDEST PUSH1 0x20 DUP3 ADD SWAP1 POP SWAP2 SWAP1 POP JUMP JUMPDEST PUSH0 PUSH1 0x20 DUP3 ADD SWAP1 POP DUP2 DUP2 SUB PUSH0 DUP4 ADD MSTORE PUSH2 0x2695 DUP2 PUSH2 0x265C JUMP JUMPDEST SWAP1 POP SWAP2 SWAP1 POP JUMP JUMPDEST PUSH32 0x506167612063756F746120657861637461000000000000000000000000000000 PUSH0 DUP3 ADD MSTORE POP JUMP JUMPDEST PUSH0 PUSH2 0x26D0 PUSH1 0x11 DUP4 PUSH2 0x1DA7 JUMP JUMPDEST SWAP2 POP PUSH2 0x26DB DUP3 PUSH2 0x269C JUMP JUMPDEST PUSH1 0x20 DUP3 ADD SWAP1 POP SWAP2 SWAP1 POP JUMP JUMPDEST PUSH0 PUSH1 0x20 DUP3 ADD SWAP1 POP DUP2 DUP2 SUB PUSH0 DUP4 ADD MSTORE PUSH2 0x26FD DUP2 PUSH2 0x26C4 JUMP JUMPDEST SWAP1 POP SWAP2 SWAP1 POP JUMP JUMPDEST PUSH0 PUSH1 0x60 DUP3 ADD SWAP1 POP PUSH2 0x2717 PUSH0 DUP4 ADD DUP7 PUSH2 0x18A5 JUMP JUMPDEST PUSH2 0x2724 PUSH1 0x20 DUP4 ADD DUP6 PUSH2 0x18A5 JUMP JUMPDEST PUSH2 0x2731 PUSH1 0x40 DUP4 ADD DUP5 PUSH2 0x18A5 JUMP JUMPDEST SWAP5 SWAP4 POP POP POP POP JUMP JUMPDEST PUSH0 PUSH1 0x40 DUP3 ADD SWAP1 POP PUSH2 0x274C PUSH0 DUP4 ADD DUP6 PUSH2 0x1832 JUMP JUMPDEST PUSH2 0x2759 PUSH1 0x20 DUP4 ADD DUP5 PUSH2 0x18A5 JUMP JUMPDEST SWAP4 SWAP3 POP POP POP JUMP JUMPDEST PUSH0 PUSH1 0x60 DUP3 ADD SWAP1 POP PUSH2 0x2773 PUSH0 DUP4 ADD DUP7 PUSH2 0x1832 JUMP JUMPDEST PUSH2 0x2780 PUSH1 0x20 DUP4 ADD DUP6 PUSH2 0x1832 JUMP JUMPDEST PUSH2 0x278D PUSH1 0x40 DUP4 ADD DUP5 PUSH2 0x18A5 JUMP JUMPDEST SWAP5 SWAP4 POP POP POP POP JUMP INVALID LOG2 PUSH5 0x6970667358 0x22 SLT KECCAK256 DATALOADN 0x120C SWAPN 0x29 SWAP5 0xA9 DUP5 JUMPDEST ORIGIN MULMOD PUSH21 0x593461798E0F33DF5718968266381F7EC06C49D864 PUSH20 0x6F6C634300081E00330000000000000000000000 "
				},
				"gasEstimates": {
					"creation": {
						"codeDepositCost": "2037400",
						"executionCost": "infinite",
						"totalCost": "infinite"
					},
					"external": {
						"crear_prestamo(bytes32,address,address,uint256,uint256,uint256[])": "infinite",
						"cuanto_falta(bytes32)": "infinite",
						"ejecutar_prestamo(bytes32)": "infinite",
						"getLoanInfo(bytes32)": "infinite",
						"owner()": "2514",
						"pagar_prestamo(bytes32,uint256)": "infinite",
						"pagos_vencidos(bytes32)": "infinite",
						"prestamos(bytes32)": "infinite",
						"renounceOwnership()": "infinite",
						"rescueTokens(address)": "infinite",
						"transferOwnership(address)": "infinite",
						"ver_fechas_pago(bytes32)": "infinite"
					}
				},
				"methodIdentifiers": {
					"crear_prestamo(bytes32,address,address,uint256,uint256,uint256[])": "30d84cc1",
					"cuanto_falta(bytes32)": "9aa1afa5",
					"ejecutar_prestamo(bytes32)": "6676bf4f",
					"getLoanInfo(bytes32)": "b6157090",
					"owner()": "8da5cb5b",
					"pagar_prestamo(bytes32,uint256)": "ce614fa3",
					"pagos_vencidos(bytes32)": "b67f1828",
					"prestamos(bytes32)": "03af79cd",
					"renounceOwnership()": "715018a6",
					"rescueTokens(address)": "00ae3bf8",
					"transferOwnership(address)": "f2fde38b",
					"ver_fechas_pago(bytes32)": "6316483b"
				}
			},
			"storageLayout": {
				"storage": [
					{
						"astId": 8,
						"contract": "contracts/loans.sol:P2PBank",
						"label": "_owner",
						"offset": 0,
						"slot": "0",
						"type": "t_address"
					},
					{
						"astId": 820,
						"contract": "contracts/loans.sol:P2PBank",
						"label": "_status",
						"offset": 0,
						"slot": "1",
						"type": "t_uint256"
					},
					{
						"astId": 936,
						"contract": "contracts/loans.sol:P2PBank",
						"label": "prestamos",
						"offset": 0,
						"slot": "2",
						"type": "t_mapping(t_bytes32,t_struct(Prestamo)930_storage)"
					}
				],
				"types": {
					"t_address": {
						"encoding": "inplace",
						"label": "address",
						"numberOfBytes": "20"
					},
					"t_array(t_uint256)dyn_storage": {
						"base": "t_uint256",
						"encoding": "dynamic_array",
						"label": "uint256[]",
						"numberOfBytes": "32"
					},
					"t_bool": {
						"encoding": "inplace",
						"label": "bool",
						"numberOfBytes": "1"
					},
					"t_bytes32": {
						"encoding": "inplace",
						"label": "bytes32",
						"numberOfBytes": "32"
					},
					"t_contract(IERC20)315": {
						"encoding": "inplace",
						"label": "contract IERC20",
						"numberOfBytes": "20"
					},
					"t_mapping(t_bytes32,t_struct(Prestamo)930_storage)": {
						"encoding": "mapping",
						"key": "t_bytes32",
						"label": "mapping(bytes32 => struct P2PBank.Prestamo)",
						"numberOfBytes": "32",
						"value": "t_struct(Prestamo)930_storage"
					},
					"t_struct(Prestamo)930_storage": {
						"encoding": "inplace",
						"label": "struct P2PBank.Prestamo",
						"members": [
							{
								"astId": 907,
								"contract": "contracts/loans.sol:P2PBank",
								"label": "prestamista",
								"offset": 0,
								"slot": "0",
								"type": "t_address"
							},
							{
								"astId": 909,
								"contract": "contracts/loans.sol:P2PBank",
								"label": "prestatario",
								"offset": 0,
								"slot": "1",
								"type": "t_address"
							},
							{
								"astId": 912,
								"contract": "contracts/loans.sol:P2PBank",
								"label": "token",
								"offset": 0,
								"slot": "2",
								"type": "t_contract(IERC20)315"
							},
							{
								"astId": 914,
								"contract": "contracts/loans.sol:P2PBank",
								"label": "cantidad",
								"offset": 0,
								"slot": "3",
								"type": "t_uint256"
							},
							{
								"astId": 916,
								"contract": "contracts/loans.sol:P2PBank",
								"label": "interes",
								"offset": 0,
								"slot": "4",
								"type": "t_uint256"
							},
							{
								"astId": 918,
								"contract": "contracts/loans.sol:P2PBank",
								"label": "total_pagar",
								"offset": 0,
								"slot": "5",
								"type": "t_uint256"
							},
							{
								"astId": 920,
								"contract": "contracts/loans.sol:P2PBank",
								"label": "pagado",
								"offset": 0,
								"slot": "6",
								"type": "t_uint256"
							},
							{
								"astId": 922,
								"contract": "contracts/loans.sol:P2PBank",
								"label": "dinero_enviado",
								"offset": 0,
								"slot": "7",
								"type": "t_bool"
							},
							{
								"astId": 924,
								"contract": "contracts/loans.sol:P2PBank",
								"label": "todo_pagado",
								"offset": 1,
								"slot": "7",
								"type": "t_bool"
							},
							{
								"astId": 927,
								"contract": "contracts/loans.sol:P2PBank",
								"label": "fechas_de_pago",
								"offset": 0,
								"slot": "8",
								"type": "t_array(t_uint256)dyn_storage"
							},
							{
								"astId": 929,
								"contract": "contracts/loans.sol:P2PBank",
								"label": "proxima_fecha",
								"offset": 0,
								"slot": "9",
								"type": "t_uint256"
							}
						],
						"numberOfBytes": "320"
					},
					"t_uint256": {
						"encoding": "inplace",
						"label": "uint256",
						"numberOfBytes": "32"
					}
				}
			},
			"userdoc": {
				"kind": "user",
				"methods": {
					"crear_prestamo(bytes32,address,address,uint256,uint256,uint256[])": {
						"notice": "Crea un préstamo “on‑chain” bloqueando el ID y toda la info básica."
					},
					"cuanto_falta(bytes32)": {
						"notice": "Devuelve cuánto falta por pagar (total_pagar ‑ pagado)."
					},
					"ejecutar_prestamo(bytes32)": {
						"notice": "El prestamista debe haber hecho antes: token.approve(this, principal).         Con este paso, el contrato transfiere realmente el principal desde el prestamista al prestatario."
					},
					"getLoanInfo(bytes32)": {
						"notice": "Devuelve información del préstamo concreto (sin exponer internal schedule)."
					},
					"pagar_prestamo(bytes32,uint256)": {
						"notice": "El prestatario paga la cuota correspondiente a la fecha actual (o anterior).          El contrato calcula cuánto se debe en esta cuota como:            montoPorCuota = (saldoRestante) / (fechasTotales - índicesPagados).         o sea, si quedan N fechas y debe R, cada fecha es R/N."
					},
					"pagos_vencidos(bytes32)": {
						"notice": "Devuelve cuántas cuotas ya vencieron (block.timestamp >= fecha)."
					},
					"rescueTokens(address)": {
						"notice": "Permite al owner (admin) retirar tokens sobrantes que puedan quedar en el contrato."
					},
					"ver_fechas_pago(bytes32)": {
						"notice": "Devuelve todas las fechas pactadas (timestamps) para el préstamo."
					}
				},
				"version": 1
			}
		}
	}
}